{
  "_format": "hh-sol-artifact-1",
  "contractName": "ExchangeFacet",
  "sourceName": "contracts/facets/ExchangeFacet.sol",
  "abi": [
    {
      "anonymous": false,
      "inputs": [
        {
          "indexed": true,
          "internalType": "address",
          "name": "owner",
          "type": "address"
        },
        {
          "indexed": true,
          "internalType": "address",
          "name": "approved",
          "type": "address"
        },
        {
          "indexed": true,
          "internalType": "uint256",
          "name": "tokenId",
          "type": "uint256"
        }
      ],
      "name": "Approval",
      "type": "event"
    },
    {
      "anonymous": false,
      "inputs": [
        {
          "indexed": true,
          "internalType": "address",
          "name": "owner",
          "type": "address"
        },
        {
          "indexed": true,
          "internalType": "address",
          "name": "operator",
          "type": "address"
        },
        {
          "indexed": false,
          "internalType": "bool",
          "name": "approved",
          "type": "bool"
        }
      ],
      "name": "ApprovalForAll",
      "type": "event"
    },
    {
      "anonymous": false,
      "inputs": [
        {
          "indexed": true,
          "internalType": "address",
          "name": "_from",
          "type": "address"
        },
        {
          "indexed": true,
          "internalType": "uint256",
          "name": "_playerId",
          "type": "uint256"
        },
        {
          "indexed": false,
          "internalType": "uint256",
          "name": "_price",
          "type": "uint256"
        }
      ],
      "name": "CreateEquipmentListing",
      "type": "event"
    },
    {
      "anonymous": false,
      "inputs": [
        {
          "indexed": true,
          "internalType": "address",
          "name": "_from",
          "type": "address"
        },
        {
          "indexed": true,
          "internalType": "uint256",
          "name": "_playerId",
          "type": "uint256"
        },
        {
          "indexed": false,
          "internalType": "uint256",
          "name": "_price",
          "type": "uint256"
        }
      ],
      "name": "CreatePlayerListing",
      "type": "event"
    },
    {
      "anonymous": false,
      "inputs": [
        {
          "indexed": true,
          "internalType": "address",
          "name": "_from",
          "type": "address"
        },
        {
          "indexed": true,
          "internalType": "uint256",
          "name": "_playerId",
          "type": "uint256"
        }
      ],
      "name": "DelistPlayer",
      "type": "event"
    },
    {
      "anonymous": false,
      "inputs": [
        {
          "indexed": true,
          "internalType": "address",
          "name": "_to",
          "type": "address"
        },
        {
          "indexed": false,
          "internalType": "uint256",
          "name": "_id",
          "type": "uint256"
        }
      ],
      "name": "PurchaseEquipmentLisitng",
      "type": "event"
    },
    {
      "anonymous": false,
      "inputs": [
        {
          "indexed": true,
          "internalType": "address",
          "name": "_to",
          "type": "address"
        },
        {
          "indexed": false,
          "internalType": "uint256",
          "name": "_id",
          "type": "uint256"
        }
      ],
      "name": "PurchasePlayerListing",
      "type": "event"
    },
    {
      "anonymous": false,
      "inputs": [
        {
          "indexed": true,
          "internalType": "address",
          "name": "from",
          "type": "address"
        },
        {
          "indexed": true,
          "internalType": "address",
          "name": "to",
          "type": "address"
        },
        {
          "indexed": true,
          "internalType": "uint256",
          "name": "tokenId",
          "type": "uint256"
        }
      ],
      "name": "Transfer",
      "type": "event"
    },
    {
      "inputs": [
        {
          "internalType": "address",
          "name": "_facetAddress",
          "type": "address"
        },
        {
          "internalType": "uint256",
          "name": "_amount",
          "type": "uint256"
        },
        {
          "internalType": "address payable",
          "name": "_to",
          "type": "address"
        }
      ],
      "name": "claimGoldfromERC20",
      "outputs": [],
      "stateMutability": "nonpayable",
      "type": "function"
    },
    {
      "inputs": [
        {
          "internalType": "uint256",
          "name": "_playerId",
          "type": "uint256"
        },
        {
          "internalType": "uint256",
          "name": "_price",
          "type": "uint256"
        }
      ],
      "name": "createPlayerListing",
      "outputs": [],
      "stateMutability": "nonpayable",
      "type": "function"
    },
    {
      "inputs": [
        {
          "internalType": "uint256",
          "name": "_playerId",
          "type": "uint256"
        }
      ],
      "name": "deListPlayer",
      "outputs": [],
      "stateMutability": "nonpayable",
      "type": "function"
    },
    {
      "inputs": [],
      "name": "getAllPlayerListings",
      "outputs": [
        {
          "internalType": "uint256[]",
          "name": "",
          "type": "uint256[]"
        }
      ],
      "stateMutability": "view",
      "type": "function"
    },
    {
      "inputs": [
        {
          "internalType": "address",
          "name": "_address",
          "type": "address"
        }
      ],
      "name": "getGoldBalance",
      "outputs": [
        {
          "internalType": "uint256",
          "name": "",
          "type": "uint256"
        }
      ],
      "stateMutability": "view",
      "type": "function"
    },
    {
      "inputs": [
        {
          "internalType": "uint256",
          "name": "_playerId",
          "type": "uint256"
        }
      ],
      "name": "getPlayerListing",
      "outputs": [
        {
          "components": [
            {
              "internalType": "address payable",
              "name": "seller",
              "type": "address"
            },
            {
              "internalType": "uint256",
              "name": "playerId",
              "type": "uint256"
            },
            {
              "internalType": "uint256",
              "name": "price",
              "type": "uint256"
            },
            {
              "internalType": "uint256",
              "name": "pointer",
              "type": "uint256"
            },
            {
              "internalType": "uint256",
              "name": "addressPointer",
              "type": "uint256"
            }
          ],
          "internalType": "struct PlayerListing",
          "name": "",
          "type": "tuple"
        }
      ],
      "stateMutability": "view",
      "type": "function"
    },
    {
      "inputs": [
        {
          "internalType": "address",
          "name": "_address",
          "type": "address"
        }
      ],
      "name": "getPlayerListingsByAddress",
      "outputs": [
        {
          "internalType": "uint256[]",
          "name": "",
          "type": "uint256[]"
        }
      ],
      "stateMutability": "view",
      "type": "function"
    },
    {
      "inputs": [
        {
          "internalType": "address",
          "name": "_facetAddress",
          "type": "address"
        },
        {
          "internalType": "uint256",
          "name": "_amount",
          "type": "uint256"
        },
        {
          "internalType": "address payable",
          "name": "_to",
          "type": "address"
        }
      ],
      "name": "mintGoldERC20",
      "outputs": [],
      "stateMutability": "nonpayable",
      "type": "function"
    },
    {
      "inputs": [
        {
          "internalType": "uint256",
          "name": "_playerId",
          "type": "uint256"
        }
      ],
      "name": "owners",
      "outputs": [
        {
          "internalType": "address",
          "name": "",
          "type": "address"
        }
      ],
      "stateMutability": "view",
      "type": "function"
    },
    {
      "inputs": [
        {
          "internalType": "uint256",
          "name": "_playerId",
          "type": "uint256"
        }
      ],
      "name": "purchasePlayer",
      "outputs": [],
      "stateMutability": "payable",
      "type": "function"
    },
    {
      "inputs": [
        {
          "internalType": "address",
          "name": "_to",
          "type": "address"
        },
        {
          "internalType": "uint256",
          "name": "_playerId",
          "type": "uint256"
        }
      ],
      "name": "transferPlayer",
      "outputs": [],
      "stateMutability": "nonpayable",
      "type": "function"
    }
  ],
  "bytecode": "0x608060405234801561001057600080fd5b5060016000819055506132e8806100286000396000f3fe60806040526004361061009c5760003560e01c806352605d411161006457806352605d411461019d57806352d2872a146101c85780635c41f39c146101f157806374c57c301461021a57806374e55f3214610243578063a61896e6146102805761009c565b8063025e7c27146100a1578063075881d6146100de578063275cca88146100fa5780633707caf2146101235780634ae8e57714610160575b600080fd5b3480156100ad57600080fd5b506100c860048036038101906100c391906124b9565b6102a9565b6040516100d59190612527565b60405180910390f35b6100f860048036038101906100f391906124b9565b6102bb565b005b34801561010657600080fd5b50610121600480360381019061011c91906125ac565b61059e565b005b34801561012f57600080fd5b5061014a600480360381019061014591906125ff565b6105be565b604051610157919061263b565b60405180910390f35b34801561016c57600080fd5b50610187600480360381019061018291906125ff565b6105d0565b6040516101949190612714565b60405180910390f35b3480156101a957600080fd5b506101b26105e2565b6040516101bf9190612714565b60405180910390f35b3480156101d457600080fd5b506101ef60048036038101906101ea9190612736565b6105f1565b005b3480156101fd57600080fd5b50610218600480360381019061021391906125ac565b61065e565b005b34801561022657600080fd5b50610241600480360381019061023c9190612776565b61067e565b005b34801561024f57600080fd5b5061026a600480360381019061026591906124b9565b61069d565b604051610277919061282d565b60405180910390f35b34801561028c57600080fd5b506102a760048036038101906102a291906124b9565b6106b5565b005b60006102b482610705565b9050919050565b6102c3610750565b60007308d8e680a2d295af8cbcd8b8e07f900275bc6b8d905060006102e78361079f565b90508060400151341461032f576040517f08c379a0000000000000000000000000000000000000000000000000000000008152600401610326906128a5565b60405180910390fd5b61033883610859565b610346816000015184610c86565b610385576040517f08c379a000000000000000000000000000000000000000000000000000000000815260040161037c90612937565b60405180910390fd5b61039481600001513385610dd8565b600060648083604001516103a89190612986565b606984604001516103b99190612986565b6103c391906129c8565b6103cd9190612a2b565b905060008183604001516103e191906129c8565b90506000836000015173ffffffffffffffffffffffffffffffffffffffff168260405161040d90612a8d565b60006040518083038185875af1925050503d806000811461044a576040519150601f19603f3d011682016040523d82523d6000602084013e61044f565b606091505b5050905080610493576040517f08c379a000000000000000000000000000000000000000000000000000000000815260040161048a90612b14565b60405180910390fd5b60008573ffffffffffffffffffffffffffffffffffffffff16846040516104b990612a8d565b60006040518083038185875af1925050503d80600081146104f6576040519150601f19603f3d011682016040523d82523d6000602084013e6104fb565b606091505b505090508061053f576040517f08c379a000000000000000000000000000000000000000000000000000000000815260040161053690612ba6565b60405180910390fd5b3373ffffffffffffffffffffffffffffffffffffffff167f225283508a8ce3b05daa68183df02a29ea48aeaa415ac67113c50dea09c1b69788604051610585919061263b565b60405180910390a250505050505061059b611100565b50565b6105a6610750565b6105b183838361110a565b6105b9611100565b505050565b60006105c982611344565b9050919050565b60606105db8261139b565b9050919050565b60606105ec611441565b905090565b6105f9610750565b61060382826114a8565b813373ffffffffffffffffffffffffffffffffffffffff167fbf8edb16a3925949bda35d6c527b8f53ff37a989912808fac0a134935dcf50518360405161064a919061263b565b60405180910390a361065a611100565b5050565b610666610750565b610671838383611784565b610679611100565b505050565b610686610750565b610691338383610dd8565b610699611100565b5050565b6106a56123cf565b6106ae8261079f565b9050919050565b6106be81611959565b803373ffffffffffffffffffffffffffffffffffffffff167f1d7264ed0fc0f609bb4cb82e2664c9cd699ae2dc128e0228df77e1abec16d25a60405160405180910390a350565b600080610710611d51565b905080600201600084815260200190815260200160002060009054906101000a900473ffffffffffffffffffffffffffffffffffffffff16915050919050565b600260005403610795576040517f08c379a000000000000000000000000000000000000000000000000000000000815260040161078c90612c12565b60405180910390fd5b6002600081905550565b6107a76123cf565b60006107b1611d7e565b90508060000160008481526020019081526020016000206040518060a00160405290816000820160009054906101000a900473ffffffffffffffffffffffffffffffffffffffff1673ffffffffffffffffffffffffffffffffffffffff1673ffffffffffffffffffffffffffffffffffffffff168152602001600182015481526020016002820154815260200160038201548152602001600482015481525050915050919050565b6000610863611d51565b9050600061086f611d7e565b9050600081600001600085815260200190815260200160002060000160009054906101000a900473ffffffffffffffffffffffffffffffffffffffff16905081600001600085815260200190815260200160002060000160009054906101000a900473ffffffffffffffffffffffffffffffffffffffff1673ffffffffffffffffffffffffffffffffffffffff1683600201600086815260200190815260200160002060009054906101000a900473ffffffffffffffffffffffffffffffffffffffff1673ffffffffffffffffffffffffffffffffffffffff1614610989576040517f08c379a000000000000000000000000000000000000000000000000000000000815260040161098090612c7e565b60405180910390fd5b6000826000016000868152602001908152602001600020600301549050600083600201600185600201805490506109c091906129c8565b815481106109d1576109d0612c9e565b5b90600052602060002001549050808460020183815481106109f5576109f4612c9e565b5b9060005260206000200181905550818460000160008381526020019081526020016000206003018190555083600201805480610a3457610a33612ccd565b5b60019003818190600052602060002001600090559055600084600001600088815260200190815260200160002060040154905060008560010160008673ffffffffffffffffffffffffffffffffffffffff1673ffffffffffffffffffffffffffffffffffffffff16815260200190815260200160002060018760010160008873ffffffffffffffffffffffffffffffffffffffff1673ffffffffffffffffffffffffffffffffffffffff16815260200190815260200160002080549050610afb91906129c8565b81548110610b0c57610b0b612c9e565b5b90600052602060002001549050808660010160008773ffffffffffffffffffffffffffffffffffffffff1673ffffffffffffffffffffffffffffffffffffffff1681526020019081526020016000208381548110610b6d57610b6c612c9e565b5b906000526020600020018190555081866000016000838152602001908152602001600020600401819055508560010160008673ffffffffffffffffffffffffffffffffffffffff1673ffffffffffffffffffffffffffffffffffffffff168152602001908152602001600020805480610be957610be8612ccd565b5b6001900381819060005260206000200160009055905560008760030160008a815260200190815260200160002060020181905550856000016000898152602001908152602001600020600080820160006101000a81549073ffffffffffffffffffffffffffffffffffffffff0219169055600182016000905560028201600090556003820160009055600482016000905550505050505050505050565b600080610c9283611dab565b90508073ffffffffffffffffffffffffffffffffffffffff168473ffffffffffffffffffffffffffffffffffffffff161480610d5d5750610cd1611df1565b60080160008273ffffffffffffffffffffffffffffffffffffffff1673ffffffffffffffffffffffffffffffffffffffff16815260200190815260200160002060008573ffffffffffffffffffffffffffffffffffffffff1673ffffffffffffffffffffffffffffffffffffffff16815260200190815260200160002060009054906101000a900460ff165b80610dcf57508373ffffffffffffffffffffffffffffffffffffffff16610d82611df1565b600b01600085815260200190815260200160002060009054906101000a900473ffffffffffffffffffffffffffffffffffffffff1673ffffffffffffffffffffffffffffffffffffffff16145b91505092915050565b8273ffffffffffffffffffffffffffffffffffffffff16610df882611dab565b73ffffffffffffffffffffffffffffffffffffffff1614610e4e576040517f08c379a0000000000000000000000000000000000000000000000000000000008152600401610e4590612d6e565b60405180910390fd5b600073ffffffffffffffffffffffffffffffffffffffff168273ffffffffffffffffffffffffffffffffffffffff1603610ebd576040517f08c379a0000000000000000000000000000000000000000000000000000000008152600401610eb490612e00565b60405180910390fd5b610eca8383836001611e1e565b8273ffffffffffffffffffffffffffffffffffffffff16610eea82611dab565b73ffffffffffffffffffffffffffffffffffffffff1614610f40576040517f08c379a0000000000000000000000000000000000000000000000000000000008152600401610f3790612d6e565b60405180910390fd5b610f48611df1565b600b01600082815260200190815260200160002060006101000a81549073ffffffffffffffffffffffffffffffffffffffff02191690556001610f89611df1565b600a0160008573ffffffffffffffffffffffffffffffffffffffff1673ffffffffffffffffffffffffffffffffffffffff168152602001908152602001600020600082825403925050819055506001610fe0611df1565b600a0160008473ffffffffffffffffffffffffffffffffffffffff1673ffffffffffffffffffffffffffffffffffffffff1681526020019081526020016000206000828254019250508190555081611036611df1565b600901600083815260200190815260200160002060006101000a81548173ffffffffffffffffffffffffffffffffffffffff021916908373ffffffffffffffffffffffffffffffffffffffff160217905550611093838383611e24565b808273ffffffffffffffffffffffffffffffffffffffff168473ffffffffffffffffffffffffffffffffffffffff167fddf252ad1be2c89b69c2b068fc378daa952ba7f163c4a11628f55a4df523b3ef60405160405180910390a46110fb838383600161236f565b505050565b6001600081905550565b6000611114612375565b90508060010160003373ffffffffffffffffffffffffffffffffffffffff1673ffffffffffffffffffffffffffffffffffffffff1681526020019081526020016000205483111561119a576040517f08c379a000000000000000000000000000000000000000000000000000000000815260040161119190612e92565b60405180910390fd5b60007308d8e680a2d295af8cbcd8b8e07f900275bc6b8d90506000859050600085111561133c576000670de0b6b3a7640000866111d79190612986565b9050600060646002836111ea9190612986565b6111f49190612a2b565b90506000818361120491906129c8565b90508373ffffffffffffffffffffffffffffffffffffffff166340c10f1988836040518363ffffffff1660e01b8152600401611241929190612f11565b600060405180830381600087803b15801561125b57600080fd5b505af115801561126f573d6000803e3d6000fd5b505050508373ffffffffffffffffffffffffffffffffffffffff166340c10f1986846040518363ffffffff1660e01b81526004016112ae929190612f3a565b600060405180830381600087803b1580156112c857600080fd5b505af11580156112dc573d6000803e3d6000fd5b50505050878660010160003373ffffffffffffffffffffffffffffffffffffffff1673ffffffffffffffffffffffffffffffffffffffff168152602001908152602001600020600082825461133191906129c8565b925050819055505050505b505050505050565b60008061134f612375565b90508060010160008473ffffffffffffffffffffffffffffffffffffffff1673ffffffffffffffffffffffffffffffffffffffff16815260200190815260200160002054915050919050565b606060006113a7611d7e565b90508060010160008473ffffffffffffffffffffffffffffffffffffffff1673ffffffffffffffffffffffffffffffffffffffff16815260200190815260200160002080548060200260200160405190810160405280929190818152602001828054801561143457602002820191906000526020600020905b815481526020019060010190808311611420575b5050505050915050919050565b6060600061144d611d7e565b90508060020180548060200260200160405190810160405280929190818152602001828054801561149d57602002820191906000526020600020905b815481526020019060010190808311611489575b505050505091505090565b60006114b2611d51565b905060006114be611d7e565b90503373ffffffffffffffffffffffffffffffffffffffff1682600201600086815260200190815260200160002060009054906101000a900473ffffffffffffffffffffffffffffffffffffffff1673ffffffffffffffffffffffffffffffffffffffff1614611563576040517f08c379a000000000000000000000000000000000000000000000000000000000815260040161155a90612faf565b60405180910390fd5b600082600301600086815260200190815260200160002060020154146115be576040517f08c379a00000000000000000000000000000000000000000000000000000000081526004016115b59061301b565b60405180910390fd5b6063826003016000868152602001908152602001600020600201819055506040518060a001604052803373ffffffffffffffffffffffffffffffffffffffff168152602001858152602001848152602001826002018054905081526020018260010160003373ffffffffffffffffffffffffffffffffffffffff1673ffffffffffffffffffffffffffffffffffffffff1681526020019081526020016000208054905081525081600001600086815260200190815260200160002060008201518160000160006101000a81548173ffffffffffffffffffffffffffffffffffffffff021916908373ffffffffffffffffffffffffffffffffffffffff16021790555060208201518160010155604082015181600201556060820151816003015560808201518160040155905050806002018490806001815401808255809150506001900390600052602060002001600090919091909150558060010160003373ffffffffffffffffffffffffffffffffffffffff1673ffffffffffffffffffffffffffffffffffffffff16815260200190815260200160002084908060018154018082558091505060019003906000526020600020016000909190919091505550505050565b600061178e612375565b9050600084905060008173ffffffffffffffffffffffffffffffffffffffff166370a08231336040518263ffffffff1660e01b81526004016117d09190612527565b602060405180830381865afa1580156117ed573d6000803e3d6000fd5b505050506040513d601f19601f820116820180604052508101906118119190613050565b905084670de0b6b3a7640000826118289190612a2b565b1015611869576040517f08c379a0000000000000000000000000000000000000000000000000000000008152600401611860906130ef565b60405180910390fd5b6000851115611951576000670de0b6b3a7640000866118889190612986565b90508273ffffffffffffffffffffffffffffffffffffffff16639dc29fac33836040518363ffffffff1660e01b81526004016118c5929190612f3a565b600060405180830381600087803b1580156118df57600080fd5b505af11580156118f3573d6000803e3d6000fd5b50505050858460010160008773ffffffffffffffffffffffffffffffffffffffff1673ffffffffffffffffffffffffffffffffffffffff1681526020019081526020016000206000828254611948919061310f565b92505081905550505b505050505050565b6000611963611d51565b9050600061196f611d7e565b90503373ffffffffffffffffffffffffffffffffffffffff1681600001600085815260200190815260200160002060000160009054906101000a900473ffffffffffffffffffffffffffffffffffffffff1673ffffffffffffffffffffffffffffffffffffffff1614611a17576040517f08c379a0000000000000000000000000000000000000000000000000000000008152600401611a0e906131b5565b60405180910390fd5b600081600001600085815260200190815260200160002060000160009054906101000a900473ffffffffffffffffffffffffffffffffffffffff169050600082600001600086815260200190815260200160002060030154905060008360020160018560020180549050611a8b91906129c8565b81548110611a9c57611a9b612c9e565b5b9060005260206000200154905080846002018381548110611ac057611abf612c9e565b5b9060005260206000200181905550818460000160008381526020019081526020016000206003018190555083600201805480611aff57611afe612ccd565b5b60019003818190600052602060002001600090559055600084600001600088815260200190815260200160002060040154905060008560010160008673ffffffffffffffffffffffffffffffffffffffff1673ffffffffffffffffffffffffffffffffffffffff16815260200190815260200160002060018760010160008873ffffffffffffffffffffffffffffffffffffffff1673ffffffffffffffffffffffffffffffffffffffff16815260200190815260200160002080549050611bc691906129c8565b81548110611bd757611bd6612c9e565b5b90600052602060002001549050808660010160008773ffffffffffffffffffffffffffffffffffffffff1673ffffffffffffffffffffffffffffffffffffffff1681526020019081526020016000208381548110611c3857611c37612c9e565b5b906000526020600020018190555081866000016000838152602001908152602001600020600401819055508560010160008673ffffffffffffffffffffffffffffffffffffffff1673ffffffffffffffffffffffffffffffffffffffff168152602001908152602001600020805480611cb457611cb3612ccd565b5b6001900381819060005260206000200160009055905560008760030160008a815260200190815260200160002060020181905550856000016000898152602001908152602001600020600080820160006101000a81549073ffffffffffffffffffffffffffffffffffffffff0219169055600182016000905560028201600090556003820160009055600482016000905550505050505050505050565b6000807f3cab9a070a0c61cd0ae9d9e9e2c0781e5ca8691bec4087e5a4701d5ac018dd4e90508091505090565b6000807f0e933a40bc736a597dbcd3653baab40cf09a5c2453d7c0d87eeb7ea00af356fb90508091505090565b6000611db5611df1565b600901600083815260200190815260200160002060009054906101000a900473ffffffffffffffffffffffffffffffffffffffff169050919050565b6000807f2569078dfb4b0305704d3008e7403993ae9601b85f7ae5e742de3de8f8011c4090508091505090565b50505050565b6000611e2e6123a2565b90508373ffffffffffffffffffffffffffffffffffffffff1681600201600084815260200190815260200160002060009054906101000a900473ffffffffffffffffffffffffffffffffffffffff1673ffffffffffffffffffffffffffffffffffffffff1614611e9d57600080fd5b600073ffffffffffffffffffffffffffffffffffffffff168373ffffffffffffffffffffffffffffffffffffffff1603611f0c576040517f08c379a0000000000000000000000000000000000000000000000000000000008152600401611f0390613221565b60405180910390fd5b8281600201600084815260200190815260200160002060006101000a81548173ffffffffffffffffffffffffffffffffffffffff021916908373ffffffffffffffffffffffffffffffffffffffff16021790555060008160070160008673ffffffffffffffffffffffffffffffffffffffff1673ffffffffffffffffffffffffffffffffffffffff16815260200190815260200160002080549050905060005b8181101561225157838360070160008873ffffffffffffffffffffffffffffffffffffffff1673ffffffffffffffffffffffffffffffffffffffff168152602001908152602001600020828154811061200857612007612c9e565b5b90600052602060002001540361223e5760018360070160008873ffffffffffffffffffffffffffffffffffffffff1673ffffffffffffffffffffffffffffffffffffffff16815260200190815260200160002080549050036120c2576060808460070160008973ffffffffffffffffffffffffffffffffffffffff1673ffffffffffffffffffffffffffffffffffffffff16815260200190815260200160002090805190602001906120bb929190612414565b5050612239565b8260070160008773ffffffffffffffffffffffffffffffffffffffff1673ffffffffffffffffffffffffffffffffffffffff16815260200190815260200160002060018460070160008973ffffffffffffffffffffffffffffffffffffffff1673ffffffffffffffffffffffffffffffffffffffff1681526020019081526020016000208054905061215491906129c8565b8154811061216557612164612c9e565b5b90600052602060002001548360070160008873ffffffffffffffffffffffffffffffffffffffff1673ffffffffffffffffffffffffffffffffffffffff16815260200190815260200160002082815481106121c3576121c2612c9e565b5b90600052602060002001819055508260070160008773ffffffffffffffffffffffffffffffffffffffff1673ffffffffffffffffffffffffffffffffffffffff16815260200190815260200160002080548061222257612221612ccd565b5b600190038181906000526020600020016000905590555b612251565b808061224990613241565b915050611fac565b508160070160008573ffffffffffffffffffffffffffffffffffffffff1673ffffffffffffffffffffffffffffffffffffffff1681526020019081526020016000208390806001815401808255809150506001900390600052602060002001600090919091909150558160040160008673ffffffffffffffffffffffffffffffffffffffff1673ffffffffffffffffffffffffffffffffffffffff168152602001908152602001600020600081548092919061230c90613289565b91905055508160040160008573ffffffffffffffffffffffffffffffffffffffff1673ffffffffffffffffffffffffffffffffffffffff168152602001908152602001600020600081548092919061236390613241565b91905055505050505050565b50505050565b6000807f2c89d74504b6ad8d4fbde22bc3474166bac5452a11195897f239d8bebe02d70790508091505090565b6000807f3cab9a070a0c61cd0ae9d9e9e2c0781e5ca8691bec4087e5a4701d5ac018dd4e90508091505090565b6040518060a00160405280600073ffffffffffffffffffffffffffffffffffffffff168152602001600081526020016000815260200160008152602001600081525090565b828054828255906000526020600020908101928215612450579160200282015b8281111561244f578251825591602001919060010190612434565b5b50905061245d9190612461565b5090565b5b8082111561247a576000816000905550600101612462565b5090565b600080fd5b6000819050919050565b61249681612483565b81146124a157600080fd5b50565b6000813590506124b38161248d565b92915050565b6000602082840312156124cf576124ce61247e565b5b60006124dd848285016124a4565b91505092915050565b600073ffffffffffffffffffffffffffffffffffffffff82169050919050565b6000612511826124e6565b9050919050565b61252181612506565b82525050565b600060208201905061253c6000830184612518565b92915050565b61254b81612506565b811461255657600080fd5b50565b60008135905061256881612542565b92915050565b6000612579826124e6565b9050919050565b6125898161256e565b811461259457600080fd5b50565b6000813590506125a681612580565b92915050565b6000806000606084860312156125c5576125c461247e565b5b60006125d386828701612559565b93505060206125e4868287016124a4565b92505060406125f586828701612597565b9150509250925092565b6000602082840312156126155761261461247e565b5b600061262384828501612559565b91505092915050565b61263581612483565b82525050565b6000602082019050612650600083018461262c565b92915050565b600081519050919050565b600082825260208201905092915050565b6000819050602082019050919050565b61268b81612483565b82525050565b600061269d8383612682565b60208301905092915050565b6000602082019050919050565b60006126c182612656565b6126cb8185612661565b93506126d683612672565b8060005b838110156127075781516126ee8882612691565b97506126f9836126a9565b9250506001810190506126da565b5085935050505092915050565b6000602082019050818103600083015261272e81846126b6565b905092915050565b6000806040838503121561274d5761274c61247e565b5b600061275b858286016124a4565b925050602061276c858286016124a4565b9150509250929050565b6000806040838503121561278d5761278c61247e565b5b600061279b85828601612559565b92505060206127ac858286016124a4565b9150509250929050565b6127bf8161256e565b82525050565b60a0820160008201516127db60008501826127b6565b5060208201516127ee6020850182612682565b5060408201516128016040850182612682565b5060608201516128146060850182612682565b5060808201516128276080850182612682565b50505050565b600060a08201905061284260008301846127c5565b92915050565b600082825260208201905092915050565b7f53656e642074686520657861637420616d6f756e740000000000000000000000600082015250565b600061288f601583612848565b915061289a82612859565b602082019050919050565b600060208201905081810360008301526128be81612882565b9050919050565b7f4552433732313a2073656c6c6572206973206e6f7420746f6b656e206f776e6560008201527f72206f7220617070726f76656400000000000000000000000000000000000000602082015250565b6000612921602d83612848565b915061292c826128c5565b604082019050919050565b6000602082019050818103600083015261295081612914565b9050919050565b7f4e487b7100000000000000000000000000000000000000000000000000000000600052601160045260246000fd5b600061299182612483565b915061299c83612483565b92508282026129aa81612483565b915082820484148315176129c1576129c0612957565b5b5092915050565b60006129d382612483565b91506129de83612483565b92508282039050818111156129f6576129f5612957565b5b92915050565b7f4e487b7100000000000000000000000000000000000000000000000000000000600052601260045260246000fd5b6000612a3682612483565b9150612a4183612483565b925082612a5157612a506129fc565b5b828204905092915050565b600081905092915050565b50565b6000612a77600083612a5c565b9150612a8282612a67565b600082019050919050565b6000612a9882612a6a565b9150819050919050565b7f4661696c656420746f2073656e6420457468657220746f207468652073656c6c60008201527f6572000000000000000000000000000000000000000000000000000000000000602082015250565b6000612afe602283612848565b9150612b0982612aa2565b604082019050919050565b60006020820190508181036000830152612b2d81612af1565b9050919050565b7f4661696c656420746f2073656e6420457468657220746f20746865206665652060008201527f6163636f756e7400000000000000000000000000000000000000000000000000602082015250565b6000612b90602783612848565b9150612b9b82612b34565b604082019050919050565b60006020820190508181036000830152612bbf81612b83565b9050919050565b7f5265656e7472616e637947756172643a207265656e7472616e742063616c6c00600082015250565b6000612bfc601f83612848565b9150612c0782612bc6565b602082019050919050565b60006020820190508181036000830152612c2b81612bef565b9050919050565b7f74686973206974656d20617320736f6c6420656c736577686572650000000000600082015250565b6000612c68601b83612848565b9150612c7382612c32565b602082019050919050565b60006020820190508181036000830152612c9781612c5b565b9050919050565b7f4e487b7100000000000000000000000000000000000000000000000000000000600052603260045260246000fd5b7f4e487b7100000000000000000000000000000000000000000000000000000000600052603160045260246000fd5b7f4552433732313a207472616e736665722066726f6d20696e636f72726563742060008201527f6f776e6572000000000000000000000000000000000000000000000000000000602082015250565b6000612d58602583612848565b9150612d6382612cfc565b604082019050919050565b60006020820190508181036000830152612d8781612d4b565b9050919050565b7f4552433732313a207472616e7366657220746f20746865207a65726f2061646460008201527f7265737300000000000000000000000000000000000000000000000000000000602082015250565b6000612dea602483612848565b9150612df582612d8e565b604082019050919050565b60006020820190508181036000830152612e1981612ddd565b9050919050565b7f45786368616e676546616365743a20596f7520646f206e6f742068617665206560008201527f6e6f75676820676f6c6420746f206d696e740000000000000000000000000000602082015250565b6000612e7c603283612848565b9150612e8782612e20565b604082019050919050565b60006020820190508181036000830152612eab81612e6f565b9050919050565b6000819050919050565b6000612ed7612ed2612ecd846124e6565b612eb2565b6124e6565b9050919050565b6000612ee982612ebc565b9050919050565b6000612efb82612ede565b9050919050565b612f0b81612ef0565b82525050565b6000604082019050612f266000830185612f02565b612f33602083018461262c565b9392505050565b6000604082019050612f4f6000830185612518565b612f5c602083018461262c565b9392505050565b7f596f7520646f206e6f74206f776e207468697320706c61796572000000000000600082015250565b6000612f99601a83612848565b9150612fa482612f63565b602082019050919050565b60006020820190508181036000830152612fc881612f8c565b9050919050565b7f506c617965722073746175732069732069646c65000000000000000000000000600082015250565b6000613005601483612848565b915061301082612fcf565b602082019050919050565b6000602082019050818103600083015261303481612ff8565b9050919050565b60008151905061304a8161248d565b92915050565b6000602082840312156130665761306561247e565b5b60006130748482850161303b565b91505092915050565b7f45786368616e676546616365743a20596f7520646f206e6f742068617665206560008201527f6e6f75676820746f6b656e7320746f20636c61696d0000000000000000000000602082015250565b60006130d9603583612848565b91506130e48261307d565b604082019050919050565b60006020820190508181036000830152613108816130cc565b9050919050565b600061311a82612483565b915061312583612483565b925082820190508082111561313d5761313c612957565b5b92915050565b7f63616c6c6572206d75737420626520746865206f776e6572206f66207468652060008201527f6c697374696e6700000000000000000000000000000000000000000000000000602082015250565b600061319f602783612848565b91506131aa82613143565b604082019050919050565b600060208201905081810360008301526131ce81613192565b9050919050565b7f5f746f2063616e6e6f74206265207a65726f2061646472657373000000000000600082015250565b600061320b601a83612848565b9150613216826131d5565b602082019050919050565b6000602082019050818103600083015261323a816131fe565b9050919050565b600061324c82612483565b91507fffffffffffffffffffffffffffffffffffffffffffffffffffffffffffffffff820361327e5761327d612957565b5b600182019050919050565b600061329482612483565b9150600082036132a7576132a6612957565b5b60018203905091905056fea2646970667358221220d6fb0fca6a21747a179672af3fa303a4ea0265859a141aba02d2acc9dc60672964736f6c63430008120033",
  "linkReferences": {},
  "deployedLinkReferences": {}
}