{"contracts/facets/PlayerDropFacet.sol":{"PlayerDropFacet":{"abi":[{"anonymous":false,"inputs":[{"indexed":true,"internalType":"address","name":"owner","type":"address"},{"indexed":true,"internalType":"address","name":"approved","type":"address"},{"indexed":true,"internalType":"uint256","name":"tokenId","type":"uint256"}],"name":"Approval","type":"event"},{"anonymous":false,"inputs":[{"indexed":true,"internalType":"address","name":"owner","type":"address"},{"indexed":true,"internalType":"address","name":"operator","type":"address"},{"indexed":false,"internalType":"bool","name":"approved","type":"bool"}],"name":"ApprovalForAll","type":"event"},{"anonymous":false,"inputs":[{"indexed":true,"internalType":"uint256","name":"_playerDropId","type":"uint256"}],"name":"ClaimPlayer","type":"event"},{"anonymous":false,"inputs":[{"indexed":true,"internalType":"uint256","name":"id","type":"uint256"},{"indexed":true,"internalType":"address","name":"owner","type":"address"},{"indexed":false,"internalType":"string","name":"name","type":"string"},{"indexed":false,"internalType":"uint256","name":"_class","type":"uint256"}],"name":"Mint","type":"event"},{"anonymous":false,"inputs":[{"indexed":true,"internalType":"address","name":"owner","type":"address"},{"indexed":true,"internalType":"uint256","name":"id","type":"uint256"},{"indexed":true,"internalType":"string","name":"newName","type":"string"}],"name":"NameChange","type":"event"},{"anonymous":false,"inputs":[{"indexed":true,"internalType":"address","name":"from","type":"address"},{"indexed":true,"internalType":"address","name":"to","type":"address"},{"indexed":true,"internalType":"uint256","name":"tokenId","type":"uint256"}],"name":"Transfer","type":"event"},{"inputs":[{"internalType":"uint256","name":"_id","type":"uint256"},{"internalType":"string","name":"_newName","type":"string"}],"name":"changeNameFee","outputs":[],"stateMutability":"payable","type":"function"},{"inputs":[{"internalType":"uint256","name":"_playerDropId","type":"uint256"},{"internalType":"bytes32[]","name":"_proof","type":"bytes32[]"},{"internalType":"string","name":"_name","type":"string"},{"internalType":"bool","name":"_isMale","type":"bool"},{"internalType":"uint256","name":"_class","type":"uint256"}],"name":"claimPlayerDrop","outputs":[],"stateMutability":"payable","type":"function"},{"inputs":[{"internalType":"uint256","name":"_playerDropId","type":"uint256"},{"internalType":"bytes32[]","name":"_proof","type":"bytes32[]"},{"internalType":"string","name":"_name","type":"string"},{"internalType":"bool","name":"_isMale","type":"bool"}],"name":"claimPlayerDropPirate","outputs":[],"stateMutability":"payable","type":"function"},{"inputs":[{"internalType":"uint256","name":"_playerDropId","type":"uint256"},{"internalType":"address","name":"_address","type":"address"}],"name":"claimedStatus","outputs":[{"internalType":"bool","name":"","type":"bool"}],"stateMutability":"view","type":"function"},{"inputs":[{"internalType":"bytes32","name":"_merkleRoot","type":"bytes32"},{"internalType":"string","name":"_name","type":"string"},{"internalType":"uint256","name":"_price","type":"uint256"}],"name":"createPlayerDrop","outputs":[],"stateMutability":"nonpayable","type":"function"},{"inputs":[{"internalType":"uint256","name":"_playerDropId","type":"uint256"}],"name":"getPlayerDrop","outputs":[{"components":[{"internalType":"uint256","name":"id","type":"uint256"},{"internalType":"uint256","name":"price","type":"uint256"},{"internalType":"bytes32","name":"merkleRoot","type":"bytes32"},{"internalType":"string","name":"name","type":"string"}],"internalType":"struct PlayerDrop","name":"","type":"tuple"}],"stateMutability":"view","type":"function"},{"inputs":[{"internalType":"uint256","name":"_playerDropId","type":"uint256"}],"name":"getPlayerDropMerkleRoot","outputs":[{"internalType":"bytes32","name":"","type":"bytes32"}],"stateMutability":"view","type":"function"},{"inputs":[{"internalType":"bytes32[]","name":"_proof","type":"bytes32[]"},{"internalType":"uint256","name":"_playerDropId","type":"uint256"},{"internalType":"address","name":"_address","type":"address"}],"name":"verifyPlayerDropWhitelist","outputs":[{"internalType":"bool","name":"","type":"bool"}],"stateMutability":"view","type":"function"}],"evm":{"bytecode":{"linkReferences":{},"object":"608060405234801561001057600080fd5b506139f2806100206000396000f3fe60806040526004361061007b5760003560e01c806340d0bb7f1161004e57806340d0bb7f1461013f5780639737f88a1461015b578063c79cd39f14610177578063e0a0a074146101b45761007b565b80630ace3047146100805780630b5fe5301461009c5780631b660e47146100d95780632dfc7abe14610102575b600080fd5b61009a600480360381019061009591906127ac565b6101f1565b005b3480156100a857600080fd5b506100c360048036038101906100be9190612850565b61032c565b6040516100d09190612987565b60405180910390f35b3480156100e557600080fd5b5061010060048036038101906100fb91906129d5565b610344565b005b34801561010e57600080fd5b5061012960048036038101906101249190612aa2565b6103a6565b6040516101369190612af1565b60405180910390f35b61015960048036038101906101549190612b0c565b6103ba565b005b61017560048036038101906101709190612b68565b610430565b005b34801561018357600080fd5b5061019e60048036038101906101999190612c1e565b61056d565b6040516101ab9190612af1565b60405180910390f35b3480156101c057600080fd5b506101db60048036038101906101d69190612850565b610585565b6040516101e89190612ca1565b60405180910390f35b6101fa8561032c565b6020015134101561020a57600080fd5b60007308d8e680a2d295af8cbcd8b8e07f900275bc6b8d90506000808273ffffffffffffffffffffffffffffffffffffffff163460405161024a90612ced565b60006040518083038185875af1925050503d8060008114610287576040519150601f19603f3d011682016040523d82523d6000602084013e61028c565b606091505b5091509150816102d1576040517f08c379a00000000000000000000000000000000000000000000000000000000081526004016102c890612d5f565b60405180910390fd5b6102de8888888888610597565b877f9d3afc92396cc7c29a7a44c2e713f9efe3287517db4b2f9eea9f860204fd5baa60405160405180910390a2600061031561081b565b90506103213382610833565b505050505050505050565b610334612559565b61033d82610851565b9050919050565b600073434d36f32abed3f7937fe0be88dc1b0eb938124490508073ffffffffffffffffffffffffffffffffffffffff163373ffffffffffffffffffffffffffffffffffffffff161461039557600080fd5b6103a084848461093d565b50505050565b60006103b283836109de565b905092915050565b6103c48282610a54565b600a3410156103d257600080fd5b806040516103e09190612dbb565b6040518091039020823373ffffffffffffffffffffffffffffffffffffffff167fe4ce50a62b6cbb7d19acd75fd57f7e2588dd09705647d97993e2ece872c305b260405160405180910390a45050565b6104398661032c565b6020015134101561044957600080fd5b60007308d8e680a2d295af8cbcd8b8e07f900275bc6b8d90506000808273ffffffffffffffffffffffffffffffffffffffff163460405161048990612ced565b60006040518083038185875af1925050503d80600081146104c6576040519150601f19603f3d011682016040523d82523d6000602084013e6104cb565b606091505b509150915081610510576040517f08c379a000000000000000000000000000000000000000000000000000000000815260040161050790612d5f565b60405180910390fd5b61051e898989898989610d08565b887f9d3afc92396cc7c29a7a44c2e713f9efe3287517db4b2f9eea9f860204fd5baa60405160405180910390a2600061055561081b565b90506105613382610833565b50505050505050505050565b600061057b85858585610f21565b9050949350505050565b600061059082610fc9565b9050919050565b60006105a1610ff7565b905080600201600087815260200190815260200160002060003373ffffffffffffffffffffffffffffffffffffffff1673ffffffffffffffffffffffffffffffffffffffff16815260200190815260200160002060009054906101000a900460ff1615610643576040517f08c379a000000000000000000000000000000000000000000000000000000000815260040161063a90612e44565b60405180910390fd5b6106cd858580806020026020016040519081016040528093929190818152602001838360200280828437600081840152601f19601f8201169050808301925050505050505082600101600089815260200190815260200160002060020154336040516020016106b29190612eac565b60405160208183030381529060405280519060200120611024565b61070c576040517f08c379a000000000000000000000000000000000000000000000000000000000815260040161070390612f13565b60405180910390fd5b8060010160008781526020019081526020016000206001015434101561073157600080fd5b60405160200161074090612f7f565b6040516020818303038152906040528051906020012081600101600088815260200190815260200160002060030160405160200161077e919061308c565b604051602081830303815290604052805190602001201461079e57600080fd5b600181600201600088815260200190815260200160002060003373ffffffffffffffffffffffffffffffffffffffff1673ffffffffffffffffffffffffffffffffffffffff16815260200190815260200160002060006101000a81548160ff021916908315150217905550610813838361103b565b505050505050565b60008061082661155b565b9050806001015491505090565b61084d828260405180602001604052806000815250611588565b5050565b610859612559565b6000610863610ff7565b90508060010160008481526020019081526020016000206040518060800160405290816000820154815260200160018201548152602001600282015481526020016003820180546108b390612fc3565b80601f01602080910402602001604051908101604052809291908181526020018280546108df90612fc3565b801561092c5780601f106109015761010080835404028352916020019161092c565b820191906000526020600020905b81548152906001019060200180831161090f57829003601f168201915b505050505081525050915050919050565b6000610947610ff7565b905080600001600081548092919061095e906130d2565b9190505550604051806080016040528082600001548152602001838152602001858152602001848152508160010160008360000154815260200190815260200160002060008201518160000155602082015181600101556040820151816002015560608201518160030190816109d491906132b1565b5090505050505050565b6000806109e9610ff7565b905080600201600085815260200190815260200160002060008473ffffffffffffffffffffffffffffffffffffffff1673ffffffffffffffffffffffffffffffffffffffff16815260200190815260200160002060009054906101000a900460ff1691505092915050565b6000610a5e61155b565b90503373ffffffffffffffffffffffffffffffffffffffff1681600201600085815260200190815260200160002060009054906101000a900473ffffffffffffffffffffffffffffffffffffffff1673ffffffffffffffffffffffffffffffffffffffff1614610acd57600080fd5b8060060182604051610adf9190612dbb565b908152602001604051809103902060009054906101000a900460ff1615610b3b576040517f08c379a0000000000000000000000000000000000000000000000000000000008152600401610b32906133cf565b60405180910390fd5b6003825111610b7f576040517f08c379a0000000000000000000000000000000000000000000000000000000008152600401610b769061343b565b60405180910390fd5b600a825110610bc3576040517f08c379a0000000000000000000000000000000000000000000000000000000008152600401610bba906134a7565b60405180910390fd5b6000816003016000858152602001908152602001600020600f018054610be890612fc3565b80601f0160208091040260200160405190810160405280929190818152602001828054610c1490612fc3565b8015610c615780601f10610c3657610100808354040283529160200191610c61565b820191906000526020600020905b815481529060010190602001808311610c4457829003601f168201915b50505050509050600081511115610ca3578160060181604051610c849190612dbb565b908152602001604051809103902060006101000a81549060ff02191690555b82826003016000868152602001908152602001600020600f019081610cc891906132b1565b5060018260060184604051610cdd9190612dbb565b908152602001604051809103902060006101000a81548160ff02191690831515021790555050505050565b6000610d12610ff7565b905080600201600088815260200190815260200160002060003373ffffffffffffffffffffffffffffffffffffffff1673ffffffffffffffffffffffffffffffffffffffff16815260200190815260200160002060009054906101000a900460ff1615610db4576040517f08c379a0000000000000000000000000000000000000000000000000000000008152600401610dab90612e44565b60405180910390fd5b610e3e868680806020026020016040519081016040528093929190818152602001838360200280828437600081840152601f19601f820116905080830192505050505050508260010160008a81526020019081526020016000206002015433604051602001610e239190612eac565b60405160208183030381529060405280519060200120611024565b610e7d576040517f08c379a0000000000000000000000000000000000000000000000000000000008152600401610e7490612f13565b60405180910390fd5b80600101600088815260200190815260200160002060010154341015610ea257600080fd5b600181600201600089815260200190815260200160002060003373ffffffffffffffffffffffffffffffffffffffff1673ffffffffffffffffffffffffffffffffffffffff16815260200190815260200160002060006101000a81548160ff021916908315150217905550610f188484846115e3565b50505050505050565b600080610f2c610ff7565b9050600083604051602001610f419190612eac565b604051602081830303815290604052805190602001209050610fbd878780806020026020016040519081016040528093929190818152602001838360200280828437600081840152601f19601f820116905080830192505050505050508360010160008881526020019081526020016000206002015483611024565b92505050949350505050565b600080610fd4610ff7565b905080600101600084815260200190815260200160002060020154915050919050565b6000807f19a7b6aa9ad98f2f267a375bb3e53168bb268f6ec190238c4ccf172054fde40a90508091505090565b6000826110318584612020565b1490509392505050565b600061104561155b565b905080600601836040516110599190612dbb565b908152602001604051809103902060009054906101000a900460ff16156110b5576040517f08c379a00000000000000000000000000000000000000000000000000000000081526004016110ac906133cf565b60405180910390fd5b600a835111156110c457600080fd5b6003835110156110d357600080fd5b8060010160008154809291906110e8906130d2565b9190505550606082611115576040518060800160405280604381526020016138f460439139905080611132565b604051806080016040528060438152602001613937604391399050805b50604051806102800160405280600181526020016000815260200160008152602001600d8152602001600d8152602001600d8152602001600d8152602001600d8152602001600d8152602001600f815260200160018152602001600181526020016001815260200160018152602001600d815260200185815260200182815260200184151581526020016040518060e0016040528060008152602001600081526020016000815260200160008152602001600081526020016000815260200160008152508152602001600381525082600301600084600101548152602001908152602001600020600082015181600001556020820151816001015560408201518160020155606082015181600301556080820151816004015560a0820151816005015560c0820151816006015560e082015181600701556101008201518160080155610120820151816009015561014082015181600a015561016082015181600b015561018082015181600c01556101a082015181600d01556101c082015181600e01556101e082015181600f0190816112cc91906132b1565b506102008201518160100190816112e391906132b1565b506102208201518160110160006101000a81548160ff02191690831515021790555061024082015181601201600082015181600001556020820151816001015560408201518160020155606082015181600301556080820151816004015560a0820151816005015560c08201518160060155505061026082015181601901559050506040518060e00160405280600081526020016000815260200160008152602001600081526020016000815260200160008152602001600081525082600801600084600101548152602001908152602001600020600082015181600001556020820151816001015560408201518160020155606082015181600301556080820151816004015560a0820151816005015560c08201518160060155905050600182600601856040516114159190612dbb565b908152602001604051809103902060006101000a81548160ff021916908315150217905550338260020160008460010154815260200190815260200160002060006101000a81548173ffffffffffffffffffffffffffffffffffffffff021916908373ffffffffffffffffffffffffffffffffffffffff1602179055508160070160003373ffffffffffffffffffffffffffffffffffffffff1673ffffffffffffffffffffffffffffffffffffffff168152602001908152602001600020826001015490806001815401808255809150506001900390600052602060002001600090919091909150558160040160003373ffffffffffffffffffffffffffffffffffffffff1673ffffffffffffffffffffffffffffffffffffffff1681526020019081526020016000206000815480929190611550906130d2565b919050555050505050565b6000807f3cab9a070a0c61cd0ae9d9e9e2c0781e5ca8691bec4087e5a4701d5ac018dd4e90508091505090565b6115928383612076565b61159f60008484846122a5565b6115de576040517f08c379a00000000000000000000000000000000000000000000000000000000081526004016115d590613539565b60405180910390fd5b505050565b60006115ed61155b565b905080600601846040516116019190612dbb565b908152602001604051809103902060009054906101000a900460ff161561165d576040517f08c379a0000000000000000000000000000000000000000000000000000000008152600401611654906133cf565b60405180910390fd5b600282111561166b57600080fd5b600a8451111561167a57600080fd5b60038451101561168957600080fd5b80600101600081548092919061169e906130d2565b919050555060606000830361192757836116d35760405180608001604052806043815260200161382b604391399050806116f0565b60405180608001604052806043815260200161397a604391399050805b50604051806102800160405280600181526020016000815260200160008152602001600b8152602001600c8152602001600c8152602001600a8152602001600a8152602001600a8152602001600a815260200160018152602001600181526020016001815260200160018152602001600b815260200186815260200182815260200185151581526020016040518060e00160405280600081526020016000815260200160008152602001600081526020016000815260200160008152602001600081525081526020018481525082600301600084600101548152602001908152602001600020600082015181600001556020820151816001015560408201518160020155606082015181600301556080820151816004015560a0820151816005015560c0820151816006015560e082015181600701556101008201518160080155610120820151816009015561014082015181600a015561016082015181600b015561018082015181600c01556101a082015181600d01556101c082015181600e01556101e082015181600f01908161188991906132b1565b506102008201518160100190816118a091906132b1565b506102208201518160110160006101000a81548160ff02191690831515021790555061024082015181601201600082015181600001556020820151816001015560408201518160020155606082015181600301556080820151816004015560a0820151816005015560c0820151816006015550506102608201518160190155905050611e29565b60018303611ba95783611955576040518060800160405280604381526020016138b160439139905080611972565b60405180608001604052806043815260200161386e604391399050805b50604051806102800160405280600181526020016000815260200160008152602001600b8152602001600b8152602001600b8152602001600a8152602001600a8152602001600a8152602001600c815260200160018152602001600181526020016001815260200160018152602001600a815260200186815260200182815260200185151581526020016040518060e00160405280600081526020016000815260200160008152602001600081526020016000815260200160008152602001600081525081526020018481525082600301600084600101548152602001908152602001600020600082015181600001556020820151816001015560408201518160020155606082015181600301556080820151816004015560a0820151816005015560c0820151816006015560e082015181600701556101008201518160080155610120820151816009015561014082015181600a015561016082015181600b015561018082015181600c01556101a082015181600d01556101c082015181600e01556101e082015181600f019081611b0b91906132b1565b50610200820151816010019081611b2291906132b1565b506102208201518160110160006101000a81548160ff02191690831515021790555061024082015181601201600082015181600001556020820151816001015560408201518160020155606082015181600301556080820151816004015560a0820151816005015560c0820151816006015550506102608201518160190155905050611e28565b60028303611e275783611bd7576040518060800160405280604381526020016137e860439139905080611bf4565b6040518060800160405280604381526020016137a5604391399050805b50604051806102800160405280600181526020016000815260200160008152602001600a8152602001600a8152602001600a8152602001600c8152602001600c8152602001600c8152602001600a815260200160018152602001600181526020016001815260200160018152602001600a815260200186815260200182815260200185151581526020016040518060e00160405280600081526020016000815260200160008152602001600081526020016000815260200160008152602001600081525081526020018481525082600301600084600101548152602001908152602001600020600082015181600001556020820151816001015560408201518160020155606082015181600301556080820151816004015560a0820151816005015560c0820151816006015560e082015181600701556101008201518160080155610120820151816009015561014082015181600a015561016082015181600b015561018082015181600c01556101a082015181600d01556101c082015181600e01556101e082015181600f019081611d8d91906132b1565b50610200820151816010019081611da491906132b1565b506102208201518160110160006101000a81548160ff02191690831515021790555061024082015181601201600082015181600001556020820151816001015560408201518160020155606082015181600301556080820151816004015560a0820151816005015560c08201518160060155505061026082015181601901559050505b5b5b6040518060e00160405280600081526020016000815260200160008152602001600081526020016000815260200160008152602001600081525082600801600084600101548152602001908152602001600020600082015181600001556020820151816001015560408201518160020155606082015181600301556080820151816004015560a0820151816005015560c0820151816006015590505060018260060186604051611ed99190612dbb565b908152602001604051809103902060006101000a81548160ff021916908315150217905550338260020160008460010154815260200190815260200160002060006101000a81548173ffffffffffffffffffffffffffffffffffffffff021916908373ffffffffffffffffffffffffffffffffffffffff1602179055508160070160003373ffffffffffffffffffffffffffffffffffffffff1673ffffffffffffffffffffffffffffffffffffffff168152602001908152602001600020826001015490806001815401808255809150506001900390600052602060002001600090919091909150558160040160003373ffffffffffffffffffffffffffffffffffffffff1673ffffffffffffffffffffffffffffffffffffffff1681526020019081526020016000206000815480929190612014906130d2565b91905055505050505050565b60008082905060005b845181101561206b576120568286838151811061204957612048613559565b5b602002602001015161242c565b91508080612063906130d2565b915050612029565b508091505092915050565b600073ffffffffffffffffffffffffffffffffffffffff168273ffffffffffffffffffffffffffffffffffffffff16036120e5576040517f08c379a00000000000000000000000000000000000000000000000000000000081526004016120dc906135d4565b60405180910390fd5b6120ee81612457565b1561212e576040517f08c379a000000000000000000000000000000000000000000000000000000000815260040161212590613640565b60405180910390fd5b61213c600083836001612498565b61214581612457565b15612185576040517f08c379a000000000000000000000000000000000000000000000000000000000815260040161217c90613640565b60405180910390fd5b600161218f61249e565b600a0160008473ffffffffffffffffffffffffffffffffffffffff1673ffffffffffffffffffffffffffffffffffffffff16815260200190815260200160002060008282540192505081905550816121e561249e565b600901600083815260200190815260200160002060006101000a81548173ffffffffffffffffffffffffffffffffffffffff021916908373ffffffffffffffffffffffffffffffffffffffff160217905550808273ffffffffffffffffffffffffffffffffffffffff16600073ffffffffffffffffffffffffffffffffffffffff167fddf252ad1be2c89b69c2b068fc378daa952ba7f163c4a11628f55a4df523b3ef60405160405180910390a46122a16000838360016124cb565b5050565b60006122c68473ffffffffffffffffffffffffffffffffffffffff166124d1565b1561241f578373ffffffffffffffffffffffffffffffffffffffff1663150b7a026122ef6124f4565b8786866040518563ffffffff1660e01b815260040161231194939291906136d3565b6020604051808303816000875af192505050801561234d57506040513d601f19601f8201168201806040525081019061234a9190613777565b60015b6123cf573d806000811461237d576040519150601f19603f3d011682016040523d82523d6000602084013e612382565b606091505b5060008151036123c7576040517f08c379a00000000000000000000000000000000000000000000000000000000081526004016123be90613539565b60405180910390fd5b805181602001fd5b63150b7a0260e01b7bffffffffffffffffffffffffffffffffffffffffffffffffffffffff1916817bffffffffffffffffffffffffffffffffffffffffffffffffffffffff191614915050612424565b600190505b949350505050565b60008183106124445761243f82846124fc565b61244f565b61244e83836124fc565b5b905092915050565b60008073ffffffffffffffffffffffffffffffffffffffff1661247983612513565b73ffffffffffffffffffffffffffffffffffffffff1614159050919050565b50505050565b6000807f2569078dfb4b0305704d3008e7403993ae9601b85f7ae5e742de3de8f8011c4090508091505090565b50505050565b6000808273ffffffffffffffffffffffffffffffffffffffff163b119050919050565b600033905090565b600082600052816020526040600020905092915050565b600061251d61249e565b600901600083815260200190815260200160002060009054906101000a900473ffffffffffffffffffffffffffffffffffffffff169050919050565b6040518060800160405280600081526020016000815260200160008019168152602001606081525090565b6000604051905090565b600080fd5b600080fd5b6000819050919050565b6125ab81612598565b81146125b657600080fd5b50565b6000813590506125c8816125a2565b92915050565b600080fd5b600080fd5b600080fd5b60008083601f8401126125f3576125f26125ce565b5b8235905067ffffffffffffffff8111156126105761260f6125d3565b5b60208301915083602082028301111561262c5761262b6125d8565b5b9250929050565b600080fd5b6000601f19601f8301169050919050565b7f4e487b7100000000000000000000000000000000000000000000000000000000600052604160045260246000fd5b61268182612638565b810181811067ffffffffffffffff821117156126a05761269f612649565b5b80604052505050565b60006126b3612584565b90506126bf8282612678565b919050565b600067ffffffffffffffff8211156126df576126de612649565b5b6126e882612638565b9050602081019050919050565b82818337600083830152505050565b6000612717612712846126c4565b6126a9565b90508281526020810184848401111561273357612732612633565b5b61273e8482856126f5565b509392505050565b600082601f83011261275b5761275a6125ce565b5b813561276b848260208601612704565b91505092915050565b60008115159050919050565b61278981612774565b811461279457600080fd5b50565b6000813590506127a681612780565b92915050565b6000806000806000608086880312156127c8576127c761258e565b5b60006127d6888289016125b9565b955050602086013567ffffffffffffffff8111156127f7576127f6612593565b5b612803888289016125dd565b9450945050604086013567ffffffffffffffff81111561282657612825612593565b5b61283288828901612746565b925050606061284388828901612797565b9150509295509295909350565b6000602082840312156128665761286561258e565b5b6000612874848285016125b9565b91505092915050565b61288681612598565b82525050565b6000819050919050565b61289f8161288c565b82525050565b600081519050919050565b600082825260208201905092915050565b60005b838110156128df5780820151818401526020810190506128c4565b60008484015250505050565b60006128f6826128a5565b61290081856128b0565b93506129108185602086016128c1565b61291981612638565b840191505092915050565b600060808301600083015161293c600086018261287d565b50602083015161294f602086018261287d565b5060408301516129626040860182612896565b506060830151848203606086015261297a82826128eb565b9150508091505092915050565b600060208201905081810360008301526129a18184612924565b905092915050565b6129b28161288c565b81146129bd57600080fd5b50565b6000813590506129cf816129a9565b92915050565b6000806000606084860312156129ee576129ed61258e565b5b60006129fc868287016129c0565b935050602084013567ffffffffffffffff811115612a1d57612a1c612593565b5b612a2986828701612746565b9250506040612a3a868287016125b9565b9150509250925092565b600073ffffffffffffffffffffffffffffffffffffffff82169050919050565b6000612a6f82612a44565b9050919050565b612a7f81612a64565b8114612a8a57600080fd5b50565b600081359050612a9c81612a76565b92915050565b60008060408385031215612ab957612ab861258e565b5b6000612ac7858286016125b9565b9250506020612ad885828601612a8d565b9150509250929050565b612aeb81612774565b82525050565b6000602082019050612b066000830184612ae2565b92915050565b60008060408385031215612b2357612b2261258e565b5b6000612b31858286016125b9565b925050602083013567ffffffffffffffff811115612b5257612b51612593565b5b612b5e85828601612746565b9150509250929050565b60008060008060008060a08789031215612b8557612b8461258e565b5b6000612b9389828a016125b9565b965050602087013567ffffffffffffffff811115612bb457612bb3612593565b5b612bc089828a016125dd565b9550955050604087013567ffffffffffffffff811115612be357612be2612593565b5b612bef89828a01612746565b9350506060612c0089828a01612797565b9250506080612c1189828a016125b9565b9150509295509295509295565b60008060008060608587031215612c3857612c3761258e565b5b600085013567ffffffffffffffff811115612c5657612c55612593565b5b612c62878288016125dd565b94509450506020612c75878288016125b9565b9250506040612c8687828801612a8d565b91505092959194509250565b612c9b8161288c565b82525050565b6000602082019050612cb66000830184612c92565b92915050565b600081905092915050565b50565b6000612cd7600083612cbc565b9150612ce282612cc7565b600082019050919050565b6000612cf882612cca565b9150819050919050565b600082825260208201905092915050565b7f4661696c656420746f2073656e64204574686572000000000000000000000000600082015250565b6000612d49601483612d02565b9150612d5482612d13565b602082019050919050565b60006020820190508181036000830152612d7881612d3c565b9050919050565b600081905092915050565b6000612d95826128a5565b612d9f8185612d7f565b9350612daf8185602086016128c1565b80840191505092915050565b6000612dc78284612d8a565b915081905092915050565b7f416464726573732068617320616c726561647920636c61696d6564207468652060008201527f64726f7000000000000000000000000000000000000000000000000000000000602082015250565b6000612e2e602483612d02565b9150612e3982612dd2565b604082019050919050565b60006020820190508181036000830152612e5d81612e21565b9050919050565b60008160601b9050919050565b6000612e7c82612e64565b9050919050565b6000612e8e82612e71565b9050919050565b612ea6612ea182612a64565b612e83565b82525050565b6000612eb88284612e95565b60148201915081905092915050565b7f496e76616c6964204d65726b6c652070726f6f66000000000000000000000000600082015250565b6000612efd601483612d02565b9150612f0882612ec7565b602082019050919050565b60006020820190508181036000830152612f2c81612ef0565b9050919050565b7f4261736500000000000000000000000000000000000000000000000000000000600082015250565b6000612f69600483612d7f565b9150612f7482612f33565b600482019050919050565b6000612f8a82612f5c565b9150819050919050565b7f4e487b7100000000000000000000000000000000000000000000000000000000600052602260045260246000fd5b60006002820490506001821680612fdb57607f821691505b602082108103612fee57612fed612f94565b5b50919050565b60008190508160005260206000209050919050565b6000815461301681612fc3565b6130208186612d7f565b9450600182166000811461303b576001811461305057613083565b60ff1983168652811515820286019350613083565b61305985612ff4565b60005b8381101561307b5781548189015260018201915060208101905061305c565b838801955050505b50505092915050565b60006130988284613009565b915081905092915050565b7f4e487b7100000000000000000000000000000000000000000000000000000000600052601160045260246000fd5b60006130dd82612598565b91507fffffffffffffffffffffffffffffffffffffffffffffffffffffffffffffffff820361310f5761310e6130a3565b5b600182019050919050565b60006020601f8301049050919050565b600082821b905092915050565b6000600883026131677fffffffffffffffffffffffffffffffffffffffffffffffffffffffffffffffff8261312a565b613171868361312a565b95508019841693508086168417925050509392505050565b6000819050919050565b60006131ae6131a96131a484612598565b613189565b612598565b9050919050565b6000819050919050565b6131c883613193565b6131dc6131d4826131b5565b848454613137565b825550505050565b600090565b6131f16131e4565b6131fc8184846131bf565b505050565b5b81811015613220576132156000826131e9565b600181019050613202565b5050565b601f8211156132655761323681612ff4565b61323f8461311a565b8101602085101561324e578190505b61326261325a8561311a565b830182613201565b50505b505050565b600082821c905092915050565b60006132886000198460080261326a565b1980831691505092915050565b60006132a18383613277565b9150826002028217905092915050565b6132ba826128a5565b67ffffffffffffffff8111156132d3576132d2612649565b5b6132dd8254612fc3565b6132e8828285613224565b600060209050601f83116001811461331b5760008415613309578287015190505b6133138582613295565b86555061337b565b601f19841661332986612ff4565b60005b828110156133515784890151825560018201915060208501945060208101905061332c565b8683101561336e578489015161336a601f891682613277565b8355505b6001600288020188555050505b505050505050565b7f6e616d652069732074616b656e00000000000000000000000000000000000000600082015250565b60006133b9600d83612d02565b91506133c482613383565b602082019050919050565b600060208201905081810360008301526133e8816133ac565b9050919050565b7f43616e6e6f74207061737320616e20656d707479206861736800000000000000600082015250565b6000613425601983612d02565b9150613430826133ef565b602082019050919050565b6000602082019050818103600083015261345481613418565b9050919050565b7f43616e6e6f74206265206c6f6e676572207468616e2031302063686172730000600082015250565b6000613491601e83612d02565b915061349c8261345b565b602082019050919050565b600060208201905081810360008301526134c081613484565b9050919050565b7f4552433732313a207472616e7366657220746f206e6f6e20455243373231526560008201527f63656976657220696d706c656d656e7465720000000000000000000000000000602082015250565b6000613523603283612d02565b915061352e826134c7565b604082019050919050565b6000602082019050818103600083015261355281613516565b9050919050565b7f4e487b7100000000000000000000000000000000000000000000000000000000600052603260045260246000fd5b7f4552433732313a206d696e7420746f20746865207a65726f2061646472657373600082015250565b60006135be602083612d02565b91506135c982613588565b602082019050919050565b600060208201905081810360008301526135ed816135b1565b9050919050565b7f4552433732313a20746f6b656e20616c7265616479206d696e74656400000000600082015250565b600061362a601c83612d02565b9150613635826135f4565b602082019050919050565b600060208201905081810360008301526136598161361d565b9050919050565b61366981612a64565b82525050565b61367881612598565b82525050565b600081519050919050565b600082825260208201905092915050565b60006136a58261367e565b6136af8185613689565b93506136bf8185602086016128c1565b6136c881612638565b840191505092915050565b60006080820190506136e86000830187613660565b6136f56020830186613660565b613702604083018561366f565b8181036060830152613714818461369a565b905095945050505050565b60007fffffffff0000000000000000000000000000000000000000000000000000000082169050919050565b6137548161371f565b811461375f57600080fd5b50565b6000815190506137718161374b565b92915050565b60006020828403121561378d5761378c61258e565b5b600061379b84828501613762565b9150509291505056fe68747470733a2f2f697066732e696f2f697066732f516d556257785564387358344d5a6f6a4b455255506d507539597441596659726f425334546531484a454b75637968747470733a2f2f697066732e696f2f697066732f516d625641427439734b704e55613844674d4a64653344424351796f72534354395631447a6436634a385a556d5068747470733a2f2f697066732e696f2f697066732f516d66424e4870787077554e67747736695842784b584c6256786f6d386d7064427367715a5a79353970524d354368747470733a2f2f697066732e696f2f697066732f516d5158655965397278526b6b716645423744725a52534732533179724e676a363456386d3676374b65747a516468747470733a2f2f697066732e696f2f697066732f516d55715a4b5275646e616e673147586244326e4848776d4a664e4e42465156646d6f483857416e65616969356868747470733a2f2f697066732e696f2f697066732f516d5269644a666766523656394c4276594136524b6f6a4450796b713547327a4c6e4e417841724c4d554d6e436468747470733a2f2f697066732e696f2f697066732f516d5751514c364e39416663713270646247766a61315456696943576b346b36764235564d433974634d4b63653968747470733a2f2f697066732e696f2f697066732f516d56357053734d47474d4c5733593979513871534c534d4451616b646e6a686a53346b356865366d4a79506548a2646970667358221220f425bdab28a915eab77be314a0183e68d138a5799705c1f1f0943dcb30a0fc5b64736f6c63430008120033","opcodes":"PUSH1 0x80 PUSH1 0x40 MSTORE CALLVALUE DUP1 ISZERO PUSH2 0x10 JUMPI PUSH1 0x0 DUP1 REVERT JUMPDEST POP PUSH2 0x39F2 DUP1 PUSH2 0x20 PUSH1 0x0 CODECOPY PUSH1 0x0 RETURN INVALID PUSH1 0x80 PUSH1 0x40 MSTORE PUSH1 0x4 CALLDATASIZE LT PUSH2 0x7B JUMPI PUSH1 0x0 CALLDATALOAD PUSH1 0xE0 SHR DUP1 PUSH4 0x40D0BB7F GT PUSH2 0x4E JUMPI DUP1 PUSH4 0x40D0BB7F EQ PUSH2 0x13F JUMPI DUP1 PUSH4 0x9737F88A EQ PUSH2 0x15B JUMPI DUP1 PUSH4 0xC79CD39F EQ PUSH2 0x177 JUMPI DUP1 PUSH4 0xE0A0A074 EQ PUSH2 0x1B4 JUMPI PUSH2 0x7B JUMP JUMPDEST DUP1 PUSH4 0xACE3047 EQ PUSH2 0x80 JUMPI DUP1 PUSH4 0xB5FE530 EQ PUSH2 0x9C JUMPI DUP1 PUSH4 0x1B660E47 EQ PUSH2 0xD9 JUMPI DUP1 PUSH4 0x2DFC7ABE EQ PUSH2 0x102 JUMPI JUMPDEST PUSH1 0x0 DUP1 REVERT JUMPDEST PUSH2 0x9A PUSH1 0x4 DUP1 CALLDATASIZE SUB DUP2 ADD SWAP1 PUSH2 0x95 SWAP2 SWAP1 PUSH2 0x27AC JUMP JUMPDEST PUSH2 0x1F1 JUMP JUMPDEST STOP JUMPDEST CALLVALUE DUP1 ISZERO PUSH2 0xA8 JUMPI PUSH1 0x0 DUP1 REVERT JUMPDEST POP PUSH2 0xC3 PUSH1 0x4 DUP1 CALLDATASIZE SUB DUP2 ADD SWAP1 PUSH2 0xBE SWAP2 SWAP1 PUSH2 0x2850 JUMP JUMPDEST PUSH2 0x32C JUMP JUMPDEST PUSH1 0x40 MLOAD PUSH2 0xD0 SWAP2 SWAP1 PUSH2 0x2987 JUMP JUMPDEST PUSH1 0x40 MLOAD DUP1 SWAP2 SUB SWAP1 RETURN JUMPDEST CALLVALUE DUP1 ISZERO PUSH2 0xE5 JUMPI PUSH1 0x0 DUP1 REVERT JUMPDEST POP PUSH2 0x100 PUSH1 0x4 DUP1 CALLDATASIZE SUB DUP2 ADD SWAP1 PUSH2 0xFB SWAP2 SWAP1 PUSH2 0x29D5 JUMP JUMPDEST PUSH2 0x344 JUMP JUMPDEST STOP JUMPDEST CALLVALUE DUP1 ISZERO PUSH2 0x10E JUMPI PUSH1 0x0 DUP1 REVERT JUMPDEST POP PUSH2 0x129 PUSH1 0x4 DUP1 CALLDATASIZE SUB DUP2 ADD SWAP1 PUSH2 0x124 SWAP2 SWAP1 PUSH2 0x2AA2 JUMP JUMPDEST PUSH2 0x3A6 JUMP JUMPDEST PUSH1 0x40 MLOAD PUSH2 0x136 SWAP2 SWAP1 PUSH2 0x2AF1 JUMP JUMPDEST PUSH1 0x40 MLOAD DUP1 SWAP2 SUB SWAP1 RETURN JUMPDEST PUSH2 0x159 PUSH1 0x4 DUP1 CALLDATASIZE SUB DUP2 ADD SWAP1 PUSH2 0x154 SWAP2 SWAP1 PUSH2 0x2B0C JUMP JUMPDEST PUSH2 0x3BA JUMP JUMPDEST STOP JUMPDEST PUSH2 0x175 PUSH1 0x4 DUP1 CALLDATASIZE SUB DUP2 ADD SWAP1 PUSH2 0x170 SWAP2 SWAP1 PUSH2 0x2B68 JUMP JUMPDEST PUSH2 0x430 JUMP JUMPDEST STOP JUMPDEST CALLVALUE DUP1 ISZERO PUSH2 0x183 JUMPI PUSH1 0x0 DUP1 REVERT JUMPDEST POP PUSH2 0x19E PUSH1 0x4 DUP1 CALLDATASIZE SUB DUP2 ADD SWAP1 PUSH2 0x199 SWAP2 SWAP1 PUSH2 0x2C1E JUMP JUMPDEST PUSH2 0x56D JUMP JUMPDEST PUSH1 0x40 MLOAD PUSH2 0x1AB SWAP2 SWAP1 PUSH2 0x2AF1 JUMP JUMPDEST PUSH1 0x40 MLOAD DUP1 SWAP2 SUB SWAP1 RETURN JUMPDEST CALLVALUE DUP1 ISZERO PUSH2 0x1C0 JUMPI PUSH1 0x0 DUP1 REVERT JUMPDEST POP PUSH2 0x1DB PUSH1 0x4 DUP1 CALLDATASIZE SUB DUP2 ADD SWAP1 PUSH2 0x1D6 SWAP2 SWAP1 PUSH2 0x2850 JUMP JUMPDEST PUSH2 0x585 JUMP JUMPDEST PUSH1 0x40 MLOAD PUSH2 0x1E8 SWAP2 SWAP1 PUSH2 0x2CA1 JUMP JUMPDEST PUSH1 0x40 MLOAD DUP1 SWAP2 SUB SWAP1 RETURN JUMPDEST PUSH2 0x1FA DUP6 PUSH2 0x32C JUMP JUMPDEST PUSH1 0x20 ADD MLOAD CALLVALUE LT ISZERO PUSH2 0x20A JUMPI PUSH1 0x0 DUP1 REVERT JUMPDEST PUSH1 0x0 PUSH20 0x8D8E680A2D295AF8CBCD8B8E07F900275BC6B8D SWAP1 POP PUSH1 0x0 DUP1 DUP3 PUSH20 0xFFFFFFFFFFFFFFFFFFFFFFFFFFFFFFFFFFFFFFFF AND CALLVALUE PUSH1 0x40 MLOAD PUSH2 0x24A SWAP1 PUSH2 0x2CED JUMP JUMPDEST PUSH1 0x0 PUSH1 0x40 MLOAD DUP1 DUP4 SUB DUP2 DUP6 DUP8 GAS CALL SWAP3 POP POP POP RETURNDATASIZE DUP1 PUSH1 0x0 DUP2 EQ PUSH2 0x287 JUMPI PUSH1 0x40 MLOAD SWAP2 POP PUSH1 0x1F NOT PUSH1 0x3F RETURNDATASIZE ADD AND DUP3 ADD PUSH1 0x40 MSTORE RETURNDATASIZE DUP3 MSTORE RETURNDATASIZE PUSH1 0x0 PUSH1 0x20 DUP5 ADD RETURNDATACOPY PUSH2 0x28C JUMP JUMPDEST PUSH1 0x60 SWAP2 POP JUMPDEST POP SWAP2 POP SWAP2 POP DUP2 PUSH2 0x2D1 JUMPI PUSH1 0x40 MLOAD PUSH32 0x8C379A000000000000000000000000000000000000000000000000000000000 DUP2 MSTORE PUSH1 0x4 ADD PUSH2 0x2C8 SWAP1 PUSH2 0x2D5F JUMP JUMPDEST PUSH1 0x40 MLOAD DUP1 SWAP2 SUB SWAP1 REVERT JUMPDEST PUSH2 0x2DE DUP9 DUP9 DUP9 DUP9 DUP9 PUSH2 0x597 JUMP JUMPDEST DUP8 PUSH32 0x9D3AFC92396CC7C29A7A44C2E713F9EFE3287517DB4B2F9EEA9F860204FD5BAA PUSH1 0x40 MLOAD PUSH1 0x40 MLOAD DUP1 SWAP2 SUB SWAP1 LOG2 PUSH1 0x0 PUSH2 0x315 PUSH2 0x81B JUMP JUMPDEST SWAP1 POP PUSH2 0x321 CALLER DUP3 PUSH2 0x833 JUMP JUMPDEST POP POP POP POP POP POP POP POP POP JUMP JUMPDEST PUSH2 0x334 PUSH2 0x2559 JUMP JUMPDEST PUSH2 0x33D DUP3 PUSH2 0x851 JUMP JUMPDEST SWAP1 POP SWAP2 SWAP1 POP JUMP JUMPDEST PUSH1 0x0 PUSH20 0x434D36F32ABED3F7937FE0BE88DC1B0EB9381244 SWAP1 POP DUP1 PUSH20 0xFFFFFFFFFFFFFFFFFFFFFFFFFFFFFFFFFFFFFFFF AND CALLER PUSH20 0xFFFFFFFFFFFFFFFFFFFFFFFFFFFFFFFFFFFFFFFF AND EQ PUSH2 0x395 JUMPI PUSH1 0x0 DUP1 REVERT JUMPDEST PUSH2 0x3A0 DUP5 DUP5 DUP5 PUSH2 0x93D JUMP JUMPDEST POP POP POP POP JUMP JUMPDEST PUSH1 0x0 PUSH2 0x3B2 DUP4 DUP4 PUSH2 0x9DE JUMP JUMPDEST SWAP1 POP SWAP3 SWAP2 POP POP JUMP JUMPDEST PUSH2 0x3C4 DUP3 DUP3 PUSH2 0xA54 JUMP JUMPDEST PUSH1 0xA CALLVALUE LT ISZERO PUSH2 0x3D2 JUMPI PUSH1 0x0 DUP1 REVERT JUMPDEST DUP1 PUSH1 0x40 MLOAD PUSH2 0x3E0 SWAP2 SWAP1 PUSH2 0x2DBB JUMP JUMPDEST PUSH1 0x40 MLOAD DUP1 SWAP2 SUB SWAP1 KECCAK256 DUP3 CALLER PUSH20 0xFFFFFFFFFFFFFFFFFFFFFFFFFFFFFFFFFFFFFFFF AND PUSH32 0xE4CE50A62B6CBB7D19ACD75FD57F7E2588DD09705647D97993E2ECE872C305B2 PUSH1 0x40 MLOAD PUSH1 0x40 MLOAD DUP1 SWAP2 SUB SWAP1 LOG4 POP POP JUMP JUMPDEST PUSH2 0x439 DUP7 PUSH2 0x32C JUMP JUMPDEST PUSH1 0x20 ADD MLOAD CALLVALUE LT ISZERO PUSH2 0x449 JUMPI PUSH1 0x0 DUP1 REVERT JUMPDEST PUSH1 0x0 PUSH20 0x8D8E680A2D295AF8CBCD8B8E07F900275BC6B8D SWAP1 POP PUSH1 0x0 DUP1 DUP3 PUSH20 0xFFFFFFFFFFFFFFFFFFFFFFFFFFFFFFFFFFFFFFFF AND CALLVALUE PUSH1 0x40 MLOAD PUSH2 0x489 SWAP1 PUSH2 0x2CED JUMP JUMPDEST PUSH1 0x0 PUSH1 0x40 MLOAD DUP1 DUP4 SUB DUP2 DUP6 DUP8 GAS CALL SWAP3 POP POP POP RETURNDATASIZE DUP1 PUSH1 0x0 DUP2 EQ PUSH2 0x4C6 JUMPI PUSH1 0x40 MLOAD SWAP2 POP PUSH1 0x1F NOT PUSH1 0x3F RETURNDATASIZE ADD AND DUP3 ADD PUSH1 0x40 MSTORE RETURNDATASIZE DUP3 MSTORE RETURNDATASIZE PUSH1 0x0 PUSH1 0x20 DUP5 ADD RETURNDATACOPY PUSH2 0x4CB JUMP JUMPDEST PUSH1 0x60 SWAP2 POP JUMPDEST POP SWAP2 POP SWAP2 POP DUP2 PUSH2 0x510 JUMPI PUSH1 0x40 MLOAD PUSH32 0x8C379A000000000000000000000000000000000000000000000000000000000 DUP2 MSTORE PUSH1 0x4 ADD PUSH2 0x507 SWAP1 PUSH2 0x2D5F JUMP JUMPDEST PUSH1 0x40 MLOAD DUP1 SWAP2 SUB SWAP1 REVERT JUMPDEST PUSH2 0x51E DUP10 DUP10 DUP10 DUP10 DUP10 DUP10 PUSH2 0xD08 JUMP JUMPDEST DUP9 PUSH32 0x9D3AFC92396CC7C29A7A44C2E713F9EFE3287517DB4B2F9EEA9F860204FD5BAA PUSH1 0x40 MLOAD PUSH1 0x40 MLOAD DUP1 SWAP2 SUB SWAP1 LOG2 PUSH1 0x0 PUSH2 0x555 PUSH2 0x81B JUMP JUMPDEST SWAP1 POP PUSH2 0x561 CALLER DUP3 PUSH2 0x833 JUMP JUMPDEST POP POP POP POP POP POP POP POP POP POP JUMP JUMPDEST PUSH1 0x0 PUSH2 0x57B DUP6 DUP6 DUP6 DUP6 PUSH2 0xF21 JUMP JUMPDEST SWAP1 POP SWAP5 SWAP4 POP POP POP POP JUMP JUMPDEST PUSH1 0x0 PUSH2 0x590 DUP3 PUSH2 0xFC9 JUMP JUMPDEST SWAP1 POP SWAP2 SWAP1 POP JUMP JUMPDEST PUSH1 0x0 PUSH2 0x5A1 PUSH2 0xFF7 JUMP JUMPDEST SWAP1 POP DUP1 PUSH1 0x2 ADD PUSH1 0x0 DUP8 DUP2 MSTORE PUSH1 0x20 ADD SWAP1 DUP2 MSTORE PUSH1 0x20 ADD PUSH1 0x0 KECCAK256 PUSH1 0x0 CALLER PUSH20 0xFFFFFFFFFFFFFFFFFFFFFFFFFFFFFFFFFFFFFFFF AND PUSH20 0xFFFFFFFFFFFFFFFFFFFFFFFFFFFFFFFFFFFFFFFF AND DUP2 MSTORE PUSH1 0x20 ADD SWAP1 DUP2 MSTORE PUSH1 0x20 ADD PUSH1 0x0 KECCAK256 PUSH1 0x0 SWAP1 SLOAD SWAP1 PUSH2 0x100 EXP SWAP1 DIV PUSH1 0xFF AND ISZERO PUSH2 0x643 JUMPI PUSH1 0x40 MLOAD PUSH32 0x8C379A000000000000000000000000000000000000000000000000000000000 DUP2 MSTORE PUSH1 0x4 ADD PUSH2 0x63A SWAP1 PUSH2 0x2E44 JUMP JUMPDEST PUSH1 0x40 MLOAD DUP1 SWAP2 SUB SWAP1 REVERT JUMPDEST PUSH2 0x6CD DUP6 DUP6 DUP1 DUP1 PUSH1 0x20 MUL PUSH1 0x20 ADD PUSH1 0x40 MLOAD SWAP1 DUP2 ADD PUSH1 0x40 MSTORE DUP1 SWAP4 SWAP3 SWAP2 SWAP1 DUP2 DUP2 MSTORE PUSH1 0x20 ADD DUP4 DUP4 PUSH1 0x20 MUL DUP1 DUP3 DUP5 CALLDATACOPY PUSH1 0x0 DUP2 DUP5 ADD MSTORE PUSH1 0x1F NOT PUSH1 0x1F DUP3 ADD AND SWAP1 POP DUP1 DUP4 ADD SWAP3 POP POP POP POP POP POP POP DUP3 PUSH1 0x1 ADD PUSH1 0x0 DUP10 DUP2 MSTORE PUSH1 0x20 ADD SWAP1 DUP2 MSTORE PUSH1 0x20 ADD PUSH1 0x0 KECCAK256 PUSH1 0x2 ADD SLOAD CALLER PUSH1 0x40 MLOAD PUSH1 0x20 ADD PUSH2 0x6B2 SWAP2 SWAP1 PUSH2 0x2EAC JUMP JUMPDEST PUSH1 0x40 MLOAD PUSH1 0x20 DUP2 DUP4 SUB SUB DUP2 MSTORE SWAP1 PUSH1 0x40 MSTORE DUP1 MLOAD SWAP1 PUSH1 0x20 ADD KECCAK256 PUSH2 0x1024 JUMP JUMPDEST PUSH2 0x70C JUMPI PUSH1 0x40 MLOAD PUSH32 0x8C379A000000000000000000000000000000000000000000000000000000000 DUP2 MSTORE PUSH1 0x4 ADD PUSH2 0x703 SWAP1 PUSH2 0x2F13 JUMP JUMPDEST PUSH1 0x40 MLOAD DUP1 SWAP2 SUB SWAP1 REVERT JUMPDEST DUP1 PUSH1 0x1 ADD PUSH1 0x0 DUP8 DUP2 MSTORE PUSH1 0x20 ADD SWAP1 DUP2 MSTORE PUSH1 0x20 ADD PUSH1 0x0 KECCAK256 PUSH1 0x1 ADD SLOAD CALLVALUE LT ISZERO PUSH2 0x731 JUMPI PUSH1 0x0 DUP1 REVERT JUMPDEST PUSH1 0x40 MLOAD PUSH1 0x20 ADD PUSH2 0x740 SWAP1 PUSH2 0x2F7F JUMP JUMPDEST PUSH1 0x40 MLOAD PUSH1 0x20 DUP2 DUP4 SUB SUB DUP2 MSTORE SWAP1 PUSH1 0x40 MSTORE DUP1 MLOAD SWAP1 PUSH1 0x20 ADD KECCAK256 DUP2 PUSH1 0x1 ADD PUSH1 0x0 DUP9 DUP2 MSTORE PUSH1 0x20 ADD SWAP1 DUP2 MSTORE PUSH1 0x20 ADD PUSH1 0x0 KECCAK256 PUSH1 0x3 ADD PUSH1 0x40 MLOAD PUSH1 0x20 ADD PUSH2 0x77E SWAP2 SWAP1 PUSH2 0x308C JUMP JUMPDEST PUSH1 0x40 MLOAD PUSH1 0x20 DUP2 DUP4 SUB SUB DUP2 MSTORE SWAP1 PUSH1 0x40 MSTORE DUP1 MLOAD SWAP1 PUSH1 0x20 ADD KECCAK256 EQ PUSH2 0x79E JUMPI PUSH1 0x0 DUP1 REVERT JUMPDEST PUSH1 0x1 DUP2 PUSH1 0x2 ADD PUSH1 0x0 DUP9 DUP2 MSTORE PUSH1 0x20 ADD SWAP1 DUP2 MSTORE PUSH1 0x20 ADD PUSH1 0x0 KECCAK256 PUSH1 0x0 CALLER PUSH20 0xFFFFFFFFFFFFFFFFFFFFFFFFFFFFFFFFFFFFFFFF AND PUSH20 0xFFFFFFFFFFFFFFFFFFFFFFFFFFFFFFFFFFFFFFFF AND DUP2 MSTORE PUSH1 0x20 ADD SWAP1 DUP2 MSTORE PUSH1 0x20 ADD PUSH1 0x0 KECCAK256 PUSH1 0x0 PUSH2 0x100 EXP DUP2 SLOAD DUP2 PUSH1 0xFF MUL NOT AND SWAP1 DUP4 ISZERO ISZERO MUL OR SWAP1 SSTORE POP PUSH2 0x813 DUP4 DUP4 PUSH2 0x103B JUMP JUMPDEST POP POP POP POP POP POP JUMP JUMPDEST PUSH1 0x0 DUP1 PUSH2 0x826 PUSH2 0x155B JUMP JUMPDEST SWAP1 POP DUP1 PUSH1 0x1 ADD SLOAD SWAP2 POP POP SWAP1 JUMP JUMPDEST PUSH2 0x84D DUP3 DUP3 PUSH1 0x40 MLOAD DUP1 PUSH1 0x20 ADD PUSH1 0x40 MSTORE DUP1 PUSH1 0x0 DUP2 MSTORE POP PUSH2 0x1588 JUMP JUMPDEST POP POP JUMP JUMPDEST PUSH2 0x859 PUSH2 0x2559 JUMP JUMPDEST PUSH1 0x0 PUSH2 0x863 PUSH2 0xFF7 JUMP JUMPDEST SWAP1 POP DUP1 PUSH1 0x1 ADD PUSH1 0x0 DUP5 DUP2 MSTORE PUSH1 0x20 ADD SWAP1 DUP2 MSTORE PUSH1 0x20 ADD PUSH1 0x0 KECCAK256 PUSH1 0x40 MLOAD DUP1 PUSH1 0x80 ADD PUSH1 0x40 MSTORE SWAP1 DUP2 PUSH1 0x0 DUP3 ADD SLOAD DUP2 MSTORE PUSH1 0x20 ADD PUSH1 0x1 DUP3 ADD SLOAD DUP2 MSTORE PUSH1 0x20 ADD PUSH1 0x2 DUP3 ADD SLOAD DUP2 MSTORE PUSH1 0x20 ADD PUSH1 0x3 DUP3 ADD DUP1 SLOAD PUSH2 0x8B3 SWAP1 PUSH2 0x2FC3 JUMP JUMPDEST DUP1 PUSH1 0x1F ADD PUSH1 0x20 DUP1 SWAP2 DIV MUL PUSH1 0x20 ADD PUSH1 0x40 MLOAD SWAP1 DUP2 ADD PUSH1 0x40 MSTORE DUP1 SWAP3 SWAP2 SWAP1 DUP2 DUP2 MSTORE PUSH1 0x20 ADD DUP3 DUP1 SLOAD PUSH2 0x8DF SWAP1 PUSH2 0x2FC3 JUMP JUMPDEST DUP1 ISZERO PUSH2 0x92C JUMPI DUP1 PUSH1 0x1F LT PUSH2 0x901 JUMPI PUSH2 0x100 DUP1 DUP4 SLOAD DIV MUL DUP4 MSTORE SWAP2 PUSH1 0x20 ADD SWAP2 PUSH2 0x92C JUMP JUMPDEST DUP3 ADD SWAP2 SWAP1 PUSH1 0x0 MSTORE PUSH1 0x20 PUSH1 0x0 KECCAK256 SWAP1 JUMPDEST DUP2 SLOAD DUP2 MSTORE SWAP1 PUSH1 0x1 ADD SWAP1 PUSH1 0x20 ADD DUP1 DUP4 GT PUSH2 0x90F JUMPI DUP3 SWAP1 SUB PUSH1 0x1F AND DUP3 ADD SWAP2 JUMPDEST POP POP POP POP POP DUP2 MSTORE POP POP SWAP2 POP POP SWAP2 SWAP1 POP JUMP JUMPDEST PUSH1 0x0 PUSH2 0x947 PUSH2 0xFF7 JUMP JUMPDEST SWAP1 POP DUP1 PUSH1 0x0 ADD PUSH1 0x0 DUP2 SLOAD DUP1 SWAP3 SWAP2 SWAP1 PUSH2 0x95E SWAP1 PUSH2 0x30D2 JUMP JUMPDEST SWAP2 SWAP1 POP SSTORE POP PUSH1 0x40 MLOAD DUP1 PUSH1 0x80 ADD PUSH1 0x40 MSTORE DUP1 DUP3 PUSH1 0x0 ADD SLOAD DUP2 MSTORE PUSH1 0x20 ADD DUP4 DUP2 MSTORE PUSH1 0x20 ADD DUP6 DUP2 MSTORE PUSH1 0x20 ADD DUP5 DUP2 MSTORE POP DUP2 PUSH1 0x1 ADD PUSH1 0x0 DUP4 PUSH1 0x0 ADD SLOAD DUP2 MSTORE PUSH1 0x20 ADD SWAP1 DUP2 MSTORE PUSH1 0x20 ADD PUSH1 0x0 KECCAK256 PUSH1 0x0 DUP3 ADD MLOAD DUP2 PUSH1 0x0 ADD SSTORE PUSH1 0x20 DUP3 ADD MLOAD DUP2 PUSH1 0x1 ADD SSTORE PUSH1 0x40 DUP3 ADD MLOAD DUP2 PUSH1 0x2 ADD SSTORE PUSH1 0x60 DUP3 ADD MLOAD DUP2 PUSH1 0x3 ADD SWAP1 DUP2 PUSH2 0x9D4 SWAP2 SWAP1 PUSH2 0x32B1 JUMP JUMPDEST POP SWAP1 POP POP POP POP POP POP JUMP JUMPDEST PUSH1 0x0 DUP1 PUSH2 0x9E9 PUSH2 0xFF7 JUMP JUMPDEST SWAP1 POP DUP1 PUSH1 0x2 ADD PUSH1 0x0 DUP6 DUP2 MSTORE PUSH1 0x20 ADD SWAP1 DUP2 MSTORE PUSH1 0x20 ADD PUSH1 0x0 KECCAK256 PUSH1 0x0 DUP5 PUSH20 0xFFFFFFFFFFFFFFFFFFFFFFFFFFFFFFFFFFFFFFFF AND PUSH20 0xFFFFFFFFFFFFFFFFFFFFFFFFFFFFFFFFFFFFFFFF AND DUP2 MSTORE PUSH1 0x20 ADD SWAP1 DUP2 MSTORE PUSH1 0x20 ADD PUSH1 0x0 KECCAK256 PUSH1 0x0 SWAP1 SLOAD SWAP1 PUSH2 0x100 EXP SWAP1 DIV PUSH1 0xFF AND SWAP2 POP POP SWAP3 SWAP2 POP POP JUMP JUMPDEST PUSH1 0x0 PUSH2 0xA5E PUSH2 0x155B JUMP JUMPDEST SWAP1 POP CALLER PUSH20 0xFFFFFFFFFFFFFFFFFFFFFFFFFFFFFFFFFFFFFFFF AND DUP2 PUSH1 0x2 ADD PUSH1 0x0 DUP6 DUP2 MSTORE PUSH1 0x20 ADD SWAP1 DUP2 MSTORE PUSH1 0x20 ADD PUSH1 0x0 KECCAK256 PUSH1 0x0 SWAP1 SLOAD SWAP1 PUSH2 0x100 EXP SWAP1 DIV PUSH20 0xFFFFFFFFFFFFFFFFFFFFFFFFFFFFFFFFFFFFFFFF AND PUSH20 0xFFFFFFFFFFFFFFFFFFFFFFFFFFFFFFFFFFFFFFFF AND EQ PUSH2 0xACD JUMPI PUSH1 0x0 DUP1 REVERT JUMPDEST DUP1 PUSH1 0x6 ADD DUP3 PUSH1 0x40 MLOAD PUSH2 0xADF SWAP2 SWAP1 PUSH2 0x2DBB JUMP JUMPDEST SWAP1 DUP2 MSTORE PUSH1 0x20 ADD PUSH1 0x40 MLOAD DUP1 SWAP2 SUB SWAP1 KECCAK256 PUSH1 0x0 SWAP1 SLOAD SWAP1 PUSH2 0x100 EXP SWAP1 DIV PUSH1 0xFF AND ISZERO PUSH2 0xB3B JUMPI PUSH1 0x40 MLOAD PUSH32 0x8C379A000000000000000000000000000000000000000000000000000000000 DUP2 MSTORE PUSH1 0x4 ADD PUSH2 0xB32 SWAP1 PUSH2 0x33CF JUMP JUMPDEST PUSH1 0x40 MLOAD DUP1 SWAP2 SUB SWAP1 REVERT JUMPDEST PUSH1 0x3 DUP3 MLOAD GT PUSH2 0xB7F JUMPI PUSH1 0x40 MLOAD PUSH32 0x8C379A000000000000000000000000000000000000000000000000000000000 DUP2 MSTORE PUSH1 0x4 ADD PUSH2 0xB76 SWAP1 PUSH2 0x343B JUMP JUMPDEST PUSH1 0x40 MLOAD DUP1 SWAP2 SUB SWAP1 REVERT JUMPDEST PUSH1 0xA DUP3 MLOAD LT PUSH2 0xBC3 JUMPI PUSH1 0x40 MLOAD PUSH32 0x8C379A000000000000000000000000000000000000000000000000000000000 DUP2 MSTORE PUSH1 0x4 ADD PUSH2 0xBBA SWAP1 PUSH2 0x34A7 JUMP JUMPDEST PUSH1 0x40 MLOAD DUP1 SWAP2 SUB SWAP1 REVERT JUMPDEST PUSH1 0x0 DUP2 PUSH1 0x3 ADD PUSH1 0x0 DUP6 DUP2 MSTORE PUSH1 0x20 ADD SWAP1 DUP2 MSTORE PUSH1 0x20 ADD PUSH1 0x0 KECCAK256 PUSH1 0xF ADD DUP1 SLOAD PUSH2 0xBE8 SWAP1 PUSH2 0x2FC3 JUMP JUMPDEST DUP1 PUSH1 0x1F ADD PUSH1 0x20 DUP1 SWAP2 DIV MUL PUSH1 0x20 ADD PUSH1 0x40 MLOAD SWAP1 DUP2 ADD PUSH1 0x40 MSTORE DUP1 SWAP3 SWAP2 SWAP1 DUP2 DUP2 MSTORE PUSH1 0x20 ADD DUP3 DUP1 SLOAD PUSH2 0xC14 SWAP1 PUSH2 0x2FC3 JUMP JUMPDEST DUP1 ISZERO PUSH2 0xC61 JUMPI DUP1 PUSH1 0x1F LT PUSH2 0xC36 JUMPI PUSH2 0x100 DUP1 DUP4 SLOAD DIV MUL DUP4 MSTORE SWAP2 PUSH1 0x20 ADD SWAP2 PUSH2 0xC61 JUMP JUMPDEST DUP3 ADD SWAP2 SWAP1 PUSH1 0x0 MSTORE PUSH1 0x20 PUSH1 0x0 KECCAK256 SWAP1 JUMPDEST DUP2 SLOAD DUP2 MSTORE SWAP1 PUSH1 0x1 ADD SWAP1 PUSH1 0x20 ADD DUP1 DUP4 GT PUSH2 0xC44 JUMPI DUP3 SWAP1 SUB PUSH1 0x1F AND DUP3 ADD SWAP2 JUMPDEST POP POP POP POP POP SWAP1 POP PUSH1 0x0 DUP2 MLOAD GT ISZERO PUSH2 0xCA3 JUMPI DUP2 PUSH1 0x6 ADD DUP2 PUSH1 0x40 MLOAD PUSH2 0xC84 SWAP2 SWAP1 PUSH2 0x2DBB JUMP JUMPDEST SWAP1 DUP2 MSTORE PUSH1 0x20 ADD PUSH1 0x40 MLOAD DUP1 SWAP2 SUB SWAP1 KECCAK256 PUSH1 0x0 PUSH2 0x100 EXP DUP2 SLOAD SWAP1 PUSH1 0xFF MUL NOT AND SWAP1 SSTORE JUMPDEST DUP3 DUP3 PUSH1 0x3 ADD PUSH1 0x0 DUP7 DUP2 MSTORE PUSH1 0x20 ADD SWAP1 DUP2 MSTORE PUSH1 0x20 ADD PUSH1 0x0 KECCAK256 PUSH1 0xF ADD SWAP1 DUP2 PUSH2 0xCC8 SWAP2 SWAP1 PUSH2 0x32B1 JUMP JUMPDEST POP PUSH1 0x1 DUP3 PUSH1 0x6 ADD DUP5 PUSH1 0x40 MLOAD PUSH2 0xCDD SWAP2 SWAP1 PUSH2 0x2DBB JUMP JUMPDEST SWAP1 DUP2 MSTORE PUSH1 0x20 ADD PUSH1 0x40 MLOAD DUP1 SWAP2 SUB SWAP1 KECCAK256 PUSH1 0x0 PUSH2 0x100 EXP DUP2 SLOAD DUP2 PUSH1 0xFF MUL NOT AND SWAP1 DUP4 ISZERO ISZERO MUL OR SWAP1 SSTORE POP POP POP POP POP JUMP JUMPDEST PUSH1 0x0 PUSH2 0xD12 PUSH2 0xFF7 JUMP JUMPDEST SWAP1 POP DUP1 PUSH1 0x2 ADD PUSH1 0x0 DUP9 DUP2 MSTORE PUSH1 0x20 ADD SWAP1 DUP2 MSTORE PUSH1 0x20 ADD PUSH1 0x0 KECCAK256 PUSH1 0x0 CALLER PUSH20 0xFFFFFFFFFFFFFFFFFFFFFFFFFFFFFFFFFFFFFFFF AND PUSH20 0xFFFFFFFFFFFFFFFFFFFFFFFFFFFFFFFFFFFFFFFF AND DUP2 MSTORE PUSH1 0x20 ADD SWAP1 DUP2 MSTORE PUSH1 0x20 ADD PUSH1 0x0 KECCAK256 PUSH1 0x0 SWAP1 SLOAD SWAP1 PUSH2 0x100 EXP SWAP1 DIV PUSH1 0xFF AND ISZERO PUSH2 0xDB4 JUMPI PUSH1 0x40 MLOAD PUSH32 0x8C379A000000000000000000000000000000000000000000000000000000000 DUP2 MSTORE PUSH1 0x4 ADD PUSH2 0xDAB SWAP1 PUSH2 0x2E44 JUMP JUMPDEST PUSH1 0x40 MLOAD DUP1 SWAP2 SUB SWAP1 REVERT JUMPDEST PUSH2 0xE3E DUP7 DUP7 DUP1 DUP1 PUSH1 0x20 MUL PUSH1 0x20 ADD PUSH1 0x40 MLOAD SWAP1 DUP2 ADD PUSH1 0x40 MSTORE DUP1 SWAP4 SWAP3 SWAP2 SWAP1 DUP2 DUP2 MSTORE PUSH1 0x20 ADD DUP4 DUP4 PUSH1 0x20 MUL DUP1 DUP3 DUP5 CALLDATACOPY PUSH1 0x0 DUP2 DUP5 ADD MSTORE PUSH1 0x1F NOT PUSH1 0x1F DUP3 ADD AND SWAP1 POP DUP1 DUP4 ADD SWAP3 POP POP POP POP POP POP POP DUP3 PUSH1 0x1 ADD PUSH1 0x0 DUP11 DUP2 MSTORE PUSH1 0x20 ADD SWAP1 DUP2 MSTORE PUSH1 0x20 ADD PUSH1 0x0 KECCAK256 PUSH1 0x2 ADD SLOAD CALLER PUSH1 0x40 MLOAD PUSH1 0x20 ADD PUSH2 0xE23 SWAP2 SWAP1 PUSH2 0x2EAC JUMP JUMPDEST PUSH1 0x40 MLOAD PUSH1 0x20 DUP2 DUP4 SUB SUB DUP2 MSTORE SWAP1 PUSH1 0x40 MSTORE DUP1 MLOAD SWAP1 PUSH1 0x20 ADD KECCAK256 PUSH2 0x1024 JUMP JUMPDEST PUSH2 0xE7D JUMPI PUSH1 0x40 MLOAD PUSH32 0x8C379A000000000000000000000000000000000000000000000000000000000 DUP2 MSTORE PUSH1 0x4 ADD PUSH2 0xE74 SWAP1 PUSH2 0x2F13 JUMP JUMPDEST PUSH1 0x40 MLOAD DUP1 SWAP2 SUB SWAP1 REVERT JUMPDEST DUP1 PUSH1 0x1 ADD PUSH1 0x0 DUP9 DUP2 MSTORE PUSH1 0x20 ADD SWAP1 DUP2 MSTORE PUSH1 0x20 ADD PUSH1 0x0 KECCAK256 PUSH1 0x1 ADD SLOAD CALLVALUE LT ISZERO PUSH2 0xEA2 JUMPI PUSH1 0x0 DUP1 REVERT JUMPDEST PUSH1 0x1 DUP2 PUSH1 0x2 ADD PUSH1 0x0 DUP10 DUP2 MSTORE PUSH1 0x20 ADD SWAP1 DUP2 MSTORE PUSH1 0x20 ADD PUSH1 0x0 KECCAK256 PUSH1 0x0 CALLER PUSH20 0xFFFFFFFFFFFFFFFFFFFFFFFFFFFFFFFFFFFFFFFF AND PUSH20 0xFFFFFFFFFFFFFFFFFFFFFFFFFFFFFFFFFFFFFFFF AND DUP2 MSTORE PUSH1 0x20 ADD SWAP1 DUP2 MSTORE PUSH1 0x20 ADD PUSH1 0x0 KECCAK256 PUSH1 0x0 PUSH2 0x100 EXP DUP2 SLOAD DUP2 PUSH1 0xFF MUL NOT AND SWAP1 DUP4 ISZERO ISZERO MUL OR SWAP1 SSTORE POP PUSH2 0xF18 DUP5 DUP5 DUP5 PUSH2 0x15E3 JUMP JUMPDEST POP POP POP POP POP POP POP JUMP JUMPDEST PUSH1 0x0 DUP1 PUSH2 0xF2C PUSH2 0xFF7 JUMP JUMPDEST SWAP1 POP PUSH1 0x0 DUP4 PUSH1 0x40 MLOAD PUSH1 0x20 ADD PUSH2 0xF41 SWAP2 SWAP1 PUSH2 0x2EAC JUMP JUMPDEST PUSH1 0x40 MLOAD PUSH1 0x20 DUP2 DUP4 SUB SUB DUP2 MSTORE SWAP1 PUSH1 0x40 MSTORE DUP1 MLOAD SWAP1 PUSH1 0x20 ADD KECCAK256 SWAP1 POP PUSH2 0xFBD DUP8 DUP8 DUP1 DUP1 PUSH1 0x20 MUL PUSH1 0x20 ADD PUSH1 0x40 MLOAD SWAP1 DUP2 ADD PUSH1 0x40 MSTORE DUP1 SWAP4 SWAP3 SWAP2 SWAP1 DUP2 DUP2 MSTORE PUSH1 0x20 ADD DUP4 DUP4 PUSH1 0x20 MUL DUP1 DUP3 DUP5 CALLDATACOPY PUSH1 0x0 DUP2 DUP5 ADD MSTORE PUSH1 0x1F NOT PUSH1 0x1F DUP3 ADD AND SWAP1 POP DUP1 DUP4 ADD SWAP3 POP POP POP POP POP POP POP DUP4 PUSH1 0x1 ADD PUSH1 0x0 DUP9 DUP2 MSTORE PUSH1 0x20 ADD SWAP1 DUP2 MSTORE PUSH1 0x20 ADD PUSH1 0x0 KECCAK256 PUSH1 0x2 ADD SLOAD DUP4 PUSH2 0x1024 JUMP JUMPDEST SWAP3 POP POP POP SWAP5 SWAP4 POP POP POP POP JUMP JUMPDEST PUSH1 0x0 DUP1 PUSH2 0xFD4 PUSH2 0xFF7 JUMP JUMPDEST SWAP1 POP DUP1 PUSH1 0x1 ADD PUSH1 0x0 DUP5 DUP2 MSTORE PUSH1 0x20 ADD SWAP1 DUP2 MSTORE PUSH1 0x20 ADD PUSH1 0x0 KECCAK256 PUSH1 0x2 ADD SLOAD SWAP2 POP POP SWAP2 SWAP1 POP JUMP JUMPDEST PUSH1 0x0 DUP1 PUSH32 0x19A7B6AA9AD98F2F267A375BB3E53168BB268F6EC190238C4CCF172054FDE40A SWAP1 POP DUP1 SWAP2 POP POP SWAP1 JUMP JUMPDEST PUSH1 0x0 DUP3 PUSH2 0x1031 DUP6 DUP5 PUSH2 0x2020 JUMP JUMPDEST EQ SWAP1 POP SWAP4 SWAP3 POP POP POP JUMP JUMPDEST PUSH1 0x0 PUSH2 0x1045 PUSH2 0x155B JUMP JUMPDEST SWAP1 POP DUP1 PUSH1 0x6 ADD DUP4 PUSH1 0x40 MLOAD PUSH2 0x1059 SWAP2 SWAP1 PUSH2 0x2DBB JUMP JUMPDEST SWAP1 DUP2 MSTORE PUSH1 0x20 ADD PUSH1 0x40 MLOAD DUP1 SWAP2 SUB SWAP1 KECCAK256 PUSH1 0x0 SWAP1 SLOAD SWAP1 PUSH2 0x100 EXP SWAP1 DIV PUSH1 0xFF AND ISZERO PUSH2 0x10B5 JUMPI PUSH1 0x40 MLOAD PUSH32 0x8C379A000000000000000000000000000000000000000000000000000000000 DUP2 MSTORE PUSH1 0x4 ADD PUSH2 0x10AC SWAP1 PUSH2 0x33CF JUMP JUMPDEST PUSH1 0x40 MLOAD DUP1 SWAP2 SUB SWAP1 REVERT JUMPDEST PUSH1 0xA DUP4 MLOAD GT ISZERO PUSH2 0x10C4 JUMPI PUSH1 0x0 DUP1 REVERT JUMPDEST PUSH1 0x3 DUP4 MLOAD LT ISZERO PUSH2 0x10D3 JUMPI PUSH1 0x0 DUP1 REVERT JUMPDEST DUP1 PUSH1 0x1 ADD PUSH1 0x0 DUP2 SLOAD DUP1 SWAP3 SWAP2 SWAP1 PUSH2 0x10E8 SWAP1 PUSH2 0x30D2 JUMP JUMPDEST SWAP2 SWAP1 POP SSTORE POP PUSH1 0x60 DUP3 PUSH2 0x1115 JUMPI PUSH1 0x40 MLOAD DUP1 PUSH1 0x80 ADD PUSH1 0x40 MSTORE DUP1 PUSH1 0x43 DUP2 MSTORE PUSH1 0x20 ADD PUSH2 0x38F4 PUSH1 0x43 SWAP2 CODECOPY SWAP1 POP DUP1 PUSH2 0x1132 JUMP JUMPDEST PUSH1 0x40 MLOAD DUP1 PUSH1 0x80 ADD PUSH1 0x40 MSTORE DUP1 PUSH1 0x43 DUP2 MSTORE PUSH1 0x20 ADD PUSH2 0x3937 PUSH1 0x43 SWAP2 CODECOPY SWAP1 POP DUP1 JUMPDEST POP PUSH1 0x40 MLOAD DUP1 PUSH2 0x280 ADD PUSH1 0x40 MSTORE DUP1 PUSH1 0x1 DUP2 MSTORE PUSH1 0x20 ADD PUSH1 0x0 DUP2 MSTORE PUSH1 0x20 ADD PUSH1 0x0 DUP2 MSTORE PUSH1 0x20 ADD PUSH1 0xD DUP2 MSTORE PUSH1 0x20 ADD PUSH1 0xD DUP2 MSTORE PUSH1 0x20 ADD PUSH1 0xD DUP2 MSTORE PUSH1 0x20 ADD PUSH1 0xD DUP2 MSTORE PUSH1 0x20 ADD PUSH1 0xD DUP2 MSTORE PUSH1 0x20 ADD PUSH1 0xD DUP2 MSTORE PUSH1 0x20 ADD PUSH1 0xF DUP2 MSTORE PUSH1 0x20 ADD PUSH1 0x1 DUP2 MSTORE PUSH1 0x20 ADD PUSH1 0x1 DUP2 MSTORE PUSH1 0x20 ADD PUSH1 0x1 DUP2 MSTORE PUSH1 0x20 ADD PUSH1 0x1 DUP2 MSTORE PUSH1 0x20 ADD PUSH1 0xD DUP2 MSTORE PUSH1 0x20 ADD DUP6 DUP2 MSTORE PUSH1 0x20 ADD DUP3 DUP2 MSTORE PUSH1 0x20 ADD DUP5 ISZERO ISZERO DUP2 MSTORE PUSH1 0x20 ADD PUSH1 0x40 MLOAD DUP1 PUSH1 0xE0 ADD PUSH1 0x40 MSTORE DUP1 PUSH1 0x0 DUP2 MSTORE PUSH1 0x20 ADD PUSH1 0x0 DUP2 MSTORE PUSH1 0x20 ADD PUSH1 0x0 DUP2 MSTORE PUSH1 0x20 ADD PUSH1 0x0 DUP2 MSTORE PUSH1 0x20 ADD PUSH1 0x0 DUP2 MSTORE PUSH1 0x20 ADD PUSH1 0x0 DUP2 MSTORE PUSH1 0x20 ADD PUSH1 0x0 DUP2 MSTORE POP DUP2 MSTORE PUSH1 0x20 ADD PUSH1 0x3 DUP2 MSTORE POP DUP3 PUSH1 0x3 ADD PUSH1 0x0 DUP5 PUSH1 0x1 ADD SLOAD DUP2 MSTORE PUSH1 0x20 ADD SWAP1 DUP2 MSTORE PUSH1 0x20 ADD PUSH1 0x0 KECCAK256 PUSH1 0x0 DUP3 ADD MLOAD DUP2 PUSH1 0x0 ADD SSTORE PUSH1 0x20 DUP3 ADD MLOAD DUP2 PUSH1 0x1 ADD SSTORE PUSH1 0x40 DUP3 ADD MLOAD DUP2 PUSH1 0x2 ADD SSTORE PUSH1 0x60 DUP3 ADD MLOAD DUP2 PUSH1 0x3 ADD SSTORE PUSH1 0x80 DUP3 ADD MLOAD DUP2 PUSH1 0x4 ADD SSTORE PUSH1 0xA0 DUP3 ADD MLOAD DUP2 PUSH1 0x5 ADD SSTORE PUSH1 0xC0 DUP3 ADD MLOAD DUP2 PUSH1 0x6 ADD SSTORE PUSH1 0xE0 DUP3 ADD MLOAD DUP2 PUSH1 0x7 ADD SSTORE PUSH2 0x100 DUP3 ADD MLOAD DUP2 PUSH1 0x8 ADD SSTORE PUSH2 0x120 DUP3 ADD MLOAD DUP2 PUSH1 0x9 ADD SSTORE PUSH2 0x140 DUP3 ADD MLOAD DUP2 PUSH1 0xA ADD SSTORE PUSH2 0x160 DUP3 ADD MLOAD DUP2 PUSH1 0xB ADD SSTORE PUSH2 0x180 DUP3 ADD MLOAD DUP2 PUSH1 0xC ADD SSTORE PUSH2 0x1A0 DUP3 ADD MLOAD DUP2 PUSH1 0xD ADD SSTORE PUSH2 0x1C0 DUP3 ADD MLOAD DUP2 PUSH1 0xE ADD SSTORE PUSH2 0x1E0 DUP3 ADD MLOAD DUP2 PUSH1 0xF ADD SWAP1 DUP2 PUSH2 0x12CC SWAP2 SWAP1 PUSH2 0x32B1 JUMP JUMPDEST POP PUSH2 0x200 DUP3 ADD MLOAD DUP2 PUSH1 0x10 ADD SWAP1 DUP2 PUSH2 0x12E3 SWAP2 SWAP1 PUSH2 0x32B1 JUMP JUMPDEST POP PUSH2 0x220 DUP3 ADD MLOAD DUP2 PUSH1 0x11 ADD PUSH1 0x0 PUSH2 0x100 EXP DUP2 SLOAD DUP2 PUSH1 0xFF MUL NOT AND SWAP1 DUP4 ISZERO ISZERO MUL OR SWAP1 SSTORE POP PUSH2 0x240 DUP3 ADD MLOAD DUP2 PUSH1 0x12 ADD PUSH1 0x0 DUP3 ADD MLOAD DUP2 PUSH1 0x0 ADD SSTORE PUSH1 0x20 DUP3 ADD MLOAD DUP2 PUSH1 0x1 ADD SSTORE PUSH1 0x40 DUP3 ADD MLOAD DUP2 PUSH1 0x2 ADD SSTORE PUSH1 0x60 DUP3 ADD MLOAD DUP2 PUSH1 0x3 ADD SSTORE PUSH1 0x80 DUP3 ADD MLOAD DUP2 PUSH1 0x4 ADD SSTORE PUSH1 0xA0 DUP3 ADD MLOAD DUP2 PUSH1 0x5 ADD SSTORE PUSH1 0xC0 DUP3 ADD MLOAD DUP2 PUSH1 0x6 ADD SSTORE POP POP PUSH2 0x260 DUP3 ADD MLOAD DUP2 PUSH1 0x19 ADD SSTORE SWAP1 POP POP PUSH1 0x40 MLOAD DUP1 PUSH1 0xE0 ADD PUSH1 0x40 MSTORE DUP1 PUSH1 0x0 DUP2 MSTORE PUSH1 0x20 ADD PUSH1 0x0 DUP2 MSTORE PUSH1 0x20 ADD PUSH1 0x0 DUP2 MSTORE PUSH1 0x20 ADD PUSH1 0x0 DUP2 MSTORE PUSH1 0x20 ADD PUSH1 0x0 DUP2 MSTORE PUSH1 0x20 ADD PUSH1 0x0 DUP2 MSTORE PUSH1 0x20 ADD PUSH1 0x0 DUP2 MSTORE POP DUP3 PUSH1 0x8 ADD PUSH1 0x0 DUP5 PUSH1 0x1 ADD SLOAD DUP2 MSTORE PUSH1 0x20 ADD SWAP1 DUP2 MSTORE PUSH1 0x20 ADD PUSH1 0x0 KECCAK256 PUSH1 0x0 DUP3 ADD MLOAD DUP2 PUSH1 0x0 ADD SSTORE PUSH1 0x20 DUP3 ADD MLOAD DUP2 PUSH1 0x1 ADD SSTORE PUSH1 0x40 DUP3 ADD MLOAD DUP2 PUSH1 0x2 ADD SSTORE PUSH1 0x60 DUP3 ADD MLOAD DUP2 PUSH1 0x3 ADD SSTORE PUSH1 0x80 DUP3 ADD MLOAD DUP2 PUSH1 0x4 ADD SSTORE PUSH1 0xA0 DUP3 ADD MLOAD DUP2 PUSH1 0x5 ADD SSTORE PUSH1 0xC0 DUP3 ADD MLOAD DUP2 PUSH1 0x6 ADD SSTORE SWAP1 POP POP PUSH1 0x1 DUP3 PUSH1 0x6 ADD DUP6 PUSH1 0x40 MLOAD PUSH2 0x1415 SWAP2 SWAP1 PUSH2 0x2DBB JUMP JUMPDEST SWAP1 DUP2 MSTORE PUSH1 0x20 ADD PUSH1 0x40 MLOAD DUP1 SWAP2 SUB SWAP1 KECCAK256 PUSH1 0x0 PUSH2 0x100 EXP DUP2 SLOAD DUP2 PUSH1 0xFF MUL NOT AND SWAP1 DUP4 ISZERO ISZERO MUL OR SWAP1 SSTORE POP CALLER DUP3 PUSH1 0x2 ADD PUSH1 0x0 DUP5 PUSH1 0x1 ADD SLOAD DUP2 MSTORE PUSH1 0x20 ADD SWAP1 DUP2 MSTORE PUSH1 0x20 ADD PUSH1 0x0 KECCAK256 PUSH1 0x0 PUSH2 0x100 EXP DUP2 SLOAD DUP2 PUSH20 0xFFFFFFFFFFFFFFFFFFFFFFFFFFFFFFFFFFFFFFFF MUL NOT AND SWAP1 DUP4 PUSH20 0xFFFFFFFFFFFFFFFFFFFFFFFFFFFFFFFFFFFFFFFF AND MUL OR SWAP1 SSTORE POP DUP2 PUSH1 0x7 ADD PUSH1 0x0 CALLER PUSH20 0xFFFFFFFFFFFFFFFFFFFFFFFFFFFFFFFFFFFFFFFF AND PUSH20 0xFFFFFFFFFFFFFFFFFFFFFFFFFFFFFFFFFFFFFFFF AND DUP2 MSTORE PUSH1 0x20 ADD SWAP1 DUP2 MSTORE PUSH1 0x20 ADD PUSH1 0x0 KECCAK256 DUP3 PUSH1 0x1 ADD SLOAD SWAP1 DUP1 PUSH1 0x1 DUP2 SLOAD ADD DUP1 DUP3 SSTORE DUP1 SWAP2 POP POP PUSH1 0x1 SWAP1 SUB SWAP1 PUSH1 0x0 MSTORE PUSH1 0x20 PUSH1 0x0 KECCAK256 ADD PUSH1 0x0 SWAP1 SWAP2 SWAP1 SWAP2 SWAP1 SWAP2 POP SSTORE DUP2 PUSH1 0x4 ADD PUSH1 0x0 CALLER PUSH20 0xFFFFFFFFFFFFFFFFFFFFFFFFFFFFFFFFFFFFFFFF AND PUSH20 0xFFFFFFFFFFFFFFFFFFFFFFFFFFFFFFFFFFFFFFFF AND DUP2 MSTORE PUSH1 0x20 ADD SWAP1 DUP2 MSTORE PUSH1 0x20 ADD PUSH1 0x0 KECCAK256 PUSH1 0x0 DUP2 SLOAD DUP1 SWAP3 SWAP2 SWAP1 PUSH2 0x1550 SWAP1 PUSH2 0x30D2 JUMP JUMPDEST SWAP2 SWAP1 POP SSTORE POP POP POP POP POP JUMP JUMPDEST PUSH1 0x0 DUP1 PUSH32 0x3CAB9A070A0C61CD0AE9D9E9E2C0781E5CA8691BEC4087E5A4701D5AC018DD4E SWAP1 POP DUP1 SWAP2 POP POP SWAP1 JUMP JUMPDEST PUSH2 0x1592 DUP4 DUP4 PUSH2 0x2076 JUMP JUMPDEST PUSH2 0x159F PUSH1 0x0 DUP5 DUP5 DUP5 PUSH2 0x22A5 JUMP JUMPDEST PUSH2 0x15DE JUMPI PUSH1 0x40 MLOAD PUSH32 0x8C379A000000000000000000000000000000000000000000000000000000000 DUP2 MSTORE PUSH1 0x4 ADD PUSH2 0x15D5 SWAP1 PUSH2 0x3539 JUMP JUMPDEST PUSH1 0x40 MLOAD DUP1 SWAP2 SUB SWAP1 REVERT JUMPDEST POP POP POP JUMP JUMPDEST PUSH1 0x0 PUSH2 0x15ED PUSH2 0x155B JUMP JUMPDEST SWAP1 POP DUP1 PUSH1 0x6 ADD DUP5 PUSH1 0x40 MLOAD PUSH2 0x1601 SWAP2 SWAP1 PUSH2 0x2DBB JUMP JUMPDEST SWAP1 DUP2 MSTORE PUSH1 0x20 ADD PUSH1 0x40 MLOAD DUP1 SWAP2 SUB SWAP1 KECCAK256 PUSH1 0x0 SWAP1 SLOAD SWAP1 PUSH2 0x100 EXP SWAP1 DIV PUSH1 0xFF AND ISZERO PUSH2 0x165D JUMPI PUSH1 0x40 MLOAD PUSH32 0x8C379A000000000000000000000000000000000000000000000000000000000 DUP2 MSTORE PUSH1 0x4 ADD PUSH2 0x1654 SWAP1 PUSH2 0x33CF JUMP JUMPDEST PUSH1 0x40 MLOAD DUP1 SWAP2 SUB SWAP1 REVERT JUMPDEST PUSH1 0x2 DUP3 GT ISZERO PUSH2 0x166B JUMPI PUSH1 0x0 DUP1 REVERT JUMPDEST PUSH1 0xA DUP5 MLOAD GT ISZERO PUSH2 0x167A JUMPI PUSH1 0x0 DUP1 REVERT JUMPDEST PUSH1 0x3 DUP5 MLOAD LT ISZERO PUSH2 0x1689 JUMPI PUSH1 0x0 DUP1 REVERT JUMPDEST DUP1 PUSH1 0x1 ADD PUSH1 0x0 DUP2 SLOAD DUP1 SWAP3 SWAP2 SWAP1 PUSH2 0x169E SWAP1 PUSH2 0x30D2 JUMP JUMPDEST SWAP2 SWAP1 POP SSTORE POP PUSH1 0x60 PUSH1 0x0 DUP4 SUB PUSH2 0x1927 JUMPI DUP4 PUSH2 0x16D3 JUMPI PUSH1 0x40 MLOAD DUP1 PUSH1 0x80 ADD PUSH1 0x40 MSTORE DUP1 PUSH1 0x43 DUP2 MSTORE PUSH1 0x20 ADD PUSH2 0x382B PUSH1 0x43 SWAP2 CODECOPY SWAP1 POP DUP1 PUSH2 0x16F0 JUMP JUMPDEST PUSH1 0x40 MLOAD DUP1 PUSH1 0x80 ADD PUSH1 0x40 MSTORE DUP1 PUSH1 0x43 DUP2 MSTORE PUSH1 0x20 ADD PUSH2 0x397A PUSH1 0x43 SWAP2 CODECOPY SWAP1 POP DUP1 JUMPDEST POP PUSH1 0x40 MLOAD DUP1 PUSH2 0x280 ADD PUSH1 0x40 MSTORE DUP1 PUSH1 0x1 DUP2 MSTORE PUSH1 0x20 ADD PUSH1 0x0 DUP2 MSTORE PUSH1 0x20 ADD PUSH1 0x0 DUP2 MSTORE PUSH1 0x20 ADD PUSH1 0xB DUP2 MSTORE PUSH1 0x20 ADD PUSH1 0xC DUP2 MSTORE PUSH1 0x20 ADD PUSH1 0xC DUP2 MSTORE PUSH1 0x20 ADD PUSH1 0xA DUP2 MSTORE PUSH1 0x20 ADD PUSH1 0xA DUP2 MSTORE PUSH1 0x20 ADD PUSH1 0xA DUP2 MSTORE PUSH1 0x20 ADD PUSH1 0xA DUP2 MSTORE PUSH1 0x20 ADD PUSH1 0x1 DUP2 MSTORE PUSH1 0x20 ADD PUSH1 0x1 DUP2 MSTORE PUSH1 0x20 ADD PUSH1 0x1 DUP2 MSTORE PUSH1 0x20 ADD PUSH1 0x1 DUP2 MSTORE PUSH1 0x20 ADD PUSH1 0xB DUP2 MSTORE PUSH1 0x20 ADD DUP7 DUP2 MSTORE PUSH1 0x20 ADD DUP3 DUP2 MSTORE PUSH1 0x20 ADD DUP6 ISZERO ISZERO DUP2 MSTORE PUSH1 0x20 ADD PUSH1 0x40 MLOAD DUP1 PUSH1 0xE0 ADD PUSH1 0x40 MSTORE DUP1 PUSH1 0x0 DUP2 MSTORE PUSH1 0x20 ADD PUSH1 0x0 DUP2 MSTORE PUSH1 0x20 ADD PUSH1 0x0 DUP2 MSTORE PUSH1 0x20 ADD PUSH1 0x0 DUP2 MSTORE PUSH1 0x20 ADD PUSH1 0x0 DUP2 MSTORE PUSH1 0x20 ADD PUSH1 0x0 DUP2 MSTORE PUSH1 0x20 ADD PUSH1 0x0 DUP2 MSTORE POP DUP2 MSTORE PUSH1 0x20 ADD DUP5 DUP2 MSTORE POP DUP3 PUSH1 0x3 ADD PUSH1 0x0 DUP5 PUSH1 0x1 ADD SLOAD DUP2 MSTORE PUSH1 0x20 ADD SWAP1 DUP2 MSTORE PUSH1 0x20 ADD PUSH1 0x0 KECCAK256 PUSH1 0x0 DUP3 ADD MLOAD DUP2 PUSH1 0x0 ADD SSTORE PUSH1 0x20 DUP3 ADD MLOAD DUP2 PUSH1 0x1 ADD SSTORE PUSH1 0x40 DUP3 ADD MLOAD DUP2 PUSH1 0x2 ADD SSTORE PUSH1 0x60 DUP3 ADD MLOAD DUP2 PUSH1 0x3 ADD SSTORE PUSH1 0x80 DUP3 ADD MLOAD DUP2 PUSH1 0x4 ADD SSTORE PUSH1 0xA0 DUP3 ADD MLOAD DUP2 PUSH1 0x5 ADD SSTORE PUSH1 0xC0 DUP3 ADD MLOAD DUP2 PUSH1 0x6 ADD SSTORE PUSH1 0xE0 DUP3 ADD MLOAD DUP2 PUSH1 0x7 ADD SSTORE PUSH2 0x100 DUP3 ADD MLOAD DUP2 PUSH1 0x8 ADD SSTORE PUSH2 0x120 DUP3 ADD MLOAD DUP2 PUSH1 0x9 ADD SSTORE PUSH2 0x140 DUP3 ADD MLOAD DUP2 PUSH1 0xA ADD SSTORE PUSH2 0x160 DUP3 ADD MLOAD DUP2 PUSH1 0xB ADD SSTORE PUSH2 0x180 DUP3 ADD MLOAD DUP2 PUSH1 0xC ADD SSTORE PUSH2 0x1A0 DUP3 ADD MLOAD DUP2 PUSH1 0xD ADD SSTORE PUSH2 0x1C0 DUP3 ADD MLOAD DUP2 PUSH1 0xE ADD SSTORE PUSH2 0x1E0 DUP3 ADD MLOAD DUP2 PUSH1 0xF ADD SWAP1 DUP2 PUSH2 0x1889 SWAP2 SWAP1 PUSH2 0x32B1 JUMP JUMPDEST POP PUSH2 0x200 DUP3 ADD MLOAD DUP2 PUSH1 0x10 ADD SWAP1 DUP2 PUSH2 0x18A0 SWAP2 SWAP1 PUSH2 0x32B1 JUMP JUMPDEST POP PUSH2 0x220 DUP3 ADD MLOAD DUP2 PUSH1 0x11 ADD PUSH1 0x0 PUSH2 0x100 EXP DUP2 SLOAD DUP2 PUSH1 0xFF MUL NOT AND SWAP1 DUP4 ISZERO ISZERO MUL OR SWAP1 SSTORE POP PUSH2 0x240 DUP3 ADD MLOAD DUP2 PUSH1 0x12 ADD PUSH1 0x0 DUP3 ADD MLOAD DUP2 PUSH1 0x0 ADD SSTORE PUSH1 0x20 DUP3 ADD MLOAD DUP2 PUSH1 0x1 ADD SSTORE PUSH1 0x40 DUP3 ADD MLOAD DUP2 PUSH1 0x2 ADD SSTORE PUSH1 0x60 DUP3 ADD MLOAD DUP2 PUSH1 0x3 ADD SSTORE PUSH1 0x80 DUP3 ADD MLOAD DUP2 PUSH1 0x4 ADD SSTORE PUSH1 0xA0 DUP3 ADD MLOAD DUP2 PUSH1 0x5 ADD SSTORE PUSH1 0xC0 DUP3 ADD MLOAD DUP2 PUSH1 0x6 ADD SSTORE POP POP PUSH2 0x260 DUP3 ADD MLOAD DUP2 PUSH1 0x19 ADD SSTORE SWAP1 POP POP PUSH2 0x1E29 JUMP JUMPDEST PUSH1 0x1 DUP4 SUB PUSH2 0x1BA9 JUMPI DUP4 PUSH2 0x1955 JUMPI PUSH1 0x40 MLOAD DUP1 PUSH1 0x80 ADD PUSH1 0x40 MSTORE DUP1 PUSH1 0x43 DUP2 MSTORE PUSH1 0x20 ADD PUSH2 0x38B1 PUSH1 0x43 SWAP2 CODECOPY SWAP1 POP DUP1 PUSH2 0x1972 JUMP JUMPDEST PUSH1 0x40 MLOAD DUP1 PUSH1 0x80 ADD PUSH1 0x40 MSTORE DUP1 PUSH1 0x43 DUP2 MSTORE PUSH1 0x20 ADD PUSH2 0x386E PUSH1 0x43 SWAP2 CODECOPY SWAP1 POP DUP1 JUMPDEST POP PUSH1 0x40 MLOAD DUP1 PUSH2 0x280 ADD PUSH1 0x40 MSTORE DUP1 PUSH1 0x1 DUP2 MSTORE PUSH1 0x20 ADD PUSH1 0x0 DUP2 MSTORE PUSH1 0x20 ADD PUSH1 0x0 DUP2 MSTORE PUSH1 0x20 ADD PUSH1 0xB DUP2 MSTORE PUSH1 0x20 ADD PUSH1 0xB DUP2 MSTORE PUSH1 0x20 ADD PUSH1 0xB DUP2 MSTORE PUSH1 0x20 ADD PUSH1 0xA DUP2 MSTORE PUSH1 0x20 ADD PUSH1 0xA DUP2 MSTORE PUSH1 0x20 ADD PUSH1 0xA DUP2 MSTORE PUSH1 0x20 ADD PUSH1 0xC DUP2 MSTORE PUSH1 0x20 ADD PUSH1 0x1 DUP2 MSTORE PUSH1 0x20 ADD PUSH1 0x1 DUP2 MSTORE PUSH1 0x20 ADD PUSH1 0x1 DUP2 MSTORE PUSH1 0x20 ADD PUSH1 0x1 DUP2 MSTORE PUSH1 0x20 ADD PUSH1 0xA DUP2 MSTORE PUSH1 0x20 ADD DUP7 DUP2 MSTORE PUSH1 0x20 ADD DUP3 DUP2 MSTORE PUSH1 0x20 ADD DUP6 ISZERO ISZERO DUP2 MSTORE PUSH1 0x20 ADD PUSH1 0x40 MLOAD DUP1 PUSH1 0xE0 ADD PUSH1 0x40 MSTORE DUP1 PUSH1 0x0 DUP2 MSTORE PUSH1 0x20 ADD PUSH1 0x0 DUP2 MSTORE PUSH1 0x20 ADD PUSH1 0x0 DUP2 MSTORE PUSH1 0x20 ADD PUSH1 0x0 DUP2 MSTORE PUSH1 0x20 ADD PUSH1 0x0 DUP2 MSTORE PUSH1 0x20 ADD PUSH1 0x0 DUP2 MSTORE PUSH1 0x20 ADD PUSH1 0x0 DUP2 MSTORE POP DUP2 MSTORE PUSH1 0x20 ADD DUP5 DUP2 MSTORE POP DUP3 PUSH1 0x3 ADD PUSH1 0x0 DUP5 PUSH1 0x1 ADD SLOAD DUP2 MSTORE PUSH1 0x20 ADD SWAP1 DUP2 MSTORE PUSH1 0x20 ADD PUSH1 0x0 KECCAK256 PUSH1 0x0 DUP3 ADD MLOAD DUP2 PUSH1 0x0 ADD SSTORE PUSH1 0x20 DUP3 ADD MLOAD DUP2 PUSH1 0x1 ADD SSTORE PUSH1 0x40 DUP3 ADD MLOAD DUP2 PUSH1 0x2 ADD SSTORE PUSH1 0x60 DUP3 ADD MLOAD DUP2 PUSH1 0x3 ADD SSTORE PUSH1 0x80 DUP3 ADD MLOAD DUP2 PUSH1 0x4 ADD SSTORE PUSH1 0xA0 DUP3 ADD MLOAD DUP2 PUSH1 0x5 ADD SSTORE PUSH1 0xC0 DUP3 ADD MLOAD DUP2 PUSH1 0x6 ADD SSTORE PUSH1 0xE0 DUP3 ADD MLOAD DUP2 PUSH1 0x7 ADD SSTORE PUSH2 0x100 DUP3 ADD MLOAD DUP2 PUSH1 0x8 ADD SSTORE PUSH2 0x120 DUP3 ADD MLOAD DUP2 PUSH1 0x9 ADD SSTORE PUSH2 0x140 DUP3 ADD MLOAD DUP2 PUSH1 0xA ADD SSTORE PUSH2 0x160 DUP3 ADD MLOAD DUP2 PUSH1 0xB ADD SSTORE PUSH2 0x180 DUP3 ADD MLOAD DUP2 PUSH1 0xC ADD SSTORE PUSH2 0x1A0 DUP3 ADD MLOAD DUP2 PUSH1 0xD ADD SSTORE PUSH2 0x1C0 DUP3 ADD MLOAD DUP2 PUSH1 0xE ADD SSTORE PUSH2 0x1E0 DUP3 ADD MLOAD DUP2 PUSH1 0xF ADD SWAP1 DUP2 PUSH2 0x1B0B SWAP2 SWAP1 PUSH2 0x32B1 JUMP JUMPDEST POP PUSH2 0x200 DUP3 ADD MLOAD DUP2 PUSH1 0x10 ADD SWAP1 DUP2 PUSH2 0x1B22 SWAP2 SWAP1 PUSH2 0x32B1 JUMP JUMPDEST POP PUSH2 0x220 DUP3 ADD MLOAD DUP2 PUSH1 0x11 ADD PUSH1 0x0 PUSH2 0x100 EXP DUP2 SLOAD DUP2 PUSH1 0xFF MUL NOT AND SWAP1 DUP4 ISZERO ISZERO MUL OR SWAP1 SSTORE POP PUSH2 0x240 DUP3 ADD MLOAD DUP2 PUSH1 0x12 ADD PUSH1 0x0 DUP3 ADD MLOAD DUP2 PUSH1 0x0 ADD SSTORE PUSH1 0x20 DUP3 ADD MLOAD DUP2 PUSH1 0x1 ADD SSTORE PUSH1 0x40 DUP3 ADD MLOAD DUP2 PUSH1 0x2 ADD SSTORE PUSH1 0x60 DUP3 ADD MLOAD DUP2 PUSH1 0x3 ADD SSTORE PUSH1 0x80 DUP3 ADD MLOAD DUP2 PUSH1 0x4 ADD SSTORE PUSH1 0xA0 DUP3 ADD MLOAD DUP2 PUSH1 0x5 ADD SSTORE PUSH1 0xC0 DUP3 ADD MLOAD DUP2 PUSH1 0x6 ADD SSTORE POP POP PUSH2 0x260 DUP3 ADD MLOAD DUP2 PUSH1 0x19 ADD SSTORE SWAP1 POP POP PUSH2 0x1E28 JUMP JUMPDEST PUSH1 0x2 DUP4 SUB PUSH2 0x1E27 JUMPI DUP4 PUSH2 0x1BD7 JUMPI PUSH1 0x40 MLOAD DUP1 PUSH1 0x80 ADD PUSH1 0x40 MSTORE DUP1 PUSH1 0x43 DUP2 MSTORE PUSH1 0x20 ADD PUSH2 0x37E8 PUSH1 0x43 SWAP2 CODECOPY SWAP1 POP DUP1 PUSH2 0x1BF4 JUMP JUMPDEST PUSH1 0x40 MLOAD DUP1 PUSH1 0x80 ADD PUSH1 0x40 MSTORE DUP1 PUSH1 0x43 DUP2 MSTORE PUSH1 0x20 ADD PUSH2 0x37A5 PUSH1 0x43 SWAP2 CODECOPY SWAP1 POP DUP1 JUMPDEST POP PUSH1 0x40 MLOAD DUP1 PUSH2 0x280 ADD PUSH1 0x40 MSTORE DUP1 PUSH1 0x1 DUP2 MSTORE PUSH1 0x20 ADD PUSH1 0x0 DUP2 MSTORE PUSH1 0x20 ADD PUSH1 0x0 DUP2 MSTORE PUSH1 0x20 ADD PUSH1 0xA DUP2 MSTORE PUSH1 0x20 ADD PUSH1 0xA DUP2 MSTORE PUSH1 0x20 ADD PUSH1 0xA DUP2 MSTORE PUSH1 0x20 ADD PUSH1 0xC DUP2 MSTORE PUSH1 0x20 ADD PUSH1 0xC DUP2 MSTORE PUSH1 0x20 ADD PUSH1 0xC DUP2 MSTORE PUSH1 0x20 ADD PUSH1 0xA DUP2 MSTORE PUSH1 0x20 ADD PUSH1 0x1 DUP2 MSTORE PUSH1 0x20 ADD PUSH1 0x1 DUP2 MSTORE PUSH1 0x20 ADD PUSH1 0x1 DUP2 MSTORE PUSH1 0x20 ADD PUSH1 0x1 DUP2 MSTORE PUSH1 0x20 ADD PUSH1 0xA DUP2 MSTORE PUSH1 0x20 ADD DUP7 DUP2 MSTORE PUSH1 0x20 ADD DUP3 DUP2 MSTORE PUSH1 0x20 ADD DUP6 ISZERO ISZERO DUP2 MSTORE PUSH1 0x20 ADD PUSH1 0x40 MLOAD DUP1 PUSH1 0xE0 ADD PUSH1 0x40 MSTORE DUP1 PUSH1 0x0 DUP2 MSTORE PUSH1 0x20 ADD PUSH1 0x0 DUP2 MSTORE PUSH1 0x20 ADD PUSH1 0x0 DUP2 MSTORE PUSH1 0x20 ADD PUSH1 0x0 DUP2 MSTORE PUSH1 0x20 ADD PUSH1 0x0 DUP2 MSTORE PUSH1 0x20 ADD PUSH1 0x0 DUP2 MSTORE PUSH1 0x20 ADD PUSH1 0x0 DUP2 MSTORE POP DUP2 MSTORE PUSH1 0x20 ADD DUP5 DUP2 MSTORE POP DUP3 PUSH1 0x3 ADD PUSH1 0x0 DUP5 PUSH1 0x1 ADD SLOAD DUP2 MSTORE PUSH1 0x20 ADD SWAP1 DUP2 MSTORE PUSH1 0x20 ADD PUSH1 0x0 KECCAK256 PUSH1 0x0 DUP3 ADD MLOAD DUP2 PUSH1 0x0 ADD SSTORE PUSH1 0x20 DUP3 ADD MLOAD DUP2 PUSH1 0x1 ADD SSTORE PUSH1 0x40 DUP3 ADD MLOAD DUP2 PUSH1 0x2 ADD SSTORE PUSH1 0x60 DUP3 ADD MLOAD DUP2 PUSH1 0x3 ADD SSTORE PUSH1 0x80 DUP3 ADD MLOAD DUP2 PUSH1 0x4 ADD SSTORE PUSH1 0xA0 DUP3 ADD MLOAD DUP2 PUSH1 0x5 ADD SSTORE PUSH1 0xC0 DUP3 ADD MLOAD DUP2 PUSH1 0x6 ADD SSTORE PUSH1 0xE0 DUP3 ADD MLOAD DUP2 PUSH1 0x7 ADD SSTORE PUSH2 0x100 DUP3 ADD MLOAD DUP2 PUSH1 0x8 ADD SSTORE PUSH2 0x120 DUP3 ADD MLOAD DUP2 PUSH1 0x9 ADD SSTORE PUSH2 0x140 DUP3 ADD MLOAD DUP2 PUSH1 0xA ADD SSTORE PUSH2 0x160 DUP3 ADD MLOAD DUP2 PUSH1 0xB ADD SSTORE PUSH2 0x180 DUP3 ADD MLOAD DUP2 PUSH1 0xC ADD SSTORE PUSH2 0x1A0 DUP3 ADD MLOAD DUP2 PUSH1 0xD ADD SSTORE PUSH2 0x1C0 DUP3 ADD MLOAD DUP2 PUSH1 0xE ADD SSTORE PUSH2 0x1E0 DUP3 ADD MLOAD DUP2 PUSH1 0xF ADD SWAP1 DUP2 PUSH2 0x1D8D SWAP2 SWAP1 PUSH2 0x32B1 JUMP JUMPDEST POP PUSH2 0x200 DUP3 ADD MLOAD DUP2 PUSH1 0x10 ADD SWAP1 DUP2 PUSH2 0x1DA4 SWAP2 SWAP1 PUSH2 0x32B1 JUMP JUMPDEST POP PUSH2 0x220 DUP3 ADD MLOAD DUP2 PUSH1 0x11 ADD PUSH1 0x0 PUSH2 0x100 EXP DUP2 SLOAD DUP2 PUSH1 0xFF MUL NOT AND SWAP1 DUP4 ISZERO ISZERO MUL OR SWAP1 SSTORE POP PUSH2 0x240 DUP3 ADD MLOAD DUP2 PUSH1 0x12 ADD PUSH1 0x0 DUP3 ADD MLOAD DUP2 PUSH1 0x0 ADD SSTORE PUSH1 0x20 DUP3 ADD MLOAD DUP2 PUSH1 0x1 ADD SSTORE PUSH1 0x40 DUP3 ADD MLOAD DUP2 PUSH1 0x2 ADD SSTORE PUSH1 0x60 DUP3 ADD MLOAD DUP2 PUSH1 0x3 ADD SSTORE PUSH1 0x80 DUP3 ADD MLOAD DUP2 PUSH1 0x4 ADD SSTORE PUSH1 0xA0 DUP3 ADD MLOAD DUP2 PUSH1 0x5 ADD SSTORE PUSH1 0xC0 DUP3 ADD MLOAD DUP2 PUSH1 0x6 ADD SSTORE POP POP PUSH2 0x260 DUP3 ADD MLOAD DUP2 PUSH1 0x19 ADD SSTORE SWAP1 POP POP JUMPDEST JUMPDEST JUMPDEST PUSH1 0x40 MLOAD DUP1 PUSH1 0xE0 ADD PUSH1 0x40 MSTORE DUP1 PUSH1 0x0 DUP2 MSTORE PUSH1 0x20 ADD PUSH1 0x0 DUP2 MSTORE PUSH1 0x20 ADD PUSH1 0x0 DUP2 MSTORE PUSH1 0x20 ADD PUSH1 0x0 DUP2 MSTORE PUSH1 0x20 ADD PUSH1 0x0 DUP2 MSTORE PUSH1 0x20 ADD PUSH1 0x0 DUP2 MSTORE PUSH1 0x20 ADD PUSH1 0x0 DUP2 MSTORE POP DUP3 PUSH1 0x8 ADD PUSH1 0x0 DUP5 PUSH1 0x1 ADD SLOAD DUP2 MSTORE PUSH1 0x20 ADD SWAP1 DUP2 MSTORE PUSH1 0x20 ADD PUSH1 0x0 KECCAK256 PUSH1 0x0 DUP3 ADD MLOAD DUP2 PUSH1 0x0 ADD SSTORE PUSH1 0x20 DUP3 ADD MLOAD DUP2 PUSH1 0x1 ADD SSTORE PUSH1 0x40 DUP3 ADD MLOAD DUP2 PUSH1 0x2 ADD SSTORE PUSH1 0x60 DUP3 ADD MLOAD DUP2 PUSH1 0x3 ADD SSTORE PUSH1 0x80 DUP3 ADD MLOAD DUP2 PUSH1 0x4 ADD SSTORE PUSH1 0xA0 DUP3 ADD MLOAD DUP2 PUSH1 0x5 ADD SSTORE PUSH1 0xC0 DUP3 ADD MLOAD DUP2 PUSH1 0x6 ADD SSTORE SWAP1 POP POP PUSH1 0x1 DUP3 PUSH1 0x6 ADD DUP7 PUSH1 0x40 MLOAD PUSH2 0x1ED9 SWAP2 SWAP1 PUSH2 0x2DBB JUMP JUMPDEST SWAP1 DUP2 MSTORE PUSH1 0x20 ADD PUSH1 0x40 MLOAD DUP1 SWAP2 SUB SWAP1 KECCAK256 PUSH1 0x0 PUSH2 0x100 EXP DUP2 SLOAD DUP2 PUSH1 0xFF MUL NOT AND SWAP1 DUP4 ISZERO ISZERO MUL OR SWAP1 SSTORE POP CALLER DUP3 PUSH1 0x2 ADD PUSH1 0x0 DUP5 PUSH1 0x1 ADD SLOAD DUP2 MSTORE PUSH1 0x20 ADD SWAP1 DUP2 MSTORE PUSH1 0x20 ADD PUSH1 0x0 KECCAK256 PUSH1 0x0 PUSH2 0x100 EXP DUP2 SLOAD DUP2 PUSH20 0xFFFFFFFFFFFFFFFFFFFFFFFFFFFFFFFFFFFFFFFF MUL NOT AND SWAP1 DUP4 PUSH20 0xFFFFFFFFFFFFFFFFFFFFFFFFFFFFFFFFFFFFFFFF AND MUL OR SWAP1 SSTORE POP DUP2 PUSH1 0x7 ADD PUSH1 0x0 CALLER PUSH20 0xFFFFFFFFFFFFFFFFFFFFFFFFFFFFFFFFFFFFFFFF AND PUSH20 0xFFFFFFFFFFFFFFFFFFFFFFFFFFFFFFFFFFFFFFFF AND DUP2 MSTORE PUSH1 0x20 ADD SWAP1 DUP2 MSTORE PUSH1 0x20 ADD PUSH1 0x0 KECCAK256 DUP3 PUSH1 0x1 ADD SLOAD SWAP1 DUP1 PUSH1 0x1 DUP2 SLOAD ADD DUP1 DUP3 SSTORE DUP1 SWAP2 POP POP PUSH1 0x1 SWAP1 SUB SWAP1 PUSH1 0x0 MSTORE PUSH1 0x20 PUSH1 0x0 KECCAK256 ADD PUSH1 0x0 SWAP1 SWAP2 SWAP1 SWAP2 SWAP1 SWAP2 POP SSTORE DUP2 PUSH1 0x4 ADD PUSH1 0x0 CALLER PUSH20 0xFFFFFFFFFFFFFFFFFFFFFFFFFFFFFFFFFFFFFFFF AND PUSH20 0xFFFFFFFFFFFFFFFFFFFFFFFFFFFFFFFFFFFFFFFF AND DUP2 MSTORE PUSH1 0x20 ADD SWAP1 DUP2 MSTORE PUSH1 0x20 ADD PUSH1 0x0 KECCAK256 PUSH1 0x0 DUP2 SLOAD DUP1 SWAP3 SWAP2 SWAP1 PUSH2 0x2014 SWAP1 PUSH2 0x30D2 JUMP JUMPDEST SWAP2 SWAP1 POP SSTORE POP POP POP POP POP POP JUMP JUMPDEST PUSH1 0x0 DUP1 DUP3 SWAP1 POP PUSH1 0x0 JUMPDEST DUP5 MLOAD DUP2 LT ISZERO PUSH2 0x206B JUMPI PUSH2 0x2056 DUP3 DUP7 DUP4 DUP2 MLOAD DUP2 LT PUSH2 0x2049 JUMPI PUSH2 0x2048 PUSH2 0x3559 JUMP JUMPDEST JUMPDEST PUSH1 0x20 MUL PUSH1 0x20 ADD ADD MLOAD PUSH2 0x242C JUMP JUMPDEST SWAP2 POP DUP1 DUP1 PUSH2 0x2063 SWAP1 PUSH2 0x30D2 JUMP JUMPDEST SWAP2 POP POP PUSH2 0x2029 JUMP JUMPDEST POP DUP1 SWAP2 POP POP SWAP3 SWAP2 POP POP JUMP JUMPDEST PUSH1 0x0 PUSH20 0xFFFFFFFFFFFFFFFFFFFFFFFFFFFFFFFFFFFFFFFF AND DUP3 PUSH20 0xFFFFFFFFFFFFFFFFFFFFFFFFFFFFFFFFFFFFFFFF AND SUB PUSH2 0x20E5 JUMPI PUSH1 0x40 MLOAD PUSH32 0x8C379A000000000000000000000000000000000000000000000000000000000 DUP2 MSTORE PUSH1 0x4 ADD PUSH2 0x20DC SWAP1 PUSH2 0x35D4 JUMP JUMPDEST PUSH1 0x40 MLOAD DUP1 SWAP2 SUB SWAP1 REVERT JUMPDEST PUSH2 0x20EE DUP2 PUSH2 0x2457 JUMP JUMPDEST ISZERO PUSH2 0x212E JUMPI PUSH1 0x40 MLOAD PUSH32 0x8C379A000000000000000000000000000000000000000000000000000000000 DUP2 MSTORE PUSH1 0x4 ADD PUSH2 0x2125 SWAP1 PUSH2 0x3640 JUMP JUMPDEST PUSH1 0x40 MLOAD DUP1 SWAP2 SUB SWAP1 REVERT JUMPDEST PUSH2 0x213C PUSH1 0x0 DUP4 DUP4 PUSH1 0x1 PUSH2 0x2498 JUMP JUMPDEST PUSH2 0x2145 DUP2 PUSH2 0x2457 JUMP JUMPDEST ISZERO PUSH2 0x2185 JUMPI PUSH1 0x40 MLOAD PUSH32 0x8C379A000000000000000000000000000000000000000000000000000000000 DUP2 MSTORE PUSH1 0x4 ADD PUSH2 0x217C SWAP1 PUSH2 0x3640 JUMP JUMPDEST PUSH1 0x40 MLOAD DUP1 SWAP2 SUB SWAP1 REVERT JUMPDEST PUSH1 0x1 PUSH2 0x218F PUSH2 0x249E JUMP JUMPDEST PUSH1 0xA ADD PUSH1 0x0 DUP5 PUSH20 0xFFFFFFFFFFFFFFFFFFFFFFFFFFFFFFFFFFFFFFFF AND PUSH20 0xFFFFFFFFFFFFFFFFFFFFFFFFFFFFFFFFFFFFFFFF AND DUP2 MSTORE PUSH1 0x20 ADD SWAP1 DUP2 MSTORE PUSH1 0x20 ADD PUSH1 0x0 KECCAK256 PUSH1 0x0 DUP3 DUP3 SLOAD ADD SWAP3 POP POP DUP2 SWAP1 SSTORE POP DUP2 PUSH2 0x21E5 PUSH2 0x249E JUMP JUMPDEST PUSH1 0x9 ADD PUSH1 0x0 DUP4 DUP2 MSTORE PUSH1 0x20 ADD SWAP1 DUP2 MSTORE PUSH1 0x20 ADD PUSH1 0x0 KECCAK256 PUSH1 0x0 PUSH2 0x100 EXP DUP2 SLOAD DUP2 PUSH20 0xFFFFFFFFFFFFFFFFFFFFFFFFFFFFFFFFFFFFFFFF MUL NOT AND SWAP1 DUP4 PUSH20 0xFFFFFFFFFFFFFFFFFFFFFFFFFFFFFFFFFFFFFFFF AND MUL OR SWAP1 SSTORE POP DUP1 DUP3 PUSH20 0xFFFFFFFFFFFFFFFFFFFFFFFFFFFFFFFFFFFFFFFF AND PUSH1 0x0 PUSH20 0xFFFFFFFFFFFFFFFFFFFFFFFFFFFFFFFFFFFFFFFF AND PUSH32 0xDDF252AD1BE2C89B69C2B068FC378DAA952BA7F163C4A11628F55A4DF523B3EF PUSH1 0x40 MLOAD PUSH1 0x40 MLOAD DUP1 SWAP2 SUB SWAP1 LOG4 PUSH2 0x22A1 PUSH1 0x0 DUP4 DUP4 PUSH1 0x1 PUSH2 0x24CB JUMP JUMPDEST POP POP JUMP JUMPDEST PUSH1 0x0 PUSH2 0x22C6 DUP5 PUSH20 0xFFFFFFFFFFFFFFFFFFFFFFFFFFFFFFFFFFFFFFFF AND PUSH2 0x24D1 JUMP JUMPDEST ISZERO PUSH2 0x241F JUMPI DUP4 PUSH20 0xFFFFFFFFFFFFFFFFFFFFFFFFFFFFFFFFFFFFFFFF AND PUSH4 0x150B7A02 PUSH2 0x22EF PUSH2 0x24F4 JUMP JUMPDEST DUP8 DUP7 DUP7 PUSH1 0x40 MLOAD DUP6 PUSH4 0xFFFFFFFF AND PUSH1 0xE0 SHL DUP2 MSTORE PUSH1 0x4 ADD PUSH2 0x2311 SWAP5 SWAP4 SWAP3 SWAP2 SWAP1 PUSH2 0x36D3 JUMP JUMPDEST PUSH1 0x20 PUSH1 0x40 MLOAD DUP1 DUP4 SUB DUP2 PUSH1 0x0 DUP8 GAS CALL SWAP3 POP POP POP DUP1 ISZERO PUSH2 0x234D JUMPI POP PUSH1 0x40 MLOAD RETURNDATASIZE PUSH1 0x1F NOT PUSH1 0x1F DUP3 ADD AND DUP3 ADD DUP1 PUSH1 0x40 MSTORE POP DUP2 ADD SWAP1 PUSH2 0x234A SWAP2 SWAP1 PUSH2 0x3777 JUMP JUMPDEST PUSH1 0x1 JUMPDEST PUSH2 0x23CF JUMPI RETURNDATASIZE DUP1 PUSH1 0x0 DUP2 EQ PUSH2 0x237D JUMPI PUSH1 0x40 MLOAD SWAP2 POP PUSH1 0x1F NOT PUSH1 0x3F RETURNDATASIZE ADD AND DUP3 ADD PUSH1 0x40 MSTORE RETURNDATASIZE DUP3 MSTORE RETURNDATASIZE PUSH1 0x0 PUSH1 0x20 DUP5 ADD RETURNDATACOPY PUSH2 0x2382 JUMP JUMPDEST PUSH1 0x60 SWAP2 POP JUMPDEST POP PUSH1 0x0 DUP2 MLOAD SUB PUSH2 0x23C7 JUMPI PUSH1 0x40 MLOAD PUSH32 0x8C379A000000000000000000000000000000000000000000000000000000000 DUP2 MSTORE PUSH1 0x4 ADD PUSH2 0x23BE SWAP1 PUSH2 0x3539 JUMP JUMPDEST PUSH1 0x40 MLOAD DUP1 SWAP2 SUB SWAP1 REVERT JUMPDEST DUP1 MLOAD DUP2 PUSH1 0x20 ADD REVERT JUMPDEST PUSH4 0x150B7A02 PUSH1 0xE0 SHL PUSH28 0xFFFFFFFFFFFFFFFFFFFFFFFFFFFFFFFFFFFFFFFFFFFFFFFFFFFFFFFF NOT AND DUP2 PUSH28 0xFFFFFFFFFFFFFFFFFFFFFFFFFFFFFFFFFFFFFFFFFFFFFFFFFFFFFFFF NOT AND EQ SWAP2 POP POP PUSH2 0x2424 JUMP JUMPDEST PUSH1 0x1 SWAP1 POP JUMPDEST SWAP5 SWAP4 POP POP POP POP JUMP JUMPDEST PUSH1 0x0 DUP2 DUP4 LT PUSH2 0x2444 JUMPI PUSH2 0x243F DUP3 DUP5 PUSH2 0x24FC JUMP JUMPDEST PUSH2 0x244F JUMP JUMPDEST PUSH2 0x244E DUP4 DUP4 PUSH2 0x24FC JUMP JUMPDEST JUMPDEST SWAP1 POP SWAP3 SWAP2 POP POP JUMP JUMPDEST PUSH1 0x0 DUP1 PUSH20 0xFFFFFFFFFFFFFFFFFFFFFFFFFFFFFFFFFFFFFFFF AND PUSH2 0x2479 DUP4 PUSH2 0x2513 JUMP JUMPDEST PUSH20 0xFFFFFFFFFFFFFFFFFFFFFFFFFFFFFFFFFFFFFFFF AND EQ ISZERO SWAP1 POP SWAP2 SWAP1 POP JUMP JUMPDEST POP POP POP POP JUMP JUMPDEST PUSH1 0x0 DUP1 PUSH32 0x2569078DFB4B0305704D3008E7403993AE9601B85F7AE5E742DE3DE8F8011C40 SWAP1 POP DUP1 SWAP2 POP POP SWAP1 JUMP JUMPDEST POP POP POP POP JUMP JUMPDEST PUSH1 0x0 DUP1 DUP3 PUSH20 0xFFFFFFFFFFFFFFFFFFFFFFFFFFFFFFFFFFFFFFFF AND EXTCODESIZE GT SWAP1 POP SWAP2 SWAP1 POP JUMP JUMPDEST PUSH1 0x0 CALLER SWAP1 POP SWAP1 JUMP JUMPDEST PUSH1 0x0 DUP3 PUSH1 0x0 MSTORE DUP2 PUSH1 0x20 MSTORE PUSH1 0x40 PUSH1 0x0 KECCAK256 SWAP1 POP SWAP3 SWAP2 POP POP JUMP JUMPDEST PUSH1 0x0 PUSH2 0x251D PUSH2 0x249E JUMP JUMPDEST PUSH1 0x9 ADD PUSH1 0x0 DUP4 DUP2 MSTORE PUSH1 0x20 ADD SWAP1 DUP2 MSTORE PUSH1 0x20 ADD PUSH1 0x0 KECCAK256 PUSH1 0x0 SWAP1 SLOAD SWAP1 PUSH2 0x100 EXP SWAP1 DIV PUSH20 0xFFFFFFFFFFFFFFFFFFFFFFFFFFFFFFFFFFFFFFFF AND SWAP1 POP SWAP2 SWAP1 POP JUMP JUMPDEST PUSH1 0x40 MLOAD DUP1 PUSH1 0x80 ADD PUSH1 0x40 MSTORE DUP1 PUSH1 0x0 DUP2 MSTORE PUSH1 0x20 ADD PUSH1 0x0 DUP2 MSTORE PUSH1 0x20 ADD PUSH1 0x0 DUP1 NOT AND DUP2 MSTORE PUSH1 0x20 ADD PUSH1 0x60 DUP2 MSTORE POP SWAP1 JUMP JUMPDEST PUSH1 0x0 PUSH1 0x40 MLOAD SWAP1 POP SWAP1 JUMP JUMPDEST PUSH1 0x0 DUP1 REVERT JUMPDEST PUSH1 0x0 DUP1 REVERT JUMPDEST PUSH1 0x0 DUP2 SWAP1 POP SWAP2 SWAP1 POP JUMP JUMPDEST PUSH2 0x25AB DUP2 PUSH2 0x2598 JUMP JUMPDEST DUP2 EQ PUSH2 0x25B6 JUMPI PUSH1 0x0 DUP1 REVERT JUMPDEST POP JUMP JUMPDEST PUSH1 0x0 DUP2 CALLDATALOAD SWAP1 POP PUSH2 0x25C8 DUP2 PUSH2 0x25A2 JUMP JUMPDEST SWAP3 SWAP2 POP POP JUMP JUMPDEST PUSH1 0x0 DUP1 REVERT JUMPDEST PUSH1 0x0 DUP1 REVERT JUMPDEST PUSH1 0x0 DUP1 REVERT JUMPDEST PUSH1 0x0 DUP1 DUP4 PUSH1 0x1F DUP5 ADD SLT PUSH2 0x25F3 JUMPI PUSH2 0x25F2 PUSH2 0x25CE JUMP JUMPDEST JUMPDEST DUP3 CALLDATALOAD SWAP1 POP PUSH8 0xFFFFFFFFFFFFFFFF DUP2 GT ISZERO PUSH2 0x2610 JUMPI PUSH2 0x260F PUSH2 0x25D3 JUMP JUMPDEST JUMPDEST PUSH1 0x20 DUP4 ADD SWAP2 POP DUP4 PUSH1 0x20 DUP3 MUL DUP4 ADD GT ISZERO PUSH2 0x262C JUMPI PUSH2 0x262B PUSH2 0x25D8 JUMP JUMPDEST JUMPDEST SWAP3 POP SWAP3 SWAP1 POP JUMP JUMPDEST PUSH1 0x0 DUP1 REVERT JUMPDEST PUSH1 0x0 PUSH1 0x1F NOT PUSH1 0x1F DUP4 ADD AND SWAP1 POP SWAP2 SWAP1 POP JUMP JUMPDEST PUSH32 0x4E487B7100000000000000000000000000000000000000000000000000000000 PUSH1 0x0 MSTORE PUSH1 0x41 PUSH1 0x4 MSTORE PUSH1 0x24 PUSH1 0x0 REVERT JUMPDEST PUSH2 0x2681 DUP3 PUSH2 0x2638 JUMP JUMPDEST DUP2 ADD DUP2 DUP2 LT PUSH8 0xFFFFFFFFFFFFFFFF DUP3 GT OR ISZERO PUSH2 0x26A0 JUMPI PUSH2 0x269F PUSH2 0x2649 JUMP JUMPDEST JUMPDEST DUP1 PUSH1 0x40 MSTORE POP POP POP JUMP JUMPDEST PUSH1 0x0 PUSH2 0x26B3 PUSH2 0x2584 JUMP JUMPDEST SWAP1 POP PUSH2 0x26BF DUP3 DUP3 PUSH2 0x2678 JUMP JUMPDEST SWAP2 SWAP1 POP JUMP JUMPDEST PUSH1 0x0 PUSH8 0xFFFFFFFFFFFFFFFF DUP3 GT ISZERO PUSH2 0x26DF JUMPI PUSH2 0x26DE PUSH2 0x2649 JUMP JUMPDEST JUMPDEST PUSH2 0x26E8 DUP3 PUSH2 0x2638 JUMP JUMPDEST SWAP1 POP PUSH1 0x20 DUP2 ADD SWAP1 POP SWAP2 SWAP1 POP JUMP JUMPDEST DUP3 DUP2 DUP4 CALLDATACOPY PUSH1 0x0 DUP4 DUP4 ADD MSTORE POP POP POP JUMP JUMPDEST PUSH1 0x0 PUSH2 0x2717 PUSH2 0x2712 DUP5 PUSH2 0x26C4 JUMP JUMPDEST PUSH2 0x26A9 JUMP JUMPDEST SWAP1 POP DUP3 DUP2 MSTORE PUSH1 0x20 DUP2 ADD DUP5 DUP5 DUP5 ADD GT ISZERO PUSH2 0x2733 JUMPI PUSH2 0x2732 PUSH2 0x2633 JUMP JUMPDEST JUMPDEST PUSH2 0x273E DUP5 DUP3 DUP6 PUSH2 0x26F5 JUMP JUMPDEST POP SWAP4 SWAP3 POP POP POP JUMP JUMPDEST PUSH1 0x0 DUP3 PUSH1 0x1F DUP4 ADD SLT PUSH2 0x275B JUMPI PUSH2 0x275A PUSH2 0x25CE JUMP JUMPDEST JUMPDEST DUP2 CALLDATALOAD PUSH2 0x276B DUP5 DUP3 PUSH1 0x20 DUP7 ADD PUSH2 0x2704 JUMP JUMPDEST SWAP2 POP POP SWAP3 SWAP2 POP POP JUMP JUMPDEST PUSH1 0x0 DUP2 ISZERO ISZERO SWAP1 POP SWAP2 SWAP1 POP JUMP JUMPDEST PUSH2 0x2789 DUP2 PUSH2 0x2774 JUMP JUMPDEST DUP2 EQ PUSH2 0x2794 JUMPI PUSH1 0x0 DUP1 REVERT JUMPDEST POP JUMP JUMPDEST PUSH1 0x0 DUP2 CALLDATALOAD SWAP1 POP PUSH2 0x27A6 DUP2 PUSH2 0x2780 JUMP JUMPDEST SWAP3 SWAP2 POP POP JUMP JUMPDEST PUSH1 0x0 DUP1 PUSH1 0x0 DUP1 PUSH1 0x0 PUSH1 0x80 DUP7 DUP9 SUB SLT ISZERO PUSH2 0x27C8 JUMPI PUSH2 0x27C7 PUSH2 0x258E JUMP JUMPDEST JUMPDEST PUSH1 0x0 PUSH2 0x27D6 DUP9 DUP3 DUP10 ADD PUSH2 0x25B9 JUMP JUMPDEST SWAP6 POP POP PUSH1 0x20 DUP7 ADD CALLDATALOAD PUSH8 0xFFFFFFFFFFFFFFFF DUP2 GT ISZERO PUSH2 0x27F7 JUMPI PUSH2 0x27F6 PUSH2 0x2593 JUMP JUMPDEST JUMPDEST PUSH2 0x2803 DUP9 DUP3 DUP10 ADD PUSH2 0x25DD JUMP JUMPDEST SWAP5 POP SWAP5 POP POP PUSH1 0x40 DUP7 ADD CALLDATALOAD PUSH8 0xFFFFFFFFFFFFFFFF DUP2 GT ISZERO PUSH2 0x2826 JUMPI PUSH2 0x2825 PUSH2 0x2593 JUMP JUMPDEST JUMPDEST PUSH2 0x2832 DUP9 DUP3 DUP10 ADD PUSH2 0x2746 JUMP JUMPDEST SWAP3 POP POP PUSH1 0x60 PUSH2 0x2843 DUP9 DUP3 DUP10 ADD PUSH2 0x2797 JUMP JUMPDEST SWAP2 POP POP SWAP3 SWAP6 POP SWAP3 SWAP6 SWAP1 SWAP4 POP JUMP JUMPDEST PUSH1 0x0 PUSH1 0x20 DUP3 DUP5 SUB SLT ISZERO PUSH2 0x2866 JUMPI PUSH2 0x2865 PUSH2 0x258E JUMP JUMPDEST JUMPDEST PUSH1 0x0 PUSH2 0x2874 DUP5 DUP3 DUP6 ADD PUSH2 0x25B9 JUMP JUMPDEST SWAP2 POP POP SWAP3 SWAP2 POP POP JUMP JUMPDEST PUSH2 0x2886 DUP2 PUSH2 0x2598 JUMP JUMPDEST DUP3 MSTORE POP POP JUMP JUMPDEST PUSH1 0x0 DUP2 SWAP1 POP SWAP2 SWAP1 POP JUMP JUMPDEST PUSH2 0x289F DUP2 PUSH2 0x288C JUMP JUMPDEST DUP3 MSTORE POP POP JUMP JUMPDEST PUSH1 0x0 DUP2 MLOAD SWAP1 POP SWAP2 SWAP1 POP JUMP JUMPDEST PUSH1 0x0 DUP3 DUP3 MSTORE PUSH1 0x20 DUP3 ADD SWAP1 POP SWAP3 SWAP2 POP POP JUMP JUMPDEST PUSH1 0x0 JUMPDEST DUP4 DUP2 LT ISZERO PUSH2 0x28DF JUMPI DUP1 DUP3 ADD MLOAD DUP2 DUP5 ADD MSTORE PUSH1 0x20 DUP2 ADD SWAP1 POP PUSH2 0x28C4 JUMP JUMPDEST PUSH1 0x0 DUP5 DUP5 ADD MSTORE POP POP POP POP JUMP JUMPDEST PUSH1 0x0 PUSH2 0x28F6 DUP3 PUSH2 0x28A5 JUMP JUMPDEST PUSH2 0x2900 DUP2 DUP6 PUSH2 0x28B0 JUMP JUMPDEST SWAP4 POP PUSH2 0x2910 DUP2 DUP6 PUSH1 0x20 DUP7 ADD PUSH2 0x28C1 JUMP JUMPDEST PUSH2 0x2919 DUP2 PUSH2 0x2638 JUMP JUMPDEST DUP5 ADD SWAP2 POP POP SWAP3 SWAP2 POP POP JUMP JUMPDEST PUSH1 0x0 PUSH1 0x80 DUP4 ADD PUSH1 0x0 DUP4 ADD MLOAD PUSH2 0x293C PUSH1 0x0 DUP7 ADD DUP3 PUSH2 0x287D JUMP JUMPDEST POP PUSH1 0x20 DUP4 ADD MLOAD PUSH2 0x294F PUSH1 0x20 DUP7 ADD DUP3 PUSH2 0x287D JUMP JUMPDEST POP PUSH1 0x40 DUP4 ADD MLOAD PUSH2 0x2962 PUSH1 0x40 DUP7 ADD DUP3 PUSH2 0x2896 JUMP JUMPDEST POP PUSH1 0x60 DUP4 ADD MLOAD DUP5 DUP3 SUB PUSH1 0x60 DUP7 ADD MSTORE PUSH2 0x297A DUP3 DUP3 PUSH2 0x28EB JUMP JUMPDEST SWAP2 POP POP DUP1 SWAP2 POP POP SWAP3 SWAP2 POP POP JUMP JUMPDEST PUSH1 0x0 PUSH1 0x20 DUP3 ADD SWAP1 POP DUP2 DUP2 SUB PUSH1 0x0 DUP4 ADD MSTORE PUSH2 0x29A1 DUP2 DUP5 PUSH2 0x2924 JUMP JUMPDEST SWAP1 POP SWAP3 SWAP2 POP POP JUMP JUMPDEST PUSH2 0x29B2 DUP2 PUSH2 0x288C JUMP JUMPDEST DUP2 EQ PUSH2 0x29BD JUMPI PUSH1 0x0 DUP1 REVERT JUMPDEST POP JUMP JUMPDEST PUSH1 0x0 DUP2 CALLDATALOAD SWAP1 POP PUSH2 0x29CF DUP2 PUSH2 0x29A9 JUMP JUMPDEST SWAP3 SWAP2 POP POP JUMP JUMPDEST PUSH1 0x0 DUP1 PUSH1 0x0 PUSH1 0x60 DUP5 DUP7 SUB SLT ISZERO PUSH2 0x29EE JUMPI PUSH2 0x29ED PUSH2 0x258E JUMP JUMPDEST JUMPDEST PUSH1 0x0 PUSH2 0x29FC DUP7 DUP3 DUP8 ADD PUSH2 0x29C0 JUMP JUMPDEST SWAP4 POP POP PUSH1 0x20 DUP5 ADD CALLDATALOAD PUSH8 0xFFFFFFFFFFFFFFFF DUP2 GT ISZERO PUSH2 0x2A1D JUMPI PUSH2 0x2A1C PUSH2 0x2593 JUMP JUMPDEST JUMPDEST PUSH2 0x2A29 DUP7 DUP3 DUP8 ADD PUSH2 0x2746 JUMP JUMPDEST SWAP3 POP POP PUSH1 0x40 PUSH2 0x2A3A DUP7 DUP3 DUP8 ADD PUSH2 0x25B9 JUMP JUMPDEST SWAP2 POP POP SWAP3 POP SWAP3 POP SWAP3 JUMP JUMPDEST PUSH1 0x0 PUSH20 0xFFFFFFFFFFFFFFFFFFFFFFFFFFFFFFFFFFFFFFFF DUP3 AND SWAP1 POP SWAP2 SWAP1 POP JUMP JUMPDEST PUSH1 0x0 PUSH2 0x2A6F DUP3 PUSH2 0x2A44 JUMP JUMPDEST SWAP1 POP SWAP2 SWAP1 POP JUMP JUMPDEST PUSH2 0x2A7F DUP2 PUSH2 0x2A64 JUMP JUMPDEST DUP2 EQ PUSH2 0x2A8A JUMPI PUSH1 0x0 DUP1 REVERT JUMPDEST POP JUMP JUMPDEST PUSH1 0x0 DUP2 CALLDATALOAD SWAP1 POP PUSH2 0x2A9C DUP2 PUSH2 0x2A76 JUMP JUMPDEST SWAP3 SWAP2 POP POP JUMP JUMPDEST PUSH1 0x0 DUP1 PUSH1 0x40 DUP4 DUP6 SUB SLT ISZERO PUSH2 0x2AB9 JUMPI PUSH2 0x2AB8 PUSH2 0x258E JUMP JUMPDEST JUMPDEST PUSH1 0x0 PUSH2 0x2AC7 DUP6 DUP3 DUP7 ADD PUSH2 0x25B9 JUMP JUMPDEST SWAP3 POP POP PUSH1 0x20 PUSH2 0x2AD8 DUP6 DUP3 DUP7 ADD PUSH2 0x2A8D JUMP JUMPDEST SWAP2 POP POP SWAP3 POP SWAP3 SWAP1 POP JUMP JUMPDEST PUSH2 0x2AEB DUP2 PUSH2 0x2774 JUMP JUMPDEST DUP3 MSTORE POP POP JUMP JUMPDEST PUSH1 0x0 PUSH1 0x20 DUP3 ADD SWAP1 POP PUSH2 0x2B06 PUSH1 0x0 DUP4 ADD DUP5 PUSH2 0x2AE2 JUMP JUMPDEST SWAP3 SWAP2 POP POP JUMP JUMPDEST PUSH1 0x0 DUP1 PUSH1 0x40 DUP4 DUP6 SUB SLT ISZERO PUSH2 0x2B23 JUMPI PUSH2 0x2B22 PUSH2 0x258E JUMP JUMPDEST JUMPDEST PUSH1 0x0 PUSH2 0x2B31 DUP6 DUP3 DUP7 ADD PUSH2 0x25B9 JUMP JUMPDEST SWAP3 POP POP PUSH1 0x20 DUP4 ADD CALLDATALOAD PUSH8 0xFFFFFFFFFFFFFFFF DUP2 GT ISZERO PUSH2 0x2B52 JUMPI PUSH2 0x2B51 PUSH2 0x2593 JUMP JUMPDEST JUMPDEST PUSH2 0x2B5E DUP6 DUP3 DUP7 ADD PUSH2 0x2746 JUMP JUMPDEST SWAP2 POP POP SWAP3 POP SWAP3 SWAP1 POP JUMP JUMPDEST PUSH1 0x0 DUP1 PUSH1 0x0 DUP1 PUSH1 0x0 DUP1 PUSH1 0xA0 DUP8 DUP10 SUB SLT ISZERO PUSH2 0x2B85 JUMPI PUSH2 0x2B84 PUSH2 0x258E JUMP JUMPDEST JUMPDEST PUSH1 0x0 PUSH2 0x2B93 DUP10 DUP3 DUP11 ADD PUSH2 0x25B9 JUMP JUMPDEST SWAP7 POP POP PUSH1 0x20 DUP8 ADD CALLDATALOAD PUSH8 0xFFFFFFFFFFFFFFFF DUP2 GT ISZERO PUSH2 0x2BB4 JUMPI PUSH2 0x2BB3 PUSH2 0x2593 JUMP JUMPDEST JUMPDEST PUSH2 0x2BC0 DUP10 DUP3 DUP11 ADD PUSH2 0x25DD JUMP JUMPDEST SWAP6 POP SWAP6 POP POP PUSH1 0x40 DUP8 ADD CALLDATALOAD PUSH8 0xFFFFFFFFFFFFFFFF DUP2 GT ISZERO PUSH2 0x2BE3 JUMPI PUSH2 0x2BE2 PUSH2 0x2593 JUMP JUMPDEST JUMPDEST PUSH2 0x2BEF DUP10 DUP3 DUP11 ADD PUSH2 0x2746 JUMP JUMPDEST SWAP4 POP POP PUSH1 0x60 PUSH2 0x2C00 DUP10 DUP3 DUP11 ADD PUSH2 0x2797 JUMP JUMPDEST SWAP3 POP POP PUSH1 0x80 PUSH2 0x2C11 DUP10 DUP3 DUP11 ADD PUSH2 0x25B9 JUMP JUMPDEST SWAP2 POP POP SWAP3 SWAP6 POP SWAP3 SWAP6 POP SWAP3 SWAP6 JUMP JUMPDEST PUSH1 0x0 DUP1 PUSH1 0x0 DUP1 PUSH1 0x60 DUP6 DUP8 SUB SLT ISZERO PUSH2 0x2C38 JUMPI PUSH2 0x2C37 PUSH2 0x258E JUMP JUMPDEST JUMPDEST PUSH1 0x0 DUP6 ADD CALLDATALOAD PUSH8 0xFFFFFFFFFFFFFFFF DUP2 GT ISZERO PUSH2 0x2C56 JUMPI PUSH2 0x2C55 PUSH2 0x2593 JUMP JUMPDEST JUMPDEST PUSH2 0x2C62 DUP8 DUP3 DUP9 ADD PUSH2 0x25DD JUMP JUMPDEST SWAP5 POP SWAP5 POP POP PUSH1 0x20 PUSH2 0x2C75 DUP8 DUP3 DUP9 ADD PUSH2 0x25B9 JUMP JUMPDEST SWAP3 POP POP PUSH1 0x40 PUSH2 0x2C86 DUP8 DUP3 DUP9 ADD PUSH2 0x2A8D JUMP JUMPDEST SWAP2 POP POP SWAP3 SWAP6 SWAP2 SWAP5 POP SWAP3 POP JUMP JUMPDEST PUSH2 0x2C9B DUP2 PUSH2 0x288C JUMP JUMPDEST DUP3 MSTORE POP POP JUMP JUMPDEST PUSH1 0x0 PUSH1 0x20 DUP3 ADD SWAP1 POP PUSH2 0x2CB6 PUSH1 0x0 DUP4 ADD DUP5 PUSH2 0x2C92 JUMP JUMPDEST SWAP3 SWAP2 POP POP JUMP JUMPDEST PUSH1 0x0 DUP2 SWAP1 POP SWAP3 SWAP2 POP POP JUMP JUMPDEST POP JUMP JUMPDEST PUSH1 0x0 PUSH2 0x2CD7 PUSH1 0x0 DUP4 PUSH2 0x2CBC JUMP JUMPDEST SWAP2 POP PUSH2 0x2CE2 DUP3 PUSH2 0x2CC7 JUMP JUMPDEST PUSH1 0x0 DUP3 ADD SWAP1 POP SWAP2 SWAP1 POP JUMP JUMPDEST PUSH1 0x0 PUSH2 0x2CF8 DUP3 PUSH2 0x2CCA JUMP JUMPDEST SWAP2 POP DUP2 SWAP1 POP SWAP2 SWAP1 POP JUMP JUMPDEST PUSH1 0x0 DUP3 DUP3 MSTORE PUSH1 0x20 DUP3 ADD SWAP1 POP SWAP3 SWAP2 POP POP JUMP JUMPDEST PUSH32 0x4661696C656420746F2073656E64204574686572000000000000000000000000 PUSH1 0x0 DUP3 ADD MSTORE POP JUMP JUMPDEST PUSH1 0x0 PUSH2 0x2D49 PUSH1 0x14 DUP4 PUSH2 0x2D02 JUMP JUMPDEST SWAP2 POP PUSH2 0x2D54 DUP3 PUSH2 0x2D13 JUMP JUMPDEST PUSH1 0x20 DUP3 ADD SWAP1 POP SWAP2 SWAP1 POP JUMP JUMPDEST PUSH1 0x0 PUSH1 0x20 DUP3 ADD SWAP1 POP DUP2 DUP2 SUB PUSH1 0x0 DUP4 ADD MSTORE PUSH2 0x2D78 DUP2 PUSH2 0x2D3C JUMP JUMPDEST SWAP1 POP SWAP2 SWAP1 POP JUMP JUMPDEST PUSH1 0x0 DUP2 SWAP1 POP SWAP3 SWAP2 POP POP JUMP JUMPDEST PUSH1 0x0 PUSH2 0x2D95 DUP3 PUSH2 0x28A5 JUMP JUMPDEST PUSH2 0x2D9F DUP2 DUP6 PUSH2 0x2D7F JUMP JUMPDEST SWAP4 POP PUSH2 0x2DAF DUP2 DUP6 PUSH1 0x20 DUP7 ADD PUSH2 0x28C1 JUMP JUMPDEST DUP1 DUP5 ADD SWAP2 POP POP SWAP3 SWAP2 POP POP JUMP JUMPDEST PUSH1 0x0 PUSH2 0x2DC7 DUP3 DUP5 PUSH2 0x2D8A JUMP JUMPDEST SWAP2 POP DUP2 SWAP1 POP SWAP3 SWAP2 POP POP JUMP JUMPDEST PUSH32 0x416464726573732068617320616C726561647920636C61696D65642074686520 PUSH1 0x0 DUP3 ADD MSTORE PUSH32 0x64726F7000000000000000000000000000000000000000000000000000000000 PUSH1 0x20 DUP3 ADD MSTORE POP JUMP JUMPDEST PUSH1 0x0 PUSH2 0x2E2E PUSH1 0x24 DUP4 PUSH2 0x2D02 JUMP JUMPDEST SWAP2 POP PUSH2 0x2E39 DUP3 PUSH2 0x2DD2 JUMP JUMPDEST PUSH1 0x40 DUP3 ADD SWAP1 POP SWAP2 SWAP1 POP JUMP JUMPDEST PUSH1 0x0 PUSH1 0x20 DUP3 ADD SWAP1 POP DUP2 DUP2 SUB PUSH1 0x0 DUP4 ADD MSTORE PUSH2 0x2E5D DUP2 PUSH2 0x2E21 JUMP JUMPDEST SWAP1 POP SWAP2 SWAP1 POP JUMP JUMPDEST PUSH1 0x0 DUP2 PUSH1 0x60 SHL SWAP1 POP SWAP2 SWAP1 POP JUMP JUMPDEST PUSH1 0x0 PUSH2 0x2E7C DUP3 PUSH2 0x2E64 JUMP JUMPDEST SWAP1 POP SWAP2 SWAP1 POP JUMP JUMPDEST PUSH1 0x0 PUSH2 0x2E8E DUP3 PUSH2 0x2E71 JUMP JUMPDEST SWAP1 POP SWAP2 SWAP1 POP JUMP JUMPDEST PUSH2 0x2EA6 PUSH2 0x2EA1 DUP3 PUSH2 0x2A64 JUMP JUMPDEST PUSH2 0x2E83 JUMP JUMPDEST DUP3 MSTORE POP POP JUMP JUMPDEST PUSH1 0x0 PUSH2 0x2EB8 DUP3 DUP5 PUSH2 0x2E95 JUMP JUMPDEST PUSH1 0x14 DUP3 ADD SWAP2 POP DUP2 SWAP1 POP SWAP3 SWAP2 POP POP JUMP JUMPDEST PUSH32 0x496E76616C6964204D65726B6C652070726F6F66000000000000000000000000 PUSH1 0x0 DUP3 ADD MSTORE POP JUMP JUMPDEST PUSH1 0x0 PUSH2 0x2EFD PUSH1 0x14 DUP4 PUSH2 0x2D02 JUMP JUMPDEST SWAP2 POP PUSH2 0x2F08 DUP3 PUSH2 0x2EC7 JUMP JUMPDEST PUSH1 0x20 DUP3 ADD SWAP1 POP SWAP2 SWAP1 POP JUMP JUMPDEST PUSH1 0x0 PUSH1 0x20 DUP3 ADD SWAP1 POP DUP2 DUP2 SUB PUSH1 0x0 DUP4 ADD MSTORE PUSH2 0x2F2C DUP2 PUSH2 0x2EF0 JUMP JUMPDEST SWAP1 POP SWAP2 SWAP1 POP JUMP JUMPDEST PUSH32 0x4261736500000000000000000000000000000000000000000000000000000000 PUSH1 0x0 DUP3 ADD MSTORE POP JUMP JUMPDEST PUSH1 0x0 PUSH2 0x2F69 PUSH1 0x4 DUP4 PUSH2 0x2D7F JUMP JUMPDEST SWAP2 POP PUSH2 0x2F74 DUP3 PUSH2 0x2F33 JUMP JUMPDEST PUSH1 0x4 DUP3 ADD SWAP1 POP SWAP2 SWAP1 POP JUMP JUMPDEST PUSH1 0x0 PUSH2 0x2F8A DUP3 PUSH2 0x2F5C JUMP JUMPDEST SWAP2 POP DUP2 SWAP1 POP SWAP2 SWAP1 POP JUMP JUMPDEST PUSH32 0x4E487B7100000000000000000000000000000000000000000000000000000000 PUSH1 0x0 MSTORE PUSH1 0x22 PUSH1 0x4 MSTORE PUSH1 0x24 PUSH1 0x0 REVERT JUMPDEST PUSH1 0x0 PUSH1 0x2 DUP3 DIV SWAP1 POP PUSH1 0x1 DUP3 AND DUP1 PUSH2 0x2FDB JUMPI PUSH1 0x7F DUP3 AND SWAP2 POP JUMPDEST PUSH1 0x20 DUP3 LT DUP2 SUB PUSH2 0x2FEE JUMPI PUSH2 0x2FED PUSH2 0x2F94 JUMP JUMPDEST JUMPDEST POP SWAP2 SWAP1 POP JUMP JUMPDEST PUSH1 0x0 DUP2 SWAP1 POP DUP2 PUSH1 0x0 MSTORE PUSH1 0x20 PUSH1 0x0 KECCAK256 SWAP1 POP SWAP2 SWAP1 POP JUMP JUMPDEST PUSH1 0x0 DUP2 SLOAD PUSH2 0x3016 DUP2 PUSH2 0x2FC3 JUMP JUMPDEST PUSH2 0x3020 DUP2 DUP7 PUSH2 0x2D7F JUMP JUMPDEST SWAP5 POP PUSH1 0x1 DUP3 AND PUSH1 0x0 DUP2 EQ PUSH2 0x303B JUMPI PUSH1 0x1 DUP2 EQ PUSH2 0x3050 JUMPI PUSH2 0x3083 JUMP JUMPDEST PUSH1 0xFF NOT DUP4 AND DUP7 MSTORE DUP2 ISZERO ISZERO DUP3 MUL DUP7 ADD SWAP4 POP PUSH2 0x3083 JUMP JUMPDEST PUSH2 0x3059 DUP6 PUSH2 0x2FF4 JUMP JUMPDEST PUSH1 0x0 JUMPDEST DUP4 DUP2 LT ISZERO PUSH2 0x307B JUMPI DUP2 SLOAD DUP2 DUP10 ADD MSTORE PUSH1 0x1 DUP3 ADD SWAP2 POP PUSH1 0x20 DUP2 ADD SWAP1 POP PUSH2 0x305C JUMP JUMPDEST DUP4 DUP9 ADD SWAP6 POP POP POP JUMPDEST POP POP POP SWAP3 SWAP2 POP POP JUMP JUMPDEST PUSH1 0x0 PUSH2 0x3098 DUP3 DUP5 PUSH2 0x3009 JUMP JUMPDEST SWAP2 POP DUP2 SWAP1 POP SWAP3 SWAP2 POP POP JUMP JUMPDEST PUSH32 0x4E487B7100000000000000000000000000000000000000000000000000000000 PUSH1 0x0 MSTORE PUSH1 0x11 PUSH1 0x4 MSTORE PUSH1 0x24 PUSH1 0x0 REVERT JUMPDEST PUSH1 0x0 PUSH2 0x30DD DUP3 PUSH2 0x2598 JUMP JUMPDEST SWAP2 POP PUSH32 0xFFFFFFFFFFFFFFFFFFFFFFFFFFFFFFFFFFFFFFFFFFFFFFFFFFFFFFFFFFFFFFFF DUP3 SUB PUSH2 0x310F JUMPI PUSH2 0x310E PUSH2 0x30A3 JUMP JUMPDEST JUMPDEST PUSH1 0x1 DUP3 ADD SWAP1 POP SWAP2 SWAP1 POP JUMP JUMPDEST PUSH1 0x0 PUSH1 0x20 PUSH1 0x1F DUP4 ADD DIV SWAP1 POP SWAP2 SWAP1 POP JUMP JUMPDEST PUSH1 0x0 DUP3 DUP3 SHL SWAP1 POP SWAP3 SWAP2 POP POP JUMP JUMPDEST PUSH1 0x0 PUSH1 0x8 DUP4 MUL PUSH2 0x3167 PUSH32 0xFFFFFFFFFFFFFFFFFFFFFFFFFFFFFFFFFFFFFFFFFFFFFFFFFFFFFFFFFFFFFFFF DUP3 PUSH2 0x312A JUMP JUMPDEST PUSH2 0x3171 DUP7 DUP4 PUSH2 0x312A JUMP JUMPDEST SWAP6 POP DUP1 NOT DUP5 AND SWAP4 POP DUP1 DUP7 AND DUP5 OR SWAP3 POP POP POP SWAP4 SWAP3 POP POP POP JUMP JUMPDEST PUSH1 0x0 DUP2 SWAP1 POP SWAP2 SWAP1 POP JUMP JUMPDEST PUSH1 0x0 PUSH2 0x31AE PUSH2 0x31A9 PUSH2 0x31A4 DUP5 PUSH2 0x2598 JUMP JUMPDEST PUSH2 0x3189 JUMP JUMPDEST PUSH2 0x2598 JUMP JUMPDEST SWAP1 POP SWAP2 SWAP1 POP JUMP JUMPDEST PUSH1 0x0 DUP2 SWAP1 POP SWAP2 SWAP1 POP JUMP JUMPDEST PUSH2 0x31C8 DUP4 PUSH2 0x3193 JUMP JUMPDEST PUSH2 0x31DC PUSH2 0x31D4 DUP3 PUSH2 0x31B5 JUMP JUMPDEST DUP5 DUP5 SLOAD PUSH2 0x3137 JUMP JUMPDEST DUP3 SSTORE POP POP POP POP JUMP JUMPDEST PUSH1 0x0 SWAP1 JUMP JUMPDEST PUSH2 0x31F1 PUSH2 0x31E4 JUMP JUMPDEST PUSH2 0x31FC DUP2 DUP5 DUP5 PUSH2 0x31BF JUMP JUMPDEST POP POP POP JUMP JUMPDEST JUMPDEST DUP2 DUP2 LT ISZERO PUSH2 0x3220 JUMPI PUSH2 0x3215 PUSH1 0x0 DUP3 PUSH2 0x31E9 JUMP JUMPDEST PUSH1 0x1 DUP2 ADD SWAP1 POP PUSH2 0x3202 JUMP JUMPDEST POP POP JUMP JUMPDEST PUSH1 0x1F DUP3 GT ISZERO PUSH2 0x3265 JUMPI PUSH2 0x3236 DUP2 PUSH2 0x2FF4 JUMP JUMPDEST PUSH2 0x323F DUP5 PUSH2 0x311A JUMP JUMPDEST DUP2 ADD PUSH1 0x20 DUP6 LT ISZERO PUSH2 0x324E JUMPI DUP2 SWAP1 POP JUMPDEST PUSH2 0x3262 PUSH2 0x325A DUP6 PUSH2 0x311A JUMP JUMPDEST DUP4 ADD DUP3 PUSH2 0x3201 JUMP JUMPDEST POP POP JUMPDEST POP POP POP JUMP JUMPDEST PUSH1 0x0 DUP3 DUP3 SHR SWAP1 POP SWAP3 SWAP2 POP POP JUMP JUMPDEST PUSH1 0x0 PUSH2 0x3288 PUSH1 0x0 NOT DUP5 PUSH1 0x8 MUL PUSH2 0x326A JUMP JUMPDEST NOT DUP1 DUP4 AND SWAP2 POP POP SWAP3 SWAP2 POP POP JUMP JUMPDEST PUSH1 0x0 PUSH2 0x32A1 DUP4 DUP4 PUSH2 0x3277 JUMP JUMPDEST SWAP2 POP DUP3 PUSH1 0x2 MUL DUP3 OR SWAP1 POP SWAP3 SWAP2 POP POP JUMP JUMPDEST PUSH2 0x32BA DUP3 PUSH2 0x28A5 JUMP JUMPDEST PUSH8 0xFFFFFFFFFFFFFFFF DUP2 GT ISZERO PUSH2 0x32D3 JUMPI PUSH2 0x32D2 PUSH2 0x2649 JUMP JUMPDEST JUMPDEST PUSH2 0x32DD DUP3 SLOAD PUSH2 0x2FC3 JUMP JUMPDEST PUSH2 0x32E8 DUP3 DUP3 DUP6 PUSH2 0x3224 JUMP JUMPDEST PUSH1 0x0 PUSH1 0x20 SWAP1 POP PUSH1 0x1F DUP4 GT PUSH1 0x1 DUP2 EQ PUSH2 0x331B JUMPI PUSH1 0x0 DUP5 ISZERO PUSH2 0x3309 JUMPI DUP3 DUP8 ADD MLOAD SWAP1 POP JUMPDEST PUSH2 0x3313 DUP6 DUP3 PUSH2 0x3295 JUMP JUMPDEST DUP7 SSTORE POP PUSH2 0x337B JUMP JUMPDEST PUSH1 0x1F NOT DUP5 AND PUSH2 0x3329 DUP7 PUSH2 0x2FF4 JUMP JUMPDEST PUSH1 0x0 JUMPDEST DUP3 DUP2 LT ISZERO PUSH2 0x3351 JUMPI DUP5 DUP10 ADD MLOAD DUP3 SSTORE PUSH1 0x1 DUP3 ADD SWAP2 POP PUSH1 0x20 DUP6 ADD SWAP5 POP PUSH1 0x20 DUP2 ADD SWAP1 POP PUSH2 0x332C JUMP JUMPDEST DUP7 DUP4 LT ISZERO PUSH2 0x336E JUMPI DUP5 DUP10 ADD MLOAD PUSH2 0x336A PUSH1 0x1F DUP10 AND DUP3 PUSH2 0x3277 JUMP JUMPDEST DUP4 SSTORE POP JUMPDEST PUSH1 0x1 PUSH1 0x2 DUP9 MUL ADD DUP9 SSTORE POP POP POP JUMPDEST POP POP POP POP POP POP JUMP JUMPDEST PUSH32 0x6E616D652069732074616B656E00000000000000000000000000000000000000 PUSH1 0x0 DUP3 ADD MSTORE POP JUMP JUMPDEST PUSH1 0x0 PUSH2 0x33B9 PUSH1 0xD DUP4 PUSH2 0x2D02 JUMP JUMPDEST SWAP2 POP PUSH2 0x33C4 DUP3 PUSH2 0x3383 JUMP JUMPDEST PUSH1 0x20 DUP3 ADD SWAP1 POP SWAP2 SWAP1 POP JUMP JUMPDEST PUSH1 0x0 PUSH1 0x20 DUP3 ADD SWAP1 POP DUP2 DUP2 SUB PUSH1 0x0 DUP4 ADD MSTORE PUSH2 0x33E8 DUP2 PUSH2 0x33AC JUMP JUMPDEST SWAP1 POP SWAP2 SWAP1 POP JUMP JUMPDEST PUSH32 0x43616E6E6F74207061737320616E20656D707479206861736800000000000000 PUSH1 0x0 DUP3 ADD MSTORE POP JUMP JUMPDEST PUSH1 0x0 PUSH2 0x3425 PUSH1 0x19 DUP4 PUSH2 0x2D02 JUMP JUMPDEST SWAP2 POP PUSH2 0x3430 DUP3 PUSH2 0x33EF JUMP JUMPDEST PUSH1 0x20 DUP3 ADD SWAP1 POP SWAP2 SWAP1 POP JUMP JUMPDEST PUSH1 0x0 PUSH1 0x20 DUP3 ADD SWAP1 POP DUP2 DUP2 SUB PUSH1 0x0 DUP4 ADD MSTORE PUSH2 0x3454 DUP2 PUSH2 0x3418 JUMP JUMPDEST SWAP1 POP SWAP2 SWAP1 POP JUMP JUMPDEST PUSH32 0x43616E6E6F74206265206C6F6E676572207468616E2031302063686172730000 PUSH1 0x0 DUP3 ADD MSTORE POP JUMP JUMPDEST PUSH1 0x0 PUSH2 0x3491 PUSH1 0x1E DUP4 PUSH2 0x2D02 JUMP JUMPDEST SWAP2 POP PUSH2 0x349C DUP3 PUSH2 0x345B JUMP JUMPDEST PUSH1 0x20 DUP3 ADD SWAP1 POP SWAP2 SWAP1 POP JUMP JUMPDEST PUSH1 0x0 PUSH1 0x20 DUP3 ADD SWAP1 POP DUP2 DUP2 SUB PUSH1 0x0 DUP4 ADD MSTORE PUSH2 0x34C0 DUP2 PUSH2 0x3484 JUMP JUMPDEST SWAP1 POP SWAP2 SWAP1 POP JUMP JUMPDEST PUSH32 0x4552433732313A207472616E7366657220746F206E6F6E204552433732315265 PUSH1 0x0 DUP3 ADD MSTORE PUSH32 0x63656976657220696D706C656D656E7465720000000000000000000000000000 PUSH1 0x20 DUP3 ADD MSTORE POP JUMP JUMPDEST PUSH1 0x0 PUSH2 0x3523 PUSH1 0x32 DUP4 PUSH2 0x2D02 JUMP JUMPDEST SWAP2 POP PUSH2 0x352E DUP3 PUSH2 0x34C7 JUMP JUMPDEST PUSH1 0x40 DUP3 ADD SWAP1 POP SWAP2 SWAP1 POP JUMP JUMPDEST PUSH1 0x0 PUSH1 0x20 DUP3 ADD SWAP1 POP DUP2 DUP2 SUB PUSH1 0x0 DUP4 ADD MSTORE PUSH2 0x3552 DUP2 PUSH2 0x3516 JUMP JUMPDEST SWAP1 POP SWAP2 SWAP1 POP JUMP JUMPDEST PUSH32 0x4E487B7100000000000000000000000000000000000000000000000000000000 PUSH1 0x0 MSTORE PUSH1 0x32 PUSH1 0x4 MSTORE PUSH1 0x24 PUSH1 0x0 REVERT JUMPDEST PUSH32 0x4552433732313A206D696E7420746F20746865207A65726F2061646472657373 PUSH1 0x0 DUP3 ADD MSTORE POP JUMP JUMPDEST PUSH1 0x0 PUSH2 0x35BE PUSH1 0x20 DUP4 PUSH2 0x2D02 JUMP JUMPDEST SWAP2 POP PUSH2 0x35C9 DUP3 PUSH2 0x3588 JUMP JUMPDEST PUSH1 0x20 DUP3 ADD SWAP1 POP SWAP2 SWAP1 POP JUMP JUMPDEST PUSH1 0x0 PUSH1 0x20 DUP3 ADD SWAP1 POP DUP2 DUP2 SUB PUSH1 0x0 DUP4 ADD MSTORE PUSH2 0x35ED DUP2 PUSH2 0x35B1 JUMP JUMPDEST SWAP1 POP SWAP2 SWAP1 POP JUMP JUMPDEST PUSH32 0x4552433732313A20746F6B656E20616C7265616479206D696E74656400000000 PUSH1 0x0 DUP3 ADD MSTORE POP JUMP JUMPDEST PUSH1 0x0 PUSH2 0x362A PUSH1 0x1C DUP4 PUSH2 0x2D02 JUMP JUMPDEST SWAP2 POP PUSH2 0x3635 DUP3 PUSH2 0x35F4 JUMP JUMPDEST PUSH1 0x20 DUP3 ADD SWAP1 POP SWAP2 SWAP1 POP JUMP JUMPDEST PUSH1 0x0 PUSH1 0x20 DUP3 ADD SWAP1 POP DUP2 DUP2 SUB PUSH1 0x0 DUP4 ADD MSTORE PUSH2 0x3659 DUP2 PUSH2 0x361D JUMP JUMPDEST SWAP1 POP SWAP2 SWAP1 POP JUMP JUMPDEST PUSH2 0x3669 DUP2 PUSH2 0x2A64 JUMP JUMPDEST DUP3 MSTORE POP POP JUMP JUMPDEST PUSH2 0x3678 DUP2 PUSH2 0x2598 JUMP JUMPDEST DUP3 MSTORE POP POP JUMP JUMPDEST PUSH1 0x0 DUP2 MLOAD SWAP1 POP SWAP2 SWAP1 POP JUMP JUMPDEST PUSH1 0x0 DUP3 DUP3 MSTORE PUSH1 0x20 DUP3 ADD SWAP1 POP SWAP3 SWAP2 POP POP JUMP JUMPDEST PUSH1 0x0 PUSH2 0x36A5 DUP3 PUSH2 0x367E JUMP JUMPDEST PUSH2 0x36AF DUP2 DUP6 PUSH2 0x3689 JUMP JUMPDEST SWAP4 POP PUSH2 0x36BF DUP2 DUP6 PUSH1 0x20 DUP7 ADD PUSH2 0x28C1 JUMP JUMPDEST PUSH2 0x36C8 DUP2 PUSH2 0x2638 JUMP JUMPDEST DUP5 ADD SWAP2 POP POP SWAP3 SWAP2 POP POP JUMP JUMPDEST PUSH1 0x0 PUSH1 0x80 DUP3 ADD SWAP1 POP PUSH2 0x36E8 PUSH1 0x0 DUP4 ADD DUP8 PUSH2 0x3660 JUMP JUMPDEST PUSH2 0x36F5 PUSH1 0x20 DUP4 ADD DUP7 PUSH2 0x3660 JUMP JUMPDEST PUSH2 0x3702 PUSH1 0x40 DUP4 ADD DUP6 PUSH2 0x366F JUMP JUMPDEST DUP2 DUP2 SUB PUSH1 0x60 DUP4 ADD MSTORE PUSH2 0x3714 DUP2 DUP5 PUSH2 0x369A JUMP JUMPDEST SWAP1 POP SWAP6 SWAP5 POP POP POP POP POP JUMP JUMPDEST PUSH1 0x0 PUSH32 0xFFFFFFFF00000000000000000000000000000000000000000000000000000000 DUP3 AND SWAP1 POP SWAP2 SWAP1 POP JUMP JUMPDEST PUSH2 0x3754 DUP2 PUSH2 0x371F JUMP JUMPDEST DUP2 EQ PUSH2 0x375F JUMPI PUSH1 0x0 DUP1 REVERT JUMPDEST POP JUMP JUMPDEST PUSH1 0x0 DUP2 MLOAD SWAP1 POP PUSH2 0x3771 DUP2 PUSH2 0x374B JUMP JUMPDEST SWAP3 SWAP2 POP POP JUMP JUMPDEST PUSH1 0x0 PUSH1 0x20 DUP3 DUP5 SUB SLT ISZERO PUSH2 0x378D JUMPI PUSH2 0x378C PUSH2 0x258E JUMP JUMPDEST JUMPDEST PUSH1 0x0 PUSH2 0x379B DUP5 DUP3 DUP6 ADD PUSH2 0x3762 JUMP JUMPDEST SWAP2 POP POP SWAP3 SWAP2 POP POP JUMP INVALID PUSH9 0x747470733A2F2F6970 PUSH7 0x732E696F2F6970 PUSH7 0x732F516D556257 PUSH25 0x5564387358344D5A6F6A4B455255506D507539597441596659 PUSH19 0x6F425334546531484A454B7563796874747073 GASPRICE 0x2F 0x2F PUSH10 0x7066732E696F2F697066 PUSH20 0x2F516D625641427439734B704E55613844674D4A PUSH5 0x6533444243 MLOAD PUSH26 0x6F72534354395631447A6436634A385A556D5068747470733A2F 0x2F PUSH10 0x7066732E696F2F697066 PUSH20 0x2F516D66424E4870787077554E67747736695842 PUSH25 0x4B584C6256786F6D386D7064427367715A5A79353970524D35 NUMBER PUSH9 0x747470733A2F2F6970 PUSH7 0x732E696F2F6970 PUSH7 0x732F516D515865 MSIZE PUSH6 0x397278526B6B PUSH18 0x6645423744725A52534732533179724E676A CALLDATASIZE CALLVALUE JUMP CODESIZE PUSH14 0x3676374B65747A51646874747073 GASPRICE 0x2F 0x2F PUSH10 0x7066732E696F2F697066 PUSH20 0x2F516D55715A4B5275646E616E67314758624432 PUSH15 0x4848776D4A664E4E42465156646D6F BASEFEE CODESIZE JUMPI COINBASE PUSH15 0x65616969356868747470733A2F2F69 PUSH17 0x66732E696F2F697066732F516D5269644A PUSH7 0x6766523656394C TIMESTAMP PUSH23 0x594136524B6F6A4450796B713547327A4C6E4E41784172 0x4C 0x4D SSTORE 0x4D PUSH15 0x436468747470733A2F2F697066732E PUSH10 0x6F2F697066732F516D57 MLOAD MLOAD 0x4C CALLDATASIZE 0x4E CODECOPY COINBASE PUSH7 0x63713270646247 PUSH23 0x6A61315456696943576B346B36764235564D433974634D 0x4B PUSH4 0x65396874 PUSH21 0x70733A2F2F697066732E696F2F697066732F516D56 CALLDATALOAD PUSH17 0x53734D47474D4C5733593979513871534C MSTORE8 0x4D PREVRANDAO MLOAD PUSH2 0x6B64 PUSH15 0x6A686A53346B356865366D4A795065 BASEFEE LOG2 PUSH5 0x6970667358 0x22 SLT KECCAK256 DELEGATECALL 0x25 0xBD 0xAB 0x28 0xA9 ISZERO 0xEA 0xB7 PUSH28 0xE314A0183E68D138A5799705C1F1F0943DCB30A0FC5B64736F6C6343 STOP ADDMOD SLT STOP CALLER "},"methodIdentifiers":{"changeNameFee(uint256,string)":"40d0bb7f","claimPlayerDrop(uint256,bytes32[],string,bool,uint256)":"9737f88a","claimPlayerDropPirate(uint256,bytes32[],string,bool)":"0ace3047","claimedStatus(uint256,address)":"2dfc7abe","createPlayerDrop(bytes32,string,uint256)":"1b660e47","getPlayerDrop(uint256)":"0b5fe530","getPlayerDropMerkleRoot(uint256)":"e0a0a074","verifyPlayerDropWhitelist(bytes32[],uint256,address)":"c79cd39f"}}}}}