{
  "_format": "hh-sol-artifact-1",
  "contractName": "PlayerDropFacet",
  "sourceName": "contracts/facets/PlayerDropFacet.sol",
  "abi": [
    {
      "anonymous": false,
      "inputs": [
        {
          "indexed": true,
          "internalType": "address",
          "name": "owner",
          "type": "address"
        },
        {
          "indexed": true,
          "internalType": "address",
          "name": "approved",
          "type": "address"
        },
        {
          "indexed": true,
          "internalType": "uint256",
          "name": "tokenId",
          "type": "uint256"
        }
      ],
      "name": "Approval",
      "type": "event"
    },
    {
      "anonymous": false,
      "inputs": [
        {
          "indexed": true,
          "internalType": "address",
          "name": "owner",
          "type": "address"
        },
        {
          "indexed": true,
          "internalType": "address",
          "name": "operator",
          "type": "address"
        },
        {
          "indexed": false,
          "internalType": "bool",
          "name": "approved",
          "type": "bool"
        }
      ],
      "name": "ApprovalForAll",
      "type": "event"
    },
    {
      "anonymous": false,
      "inputs": [
        {
          "indexed": true,
          "internalType": "uint256",
          "name": "_playerDropId",
          "type": "uint256"
        }
      ],
      "name": "ClaimPlayer",
      "type": "event"
    },
    {
      "anonymous": false,
      "inputs": [
        {
          "indexed": true,
          "internalType": "uint256",
          "name": "id",
          "type": "uint256"
        },
        {
          "indexed": true,
          "internalType": "address",
          "name": "owner",
          "type": "address"
        },
        {
          "indexed": false,
          "internalType": "string",
          "name": "name",
          "type": "string"
        },
        {
          "indexed": false,
          "internalType": "uint256",
          "name": "_class",
          "type": "uint256"
        }
      ],
      "name": "Mint",
      "type": "event"
    },
    {
      "anonymous": false,
      "inputs": [
        {
          "indexed": true,
          "internalType": "address",
          "name": "owner",
          "type": "address"
        },
        {
          "indexed": true,
          "internalType": "uint256",
          "name": "id",
          "type": "uint256"
        },
        {
          "indexed": true,
          "internalType": "string",
          "name": "newName",
          "type": "string"
        }
      ],
      "name": "NameChange",
      "type": "event"
    },
    {
      "anonymous": false,
      "inputs": [
        {
          "indexed": true,
          "internalType": "address",
          "name": "from",
          "type": "address"
        },
        {
          "indexed": true,
          "internalType": "address",
          "name": "to",
          "type": "address"
        },
        {
          "indexed": true,
          "internalType": "uint256",
          "name": "tokenId",
          "type": "uint256"
        }
      ],
      "name": "Transfer",
      "type": "event"
    },
    {
      "inputs": [
        {
          "internalType": "uint256",
          "name": "_id",
          "type": "uint256"
        },
        {
          "internalType": "string",
          "name": "_newName",
          "type": "string"
        }
      ],
      "name": "changeNameFee",
      "outputs": [],
      "stateMutability": "payable",
      "type": "function"
    },
    {
      "inputs": [
        {
          "internalType": "uint256",
          "name": "_playerDropId",
          "type": "uint256"
        },
        {
          "internalType": "bytes32[]",
          "name": "_proof",
          "type": "bytes32[]"
        },
        {
          "internalType": "string",
          "name": "_name",
          "type": "string"
        },
        {
          "internalType": "bool",
          "name": "_isMale",
          "type": "bool"
        },
        {
          "internalType": "uint256",
          "name": "_class",
          "type": "uint256"
        }
      ],
      "name": "claimPlayerDrop",
      "outputs": [],
      "stateMutability": "payable",
      "type": "function"
    },
    {
      "inputs": [
        {
          "internalType": "uint256",
          "name": "_playerDropId",
          "type": "uint256"
        },
        {
          "internalType": "bytes32[]",
          "name": "_proof",
          "type": "bytes32[]"
        },
        {
          "internalType": "string",
          "name": "_name",
          "type": "string"
        },
        {
          "internalType": "bool",
          "name": "_isMale",
          "type": "bool"
        },
        {
          "internalType": "address",
          "name": "_to",
          "type": "address"
        }
      ],
      "name": "claimPlayerDropPirate",
      "outputs": [],
      "stateMutability": "payable",
      "type": "function"
    },
    {
      "inputs": [
        {
          "internalType": "uint256",
          "name": "_playerDropId",
          "type": "uint256"
        },
        {
          "internalType": "address",
          "name": "_address",
          "type": "address"
        }
      ],
      "name": "claimedStatus",
      "outputs": [
        {
          "internalType": "bool",
          "name": "",
          "type": "bool"
        }
      ],
      "stateMutability": "view",
      "type": "function"
    },
    {
      "inputs": [
        {
          "internalType": "bytes32",
          "name": "_merkleRoot",
          "type": "bytes32"
        },
        {
          "internalType": "string",
          "name": "_name",
          "type": "string"
        },
        {
          "internalType": "uint256",
          "name": "_price",
          "type": "uint256"
        }
      ],
      "name": "createPlayerDrop",
      "outputs": [],
      "stateMutability": "nonpayable",
      "type": "function"
    },
    {
      "inputs": [
        {
          "internalType": "uint256",
          "name": "_playerDropId",
          "type": "uint256"
        }
      ],
      "name": "getPlayerDrop",
      "outputs": [
        {
          "components": [
            {
              "internalType": "uint256",
              "name": "id",
              "type": "uint256"
            },
            {
              "internalType": "uint256",
              "name": "price",
              "type": "uint256"
            },
            {
              "internalType": "bytes32",
              "name": "merkleRoot",
              "type": "bytes32"
            },
            {
              "internalType": "string",
              "name": "name",
              "type": "string"
            }
          ],
          "internalType": "struct PlayerDrop",
          "name": "",
          "type": "tuple"
        }
      ],
      "stateMutability": "view",
      "type": "function"
    },
    {
      "inputs": [
        {
          "internalType": "uint256",
          "name": "_playerDropId",
          "type": "uint256"
        }
      ],
      "name": "getPlayerDropMerkleRoot",
      "outputs": [
        {
          "internalType": "bytes32",
          "name": "",
          "type": "bytes32"
        }
      ],
      "stateMutability": "view",
      "type": "function"
    },
    {
      "inputs": [
        {
          "internalType": "bytes32[]",
          "name": "_proof",
          "type": "bytes32[]"
        },
        {
          "internalType": "uint256",
          "name": "_playerDropId",
          "type": "uint256"
        },
        {
          "internalType": "address",
          "name": "_address",
          "type": "address"
        }
      ],
      "name": "verifyPlayerDropWhitelist",
      "outputs": [
        {
          "internalType": "bool",
          "name": "",
          "type": "bool"
        }
      ],
      "stateMutability": "view",
      "type": "function"
    }
  ],
  "bytecode": "0x608060405234801561001057600080fd5b50613a09806100206000396000f3fe60806040526004361061007b5760003560e01c80639737f88a1161004e5780639737f88a1461013f578063c79cd39f1461015b578063e0a0a07414610198578063f93ba229146101d55761007b565b80630b5fe530146100805780631b660e47146100bd5780632dfc7abe146100e657806340d0bb7f14610123575b600080fd5b34801561008c57600080fd5b506100a760048036038101906100a291906125d3565b6101f1565b6040516100b4919061271b565b60405180910390f35b3480156100c957600080fd5b506100e460048036038101906100df919061289e565b610209565b005b3480156100f257600080fd5b5061010d6004803603810190610108919061296b565b61026b565b60405161011a91906129c6565b60405180910390f35b61013d600480360381019061013891906129e1565b61027f565b005b61015960048036038101906101549190612ac9565b6102f5565b005b34801561016757600080fd5b50610182600480360381019061017d9190612b7f565b610432565b60405161018f91906129c6565b60405180910390f35b3480156101a457600080fd5b506101bf60048036038101906101ba91906125d3565b61044a565b6040516101cc9190612c02565b60405180910390f35b6101ef60048036038101906101ea9190612c1d565b61045c565b005b6101f961255e565b61020282610599565b9050919050565b600073434d36f32abed3f7937fe0be88dc1b0eb938124490508073ffffffffffffffffffffffffffffffffffffffff163373ffffffffffffffffffffffffffffffffffffffff161461025a57600080fd5b610265848484610685565b50505050565b60006102778383610726565b905092915050565b610289828261079c565b600a34101561029757600080fd5b806040516102a59190612d0f565b6040518091039020823373ffffffffffffffffffffffffffffffffffffffff167fe4ce50a62b6cbb7d19acd75fd57f7e2588dd09705647d97993e2ece872c305b260405160405180910390a45050565b6102fe866101f1565b6020015134101561030e57600080fd5b60007308d8e680a2d295af8cbcd8b8e07f900275bc6b8d90506000808273ffffffffffffffffffffffffffffffffffffffff163460405161034e90612d57565b60006040518083038185875af1925050503d806000811461038b576040519150601f19603f3d011682016040523d82523d6000602084013e610390565b606091505b5091509150816103d5576040517f08c379a00000000000000000000000000000000000000000000000000000000081526004016103cc90612dc9565b60405180910390fd5b6103e3898989898989610a50565b887f9d3afc92396cc7c29a7a44c2e713f9efe3287517db4b2f9eea9f860204fd5baa60405160405180910390a2600061041a610c69565b90506104263382610c81565b50505050505050505050565b600061044085858585610c9f565b9050949350505050565b600061045582610d47565b9050919050565b610465866101f1565b6020015134101561047557600080fd5b60007308d8e680a2d295af8cbcd8b8e07f900275bc6b8d90506000808273ffffffffffffffffffffffffffffffffffffffff16346040516104b590612d57565b60006040518083038185875af1925050503d80600081146104f2576040519150601f19603f3d011682016040523d82523d6000602084013e6104f7565b606091505b50915091508161053c576040517f08c379a000000000000000000000000000000000000000000000000000000000815260040161053390612dc9565b60405180910390fd5b61054a898989898989610d75565b887f9d3afc92396cc7c29a7a44c2e713f9efe3287517db4b2f9eea9f860204fd5baa60405160405180910390a26000610581610c69565b905061058d8582610c81565b50505050505050505050565b6105a161255e565b60006105ab610ffb565b90508060010160008481526020019081526020016000206040518060800160405290816000820154815260200160018201548152602001600282015481526020016003820180546105fb90612e18565b80601f016020809104026020016040519081016040528092919081815260200182805461062790612e18565b80156106745780601f1061064957610100808354040283529160200191610674565b820191906000526020600020905b81548152906001019060200180831161065757829003601f168201915b505050505081525050915050919050565b600061068f610ffb565b90508060000160008154809291906106a690612e78565b91905055506040518060800160405280826000015481526020018381526020018581526020018481525081600101600083600001548152602001908152602001600020600082015181600001556020820151816001015560408201518160020155606082015181600301908161071c919061306c565b5090505050505050565b600080610731610ffb565b905080600201600085815260200190815260200160002060008473ffffffffffffffffffffffffffffffffffffffff1673ffffffffffffffffffffffffffffffffffffffff16815260200190815260200160002060009054906101000a900460ff1691505092915050565b60006107a6611028565b90503373ffffffffffffffffffffffffffffffffffffffff1681600201600085815260200190815260200160002060009054906101000a900473ffffffffffffffffffffffffffffffffffffffff1673ffffffffffffffffffffffffffffffffffffffff161461081557600080fd5b80600601826040516108279190612d0f565b908152602001604051809103902060009054906101000a900460ff1615610883576040517f08c379a000000000000000000000000000000000000000000000000000000000815260040161087a9061318a565b60405180910390fd5b60038251116108c7576040517f08c379a00000000000000000000000000000000000000000000000000000000081526004016108be906131f6565b60405180910390fd5b600a82511061090b576040517f08c379a000000000000000000000000000000000000000000000000000000000815260040161090290613262565b60405180910390fd5b6000816003016000858152602001908152602001600020600f01805461093090612e18565b80601f016020809104026020016040519081016040528092919081815260200182805461095c90612e18565b80156109a95780601f1061097e576101008083540402835291602001916109a9565b820191906000526020600020905b81548152906001019060200180831161098c57829003601f168201915b505050505090506000815111156109eb5781600601816040516109cc9190612d0f565b908152602001604051809103902060006101000a81549060ff02191690555b82826003016000868152602001908152602001600020600f019081610a10919061306c565b5060018260060184604051610a259190612d0f565b908152602001604051809103902060006101000a81548160ff02191690831515021790555050505050565b6000610a5a610ffb565b905080600201600088815260200190815260200160002060003373ffffffffffffffffffffffffffffffffffffffff1673ffffffffffffffffffffffffffffffffffffffff16815260200190815260200160002060009054906101000a900460ff1615610afc576040517f08c379a0000000000000000000000000000000000000000000000000000000008152600401610af3906132f4565b60405180910390fd5b610b86868680806020026020016040519081016040528093929190818152602001838360200280828437600081840152601f19601f820116905080830192505050505050508260010160008a81526020019081526020016000206002015433604051602001610b6b919061335c565b60405160208183030381529060405280519060200120611055565b610bc5576040517f08c379a0000000000000000000000000000000000000000000000000000000008152600401610bbc906133c3565b60405180910390fd5b80600101600088815260200190815260200160002060010154341015610bea57600080fd5b600181600201600089815260200190815260200160002060003373ffffffffffffffffffffffffffffffffffffffff1673ffffffffffffffffffffffffffffffffffffffff16815260200190815260200160002060006101000a81548160ff021916908315150217905550610c6084848461106c565b50505050505050565b600080610c74611028565b9050806001015491505090565b610c9b828260405180602001604052806000815250611aa9565b5050565b600080610caa610ffb565b9050600083604051602001610cbf919061335c565b604051602081830303815290604052805190602001209050610d3b878780806020026020016040519081016040528093929190818152602001838360200280828437600081840152601f19601f820116905080830192505050505050508360010160008881526020019081526020016000206002015483611055565b92505050949350505050565b600080610d52610ffb565b905080600101600084815260200190815260200160002060020154915050919050565b6000610d7f610ffb565b905080600201600088815260200190815260200160002060003373ffffffffffffffffffffffffffffffffffffffff1673ffffffffffffffffffffffffffffffffffffffff16815260200190815260200160002060009054906101000a900460ff1615610e21576040517f08c379a0000000000000000000000000000000000000000000000000000000008152600401610e18906132f4565b60405180910390fd5b610eab868680806020026020016040519081016040528093929190818152602001838360200280828437600081840152601f19601f820116905080830192505050505050508260010160008a81526020019081526020016000206002015433604051602001610e90919061335c565b60405160208183030381529060405280519060200120611055565b610eea576040517f08c379a0000000000000000000000000000000000000000000000000000000008152600401610ee1906133c3565b60405180910390fd5b80600101600088815260200190815260200160002060010154341015610f0f57600080fd5b604051602001610f1e9061342f565b60405160208183030381529060405280519060200120816001016000898152602001908152602001600020600301604051602001610f5c91906134c7565b6040516020818303038152906040528051906020012014610f7c57600080fd5b600181600201600089815260200190815260200160002060003373ffffffffffffffffffffffffffffffffffffffff1673ffffffffffffffffffffffffffffffffffffffff16815260200190815260200160002060006101000a81548160ff021916908315150217905550610ff2848484611b04565b50505050505050565b6000807f19a7b6aa9ad98f2f267a375bb3e53168bb268f6ec190238c4ccf172054fde40a90508091505090565b6000807f3cab9a070a0c61cd0ae9d9e9e2c0781e5ca8691bec4087e5a4701d5ac018dd4e90508091505090565b6000826110628584612025565b1490509392505050565b6000611076611028565b9050806006018460405161108a9190612d0f565b908152602001604051809103902060009054906101000a900460ff16156110e6576040517f08c379a00000000000000000000000000000000000000000000000000000000081526004016110dd9061318a565b60405180910390fd5b60028211156110f457600080fd5b600a8451111561110357600080fd5b60038451101561111257600080fd5b80600101600081548092919061112790612e78565b91905055506060600083036113b0578361115c5760405180608001604052806043815260200161384260439139905080611179565b604051806080016040528060438152602001613991604391399050805b50604051806102800160405280600181526020016000815260200160008152602001600b8152602001600c8152602001600c8152602001600a8152602001600a8152602001600a8152602001600a815260200160018152602001600181526020016001815260200160018152602001600b815260200186815260200182815260200185151581526020016040518060e00160405280600081526020016000815260200160008152602001600081526020016000815260200160008152602001600081525081526020018481525082600301600084600101548152602001908152602001600020600082015181600001556020820151816001015560408201518160020155606082015181600301556080820151816004015560a0820151816005015560c0820151816006015560e082015181600701556101008201518160080155610120820151816009015561014082015181600a015561016082015181600b015561018082015181600c01556101a082015181600d01556101c082015181600e01556101e082015181600f019081611312919061306c565b50610200820151816010019081611329919061306c565b506102208201518160110160006101000a81548160ff02191690831515021790555061024082015181601201600082015181600001556020820151816001015560408201518160020155606082015181600301556080820151816004015560a0820151816005015560c08201518160060155505061026082015181601901559050506118b2565b6001830361163257836113de5760405180608001604052806043815260200161390b604391399050806113fb565b604051806080016040528060438152602001613885604391399050805b50604051806102800160405280600181526020016000815260200160008152602001600b8152602001600b8152602001600b8152602001600a8152602001600a8152602001600a8152602001600c815260200160018152602001600181526020016001815260200160018152602001600a815260200186815260200182815260200185151581526020016040518060e00160405280600081526020016000815260200160008152602001600081526020016000815260200160008152602001600081525081526020018481525082600301600084600101548152602001908152602001600020600082015181600001556020820151816001015560408201518160020155606082015181600301556080820151816004015560a0820151816005015560c0820151816006015560e082015181600701556101008201518160080155610120820151816009015561014082015181600a015561016082015181600b015561018082015181600c01556101a082015181600d01556101c082015181600e01556101e082015181600f019081611594919061306c565b506102008201518160100190816115ab919061306c565b506102208201518160110160006101000a81548160ff02191690831515021790555061024082015181601201600082015181600001556020820151816001015560408201518160020155606082015181600301556080820151816004015560a0820151816005015560c08201518160060155505061026082015181601901559050506118b1565b600283036118b05783611660576040518060800160405280604381526020016137ff6043913990508061167d565b6040518060800160405280604381526020016137bc604391399050805b50604051806102800160405280600181526020016000815260200160008152602001600a8152602001600a8152602001600a8152602001600c8152602001600c8152602001600c8152602001600a815260200160018152602001600181526020016001815260200160018152602001600a815260200186815260200182815260200185151581526020016040518060e00160405280600081526020016000815260200160008152602001600081526020016000815260200160008152602001600081525081526020018481525082600301600084600101548152602001908152602001600020600082015181600001556020820151816001015560408201518160020155606082015181600301556080820151816004015560a0820151816005015560c0820151816006015560e082015181600701556101008201518160080155610120820151816009015561014082015181600a015561016082015181600b015561018082015181600c01556101a082015181600d01556101c082015181600e01556101e082015181600f019081611816919061306c565b5061020082015181601001908161182d919061306c565b506102208201518160110160006101000a81548160ff02191690831515021790555061024082015181601201600082015181600001556020820151816001015560408201518160020155606082015181600301556080820151816004015560a0820151816005015560c08201518160060155505061026082015181601901559050505b5b5b6040518060e00160405280600081526020016000815260200160008152602001600081526020016000815260200160008152602001600081525082600801600084600101548152602001908152602001600020600082015181600001556020820151816001015560408201518160020155606082015181600301556080820151816004015560a0820151816005015560c08201518160060155905050600182600601866040516119629190612d0f565b908152602001604051809103902060006101000a81548160ff021916908315150217905550338260020160008460010154815260200190815260200160002060006101000a81548173ffffffffffffffffffffffffffffffffffffffff021916908373ffffffffffffffffffffffffffffffffffffffff1602179055508160070160003373ffffffffffffffffffffffffffffffffffffffff1673ffffffffffffffffffffffffffffffffffffffff168152602001908152602001600020826001015490806001815401808255809150506001900390600052602060002001600090919091909150558160040160003373ffffffffffffffffffffffffffffffffffffffff1673ffffffffffffffffffffffffffffffffffffffff1681526020019081526020016000206000815480929190611a9d90612e78565b91905055505050505050565b611ab3838361207b565b611ac060008484846122aa565b611aff576040517f08c379a0000000000000000000000000000000000000000000000000000000008152600401611af690613550565b60405180910390fd5b505050565b6000611b0e611028565b90508060060184604051611b229190612d0f565b908152602001604051809103902060009054906101000a900460ff1615611b7e576040517f08c379a0000000000000000000000000000000000000000000000000000000008152600401611b759061318a565b60405180910390fd5b600a84511115611b8d57600080fd5b600384511015611b9c57600080fd5b806001016000815480929190611bb190612e78565b9190505550606083611bde5760405180608001604052806043815260200161394e60439139905080611bfb565b6040518060800160405280604381526020016138c8604391399050805b50604051806102800160405280600181526020016000815260200160008152602001600d8152602001600d8152602001600d8152602001600d8152602001600d8152602001600d8152602001600f815260200160018152602001600181526020016001815260200160018152602001600d815260200186815260200182815260200185151581526020016040518060e0016040528060008152602001600081526020016000815260200160008152602001600081526020016000815260200160008152508152602001600381525082600301600084600101548152602001908152602001600020600082015181600001556020820151816001015560408201518160020155606082015181600301556080820151816004015560a0820151816005015560c0820151816006015560e082015181600701556101008201518160080155610120820151816009015561014082015181600a015561016082015181600b015561018082015181600c01556101a082015181600d01556101c082015181600e01556101e082015181600f019081611d95919061306c565b50610200820151816010019081611dac919061306c565b506102208201518160110160006101000a81548160ff02191690831515021790555061024082015181601201600082015181600001556020820151816001015560408201518160020155606082015181600301556080820151816004015560a0820151816005015560c08201518160060155505061026082015181601901559050506040518060e00160405280600081526020016000815260200160008152602001600081526020016000815260200160008152602001600081525082600801600084600101548152602001908152602001600020600082015181600001556020820151816001015560408201518160020155606082015181600301556080820151816004015560a0820151816005015560c0820151816006015590505060018260060186604051611ede9190612d0f565b908152602001604051809103902060006101000a81548160ff021916908315150217905550828260020160008460010154815260200190815260200160002060006101000a81548173ffffffffffffffffffffffffffffffffffffffff021916908373ffffffffffffffffffffffffffffffffffffffff1602179055508160070160008473ffffffffffffffffffffffffffffffffffffffff1673ffffffffffffffffffffffffffffffffffffffff168152602001908152602001600020826001015490806001815401808255809150506001900390600052602060002001600090919091909150558160040160008473ffffffffffffffffffffffffffffffffffffffff1673ffffffffffffffffffffffffffffffffffffffff168152602001908152602001600020600081548092919061201990612e78565b91905055505050505050565b60008082905060005b84518110156120705761205b8286838151811061204e5761204d613570565b5b6020026020010151612431565b9150808061206890612e78565b91505061202e565b508091505092915050565b600073ffffffffffffffffffffffffffffffffffffffff168273ffffffffffffffffffffffffffffffffffffffff16036120ea576040517f08c379a00000000000000000000000000000000000000000000000000000000081526004016120e1906135eb565b60405180910390fd5b6120f38161245c565b15612133576040517f08c379a000000000000000000000000000000000000000000000000000000000815260040161212a90613657565b60405180910390fd5b61214160008383600161249d565b61214a8161245c565b1561218a576040517f08c379a000000000000000000000000000000000000000000000000000000000815260040161218190613657565b60405180910390fd5b60016121946124a3565b600a0160008473ffffffffffffffffffffffffffffffffffffffff1673ffffffffffffffffffffffffffffffffffffffff16815260200190815260200160002060008282540192505081905550816121ea6124a3565b600901600083815260200190815260200160002060006101000a81548173ffffffffffffffffffffffffffffffffffffffff021916908373ffffffffffffffffffffffffffffffffffffffff160217905550808273ffffffffffffffffffffffffffffffffffffffff16600073ffffffffffffffffffffffffffffffffffffffff167fddf252ad1be2c89b69c2b068fc378daa952ba7f163c4a11628f55a4df523b3ef60405160405180910390a46122a66000838360016124d0565b5050565b60006122cb8473ffffffffffffffffffffffffffffffffffffffff166124d6565b15612424578373ffffffffffffffffffffffffffffffffffffffff1663150b7a026122f46124f9565b8786866040518563ffffffff1660e01b815260040161231694939291906136ea565b6020604051808303816000875af192505050801561235257506040513d601f19601f8201168201806040525081019061234f919061378e565b60015b6123d4573d8060008114612382576040519150601f19603f3d011682016040523d82523d6000602084013e612387565b606091505b5060008151036123cc576040517f08c379a00000000000000000000000000000000000000000000000000000000081526004016123c390613550565b60405180910390fd5b805181602001fd5b63150b7a0260e01b7bffffffffffffffffffffffffffffffffffffffffffffffffffffffff1916817bffffffffffffffffffffffffffffffffffffffffffffffffffffffff191614915050612429565b600190505b949350505050565b6000818310612449576124448284612501565b612454565b6124538383612501565b5b905092915050565b60008073ffffffffffffffffffffffffffffffffffffffff1661247e83612518565b73ffffffffffffffffffffffffffffffffffffffff1614159050919050565b50505050565b6000807f2569078dfb4b0305704d3008e7403993ae9601b85f7ae5e742de3de8f8011c4090508091505090565b50505050565b6000808273ffffffffffffffffffffffffffffffffffffffff163b119050919050565b600033905090565b600082600052816020526040600020905092915050565b60006125226124a3565b600901600083815260200190815260200160002060009054906101000a900473ffffffffffffffffffffffffffffffffffffffff169050919050565b6040518060800160405280600081526020016000815260200160008019168152602001606081525090565b6000604051905090565b600080fd5b600080fd5b6000819050919050565b6125b08161259d565b81146125bb57600080fd5b50565b6000813590506125cd816125a7565b92915050565b6000602082840312156125e9576125e8612593565b5b60006125f7848285016125be565b91505092915050565b6126098161259d565b82525050565b6000819050919050565b6126228161260f565b82525050565b600081519050919050565b600082825260208201905092915050565b60005b83811015612662578082015181840152602081019050612647565b60008484015250505050565b6000601f19601f8301169050919050565b600061268a82612628565b6126948185612633565b93506126a4818560208601612644565b6126ad8161266e565b840191505092915050565b60006080830160008301516126d06000860182612600565b5060208301516126e36020860182612600565b5060408301516126f66040860182612619565b506060830151848203606086015261270e828261267f565b9150508091505092915050565b6000602082019050818103600083015261273581846126b8565b905092915050565b6127468161260f565b811461275157600080fd5b50565b6000813590506127638161273d565b92915050565b600080fd5b600080fd5b7f4e487b7100000000000000000000000000000000000000000000000000000000600052604160045260246000fd5b6127ab8261266e565b810181811067ffffffffffffffff821117156127ca576127c9612773565b5b80604052505050565b60006127dd612589565b90506127e982826127a2565b919050565b600067ffffffffffffffff82111561280957612808612773565b5b6128128261266e565b9050602081019050919050565b82818337600083830152505050565b600061284161283c846127ee565b6127d3565b90508281526020810184848401111561285d5761285c61276e565b5b61286884828561281f565b509392505050565b600082601f83011261288557612884612769565b5b813561289584826020860161282e565b91505092915050565b6000806000606084860312156128b7576128b6612593565b5b60006128c586828701612754565b935050602084013567ffffffffffffffff8111156128e6576128e5612598565b5b6128f286828701612870565b9250506040612903868287016125be565b9150509250925092565b600073ffffffffffffffffffffffffffffffffffffffff82169050919050565b60006129388261290d565b9050919050565b6129488161292d565b811461295357600080fd5b50565b6000813590506129658161293f565b92915050565b6000806040838503121561298257612981612593565b5b6000612990858286016125be565b92505060206129a185828601612956565b9150509250929050565b60008115159050919050565b6129c0816129ab565b82525050565b60006020820190506129db60008301846129b7565b92915050565b600080604083850312156129f8576129f7612593565b5b6000612a06858286016125be565b925050602083013567ffffffffffffffff811115612a2757612a26612598565b5b612a3385828601612870565b9150509250929050565b600080fd5b600080fd5b60008083601f840112612a5d57612a5c612769565b5b8235905067ffffffffffffffff811115612a7a57612a79612a3d565b5b602083019150836020820283011115612a9657612a95612a42565b5b9250929050565b612aa6816129ab565b8114612ab157600080fd5b50565b600081359050612ac381612a9d565b92915050565b60008060008060008060a08789031215612ae657612ae5612593565b5b6000612af489828a016125be565b965050602087013567ffffffffffffffff811115612b1557612b14612598565b5b612b2189828a01612a47565b9550955050604087013567ffffffffffffffff811115612b4457612b43612598565b5b612b5089828a01612870565b9350506060612b6189828a01612ab4565b9250506080612b7289828a016125be565b9150509295509295509295565b60008060008060608587031215612b9957612b98612593565b5b600085013567ffffffffffffffff811115612bb757612bb6612598565b5b612bc387828801612a47565b94509450506020612bd6878288016125be565b9250506040612be787828801612956565b91505092959194509250565b612bfc8161260f565b82525050565b6000602082019050612c176000830184612bf3565b92915050565b60008060008060008060a08789031215612c3a57612c39612593565b5b6000612c4889828a016125be565b965050602087013567ffffffffffffffff811115612c6957612c68612598565b5b612c7589828a01612a47565b9550955050604087013567ffffffffffffffff811115612c9857612c97612598565b5b612ca489828a01612870565b9350506060612cb589828a01612ab4565b9250506080612cc689828a01612956565b9150509295509295509295565b600081905092915050565b6000612ce982612628565b612cf38185612cd3565b9350612d03818560208601612644565b80840191505092915050565b6000612d1b8284612cde565b915081905092915050565b600081905092915050565b50565b6000612d41600083612d26565b9150612d4c82612d31565b600082019050919050565b6000612d6282612d34565b9150819050919050565b600082825260208201905092915050565b7f4661696c656420746f2073656e64204574686572000000000000000000000000600082015250565b6000612db3601483612d6c565b9150612dbe82612d7d565b602082019050919050565b60006020820190508181036000830152612de281612da6565b9050919050565b7f4e487b7100000000000000000000000000000000000000000000000000000000600052602260045260246000fd5b60006002820490506001821680612e3057607f821691505b602082108103612e4357612e42612de9565b5b50919050565b7f4e487b7100000000000000000000000000000000000000000000000000000000600052601160045260246000fd5b6000612e838261259d565b91507fffffffffffffffffffffffffffffffffffffffffffffffffffffffffffffffff8203612eb557612eb4612e49565b5b600182019050919050565b60008190508160005260206000209050919050565b60006020601f8301049050919050565b600082821b905092915050565b600060088302612f227fffffffffffffffffffffffffffffffffffffffffffffffffffffffffffffffff82612ee5565b612f2c8683612ee5565b95508019841693508086168417925050509392505050565b6000819050919050565b6000612f69612f64612f5f8461259d565b612f44565b61259d565b9050919050565b6000819050919050565b612f8383612f4e565b612f97612f8f82612f70565b848454612ef2565b825550505050565b600090565b612fac612f9f565b612fb7818484612f7a565b505050565b5b81811015612fdb57612fd0600082612fa4565b600181019050612fbd565b5050565b601f82111561302057612ff181612ec0565b612ffa84612ed5565b81016020851015613009578190505b61301d61301585612ed5565b830182612fbc565b50505b505050565b600082821c905092915050565b600061304360001984600802613025565b1980831691505092915050565b600061305c8383613032565b9150826002028217905092915050565b61307582612628565b67ffffffffffffffff81111561308e5761308d612773565b5b6130988254612e18565b6130a3828285612fdf565b600060209050601f8311600181146130d657600084156130c4578287015190505b6130ce8582613050565b865550613136565b601f1984166130e486612ec0565b60005b8281101561310c578489015182556001820191506020850194506020810190506130e7565b868310156131295784890151613125601f891682613032565b8355505b6001600288020188555050505b505050505050565b7f6e616d652069732074616b656e00000000000000000000000000000000000000600082015250565b6000613174600d83612d6c565b915061317f8261313e565b602082019050919050565b600060208201905081810360008301526131a381613167565b9050919050565b7f43616e6e6f74207061737320616e20656d707479206861736800000000000000600082015250565b60006131e0601983612d6c565b91506131eb826131aa565b602082019050919050565b6000602082019050818103600083015261320f816131d3565b9050919050565b7f43616e6e6f74206265206c6f6e676572207468616e2031302063686172730000600082015250565b600061324c601e83612d6c565b915061325782613216565b602082019050919050565b6000602082019050818103600083015261327b8161323f565b9050919050565b7f416464726573732068617320616c726561647920636c61696d6564207468652060008201527f64726f7000000000000000000000000000000000000000000000000000000000602082015250565b60006132de602483612d6c565b91506132e982613282565b604082019050919050565b6000602082019050818103600083015261330d816132d1565b9050919050565b60008160601b9050919050565b600061332c82613314565b9050919050565b600061333e82613321565b9050919050565b6133566133518261292d565b613333565b82525050565b60006133688284613345565b60148201915081905092915050565b7f496e76616c6964204d65726b6c652070726f6f66000000000000000000000000600082015250565b60006133ad601483612d6c565b91506133b882613377565b602082019050919050565b600060208201905081810360008301526133dc816133a0565b9050919050565b7f4261736500000000000000000000000000000000000000000000000000000000600082015250565b6000613419600483612cd3565b9150613424826133e3565b600482019050919050565b600061343a8261340c565b9150819050919050565b6000815461345181612e18565b61345b8186612cd3565b94506001821660008114613476576001811461348b576134be565b60ff19831686528115158202860193506134be565b61349485612ec0565b60005b838110156134b657815481890152600182019150602081019050613497565b838801955050505b50505092915050565b60006134d38284613444565b915081905092915050565b7f4552433732313a207472616e7366657220746f206e6f6e20455243373231526560008201527f63656976657220696d706c656d656e7465720000000000000000000000000000602082015250565b600061353a603283612d6c565b9150613545826134de565b604082019050919050565b600060208201905081810360008301526135698161352d565b9050919050565b7f4e487b7100000000000000000000000000000000000000000000000000000000600052603260045260246000fd5b7f4552433732313a206d696e7420746f20746865207a65726f2061646472657373600082015250565b60006135d5602083612d6c565b91506135e08261359f565b602082019050919050565b60006020820190508181036000830152613604816135c8565b9050919050565b7f4552433732313a20746f6b656e20616c7265616479206d696e74656400000000600082015250565b6000613641601c83612d6c565b915061364c8261360b565b602082019050919050565b6000602082019050818103600083015261367081613634565b9050919050565b6136808161292d565b82525050565b61368f8161259d565b82525050565b600081519050919050565b600082825260208201905092915050565b60006136bc82613695565b6136c681856136a0565b93506136d6818560208601612644565b6136df8161266e565b840191505092915050565b60006080820190506136ff6000830187613677565b61370c6020830186613677565b6137196040830185613686565b818103606083015261372b81846136b1565b905095945050505050565b60007fffffffff0000000000000000000000000000000000000000000000000000000082169050919050565b61376b81613736565b811461377657600080fd5b50565b60008151905061378881613762565b92915050565b6000602082840312156137a4576137a3612593565b5b60006137b284828501613779565b9150509291505056fe68747470733a2f2f697066732e696f2f697066732f516d556257785564387358344d5a6f6a4b455255506d507539597441596659726f425334546531484a454b75637968747470733a2f2f697066732e696f2f697066732f516d625641427439734b704e55613844674d4a64653344424351796f72534354395631447a6436634a385a556d5068747470733a2f2f697066732e696f2f697066732f516d66424e4870787077554e67747736695842784b584c6256786f6d386d7064427367715a5a79353970524d354368747470733a2f2f697066732e696f2f697066732f516d5158655965397278526b6b716645423744725a52534732533179724e676a363456386d3676374b65747a516468747470733a2f2f697066732e696f2f697066732f516d625166644c44315772527644684d3967644a7667423471344832665774594d6e4664544e747a6750444b413268747470733a2f2f697066732e696f2f697066732f516d55715a4b5275646e616e673147586244326e4848776d4a664e4e42465156646d6f483857416e65616969356868747470733a2f2f697066732e696f2f697066732f516d63506364536151474d52624468423777454666503754483932384e713948793447594a46674a45734461365068747470733a2f2f697066732e696f2f697066732f516d56357053734d47474d4c5733593979513871534c534d4451616b646e6a686a53346b356865366d4a79506548a264697066735822122048484dc14a4f00b9059fab333e5ecf4b153abfa3aeba893feedbe3d1000b6e8a64736f6c63430008120033",
  "linkReferences": {},
  "deployedLinkReferences": {}
}