{
  "_format": "hh-sol-artifact-1",
  "contractName": "TrainFacet",
  "sourceName": "contracts/facets/TrainFacet.sol",
  "abi": [
    {
      "anonymous": false,
      "inputs": [
        {
          "indexed": true,
          "internalType": "address",
          "name": "_playerAddress",
          "type": "address"
        },
        {
          "indexed": true,
          "internalType": "uint256",
          "name": "_id",
          "type": "uint256"
        }
      ],
      "name": "BeginTrainingBasicHealth",
      "type": "event"
    },
    {
      "anonymous": false,
      "inputs": [
        {
          "indexed": true,
          "internalType": "address",
          "name": "_playerAddress",
          "type": "address"
        },
        {
          "indexed": true,
          "internalType": "uint256",
          "name": "_id",
          "type": "uint256"
        }
      ],
      "name": "BeginTrainingMana",
      "type": "event"
    },
    {
      "anonymous": false,
      "inputs": [
        {
          "indexed": true,
          "internalType": "address",
          "name": "_playerAddress",
          "type": "address"
        },
        {
          "indexed": true,
          "internalType": "uint256",
          "name": "_id",
          "type": "uint256"
        }
      ],
      "name": "EndTrainingBasicHealth",
      "type": "event"
    },
    {
      "anonymous": false,
      "inputs": [
        {
          "indexed": true,
          "internalType": "address",
          "name": "_playerAddress",
          "type": "address"
        },
        {
          "indexed": true,
          "internalType": "uint256",
          "name": "_id",
          "type": "uint256"
        }
      ],
      "name": "EndTrainingMana",
      "type": "event"
    },
    {
      "inputs": [
        {
          "internalType": "uint256",
          "name": "_playerId",
          "type": "uint256"
        },
        {
          "internalType": "uint256",
          "name": "_newHealth",
          "type": "uint256"
        }
      ],
      "name": "adminMaxHealth",
      "outputs": [],
      "stateMutability": "nonpayable",
      "type": "function"
    },
    {
      "inputs": [
        {
          "internalType": "uint256",
          "name": "_playerId",
          "type": "uint256"
        }
      ],
      "name": "endTrainingBasicHealth",
      "outputs": [],
      "stateMutability": "nonpayable",
      "type": "function"
    },
    {
      "inputs": [
        {
          "internalType": "uint256",
          "name": "_tokenId",
          "type": "uint256"
        }
      ],
      "name": "endTrainingMana",
      "outputs": [],
      "stateMutability": "nonpayable",
      "type": "function"
    },
    {
      "inputs": [
        {
          "internalType": "uint256",
          "name": "_playerId",
          "type": "uint256"
        }
      ],
      "name": "getHealthStart",
      "outputs": [
        {
          "internalType": "uint256",
          "name": "",
          "type": "uint256"
        }
      ],
      "stateMutability": "view",
      "type": "function"
    },
    {
      "inputs": [
        {
          "internalType": "uint256",
          "name": "_playerId",
          "type": "uint256"
        }
      ],
      "name": "getManaStart",
      "outputs": [
        {
          "internalType": "uint256",
          "name": "",
          "type": "uint256"
        }
      ],
      "stateMutability": "view",
      "type": "function"
    },
    {
      "inputs": [
        {
          "internalType": "uint256",
          "name": "_playerId",
          "type": "uint256"
        }
      ],
      "name": "startTrainingBasicHealth",
      "outputs": [],
      "stateMutability": "nonpayable",
      "type": "function"
    },
    {
      "inputs": [
        {
          "internalType": "uint256",
          "name": "_tokenId",
          "type": "uint256"
        }
      ],
      "name": "startTrainingMana",
      "outputs": [],
      "stateMutability": "nonpayable",
      "type": "function"
    }
  ],
  "bytecode": "0x608060405234801561001057600080fd5b50610dac806100206000396000f3fe608060405234801561001057600080fd5b506004361061007d5760003560e01c806397dd85331161005b57806397dd8533146100ea5780639b7ea6a01461011a578063ea18fcb414610136578063fafe49f9146101525761007d565b80630448671a1461008257806363663597146100b257806367e128c7146100ce575b600080fd5b61009c60048036038101906100979190610b83565b61016e565b6040516100a99190610bbf565b60405180910390f35b6100cc60048036038101906100c79190610bda565b610180565b005b6100e860048036038101906100e39190610b83565b6101e0565b005b61010460048036038101906100ff9190610b83565b610230565b6040516101119190610bbf565b60405180910390f35b610134600480360381019061012f9190610b83565b610242565b005b610150600480360381019061014b9190610b83565b610292565b005b61016c60048036038101906101679190610b83565b6102e2565b005b600061017982610332565b9050919050565b600073434d36f32abed3f7937fe0be88dc1b0eb938124490508073ffffffffffffffffffffffffffffffffffffffff163373ffffffffffffffffffffffffffffffffffffffff16146101d157600080fd5b6101db838361035d565b505050565b6101e9816103a8565b803373ffffffffffffffffffffffffffffffffffffffff167f0fc1305841fd5e436d7fce87e426e4399a665e0ffd4b2714bdbac43ecdef049b60405160405180910390a350565b600061023b826105f7565b9050919050565b61024b81610622565b803373ffffffffffffffffffffffffffffffffffffffff167fffe9f752108573bd609233f01673e9bfbaef56b98963a8a184e5b57b605828b060405160405180910390a350565b61029b8161078c565b803373ffffffffffffffffffffffffffffffffffffffff167f172eb2159e304707e5a8c16968a3a6af367c81ee56a7138c8b4fc4b4bfaf898f60405160405180910390a350565b6102eb816108c8565b803373ffffffffffffffffffffffffffffffffffffffff167f9407a007e74ffbf636a5eb0a83e8c8ada5a48d29a8f156fc9318c01e94b3afc760405160405180910390a350565b60008061033d610aee565b905080600001600084815260200190815260200160002054915050919050565b6000610367610b1b565b905081816003016000858152602001908152602001600020600401819055508181600301600085815260200190815260200160002060050181905550505050565b60006103b2610b1b565b905060006103be610aee565b90503373ffffffffffffffffffffffffffffffffffffffff1682600201600085815260200190815260200160002060009054906101000a900473ffffffffffffffffffffffffffffffffffffffff1673ffffffffffffffffffffffffffffffffffffffff161461042d57600080fd5b6001826003016000858152602001908152602001600020600201541461045257600080fd5b600060148360030160008681526020019081526020016000206009015410156104a25782600301600085815260200190815260200160002060090154601e61049a9190610c49565b9050806104a8565b600a9050805b5080826000016000868152602001908152602001600020546104ca9190610c7d565b42101561050c576040517f08c379a000000000000000000000000000000000000000000000000000000000815260040161050390610d0e565b60405180910390fd5b60008360030160008681526020019081526020016000206002018190555081600001600085815260200190815260200160002060009055600383600301600086815260200190815260200160002060050154846003016000878152602001908152602001600020600401546105819190610c49565b106105bb57600383600301600086815260200190815260200160002060050160008282546105af9190610c7d565b925050819055506105f1565b82600301600085815260200190815260200160002060040154836003016000868152602001908152602001600020600501819055505b50505050565b600080610602610aee565b905080600101600084815260200190815260200160002054915050919050565b600061062c610b1b565b90506000610638610aee565b90506000826003016000858152602001908152602001600020600201541461065f57600080fd5b3373ffffffffffffffffffffffffffffffffffffffff1682600201600085815260200190815260200160002060009054906101000a900473ffffffffffffffffffffffffffffffffffffffff1673ffffffffffffffffffffffffffffffffffffffff16146106cc57600080fd5b81600301600084815260200190815260200160002060070154826003016000858152602001908152602001600020600801541161070857600080fd5b60018160040160008581526020019081526020016000205461072a9190610c7d565b42101561073657600080fd5b600382600301600085815260200190815260200160002060020181905550428160010160008581526020019081526020016000208190555080600401600084815260200190815260200160002060009055505050565b6000610796610b1b565b905060006107a2610aee565b9050600082600301600085815260200190815260200160002060020154146107c957600080fd5b3373ffffffffffffffffffffffffffffffffffffffff1682600201600085815260200190815260200160002060009054906101000a900473ffffffffffffffffffffffffffffffffffffffff1673ffffffffffffffffffffffffffffffffffffffff161461083657600080fd5b81600301600084815260200190815260200160002060050154826003016000858152602001908152602001600020600401541161087257600080fd5b600182600301600085815260200190815260200160002060020181905550428160000160008581526020019081526020016000208190555080600401600084815260200190815260200160002060009055505050565b60006108d2610b1b565b905060006108de610aee565b90503373ffffffffffffffffffffffffffffffffffffffff1682600201600085815260200190815260200160002060009054906101000a900473ffffffffffffffffffffffffffffffffffffffff1673ffffffffffffffffffffffffffffffffffffffff161461094d57600080fd5b6003826003016000858152602001908152602001600020600201541461097257600080fd5b600060968360030160008681526020019081526020016000206009015410156109c3578260030160008581526020019081526020016000206009015461012c6109bb9190610c49565b9050806109c9565b60969050805b5080826000016000868152602001908152602001600020546109eb9190610c7d565b421015610a2d576040517f08c379a0000000000000000000000000000000000000000000000000000000008152600401610a2490610d0e565b60405180910390fd5b600083600301600086815260200190815260200160002060020181905550816001016000858152602001908152602001600020600090554282600401600086815260200190815260200160002081905550826003016000858152602001908152602001600020600801548360030160008681526020019081526020016000206007015410610aba57600080fd5b8260030160008581526020019081526020016000206007016000815480929190610ae390610d2e565b919050555050505050565b6000807f69a36aa8a1def7c34163f21101855534226dbb17b620d65b1681d4d0b27f0b2e90508091505090565b6000807f3cab9a070a0c61cd0ae9d9e9e2c0781e5ca8691bec4087e5a4701d5ac018dd4e90508091505090565b600080fd5b6000819050919050565b610b6081610b4d565b8114610b6b57600080fd5b50565b600081359050610b7d81610b57565b92915050565b600060208284031215610b9957610b98610b48565b5b6000610ba784828501610b6e565b91505092915050565b610bb981610b4d565b82525050565b6000602082019050610bd46000830184610bb0565b92915050565b60008060408385031215610bf157610bf0610b48565b5b6000610bff85828601610b6e565b9250506020610c1085828601610b6e565b9150509250929050565b7f4e487b7100000000000000000000000000000000000000000000000000000000600052601160045260246000fd5b6000610c5482610b4d565b9150610c5f83610b4d565b9250828203905081811115610c7757610c76610c1a565b5b92915050565b6000610c8882610b4d565b9150610c9383610b4d565b9250828201905080821115610cab57610caa610c1a565b5b92915050565b600082825260208201905092915050565b7f6974277320746f6f206561726c7920746f2070756c6c206f7574000000000000600082015250565b6000610cf8601a83610cb1565b9150610d0382610cc2565b602082019050919050565b60006020820190508181036000830152610d2781610ceb565b9050919050565b6000610d3982610b4d565b91507fffffffffffffffffffffffffffffffffffffffffffffffffffffffffffffffff8203610d6b57610d6a610c1a565b5b60018201905091905056fea2646970667358221220663595f335a474274ef8bdfa1b5c5454064c9e074b7c36bce6ed094e439d745164736f6c63430008120033",
  "linkReferences": {},
  "deployedLinkReferences": {}
}