{
  "_format": "hh-sol-artifact-1",
  "contractName": "ArenaFacet",
  "sourceName": "contracts/facets/ArenaFacet.sol",
  "abi": [
    {
      "anonymous": false,
      "inputs": [
        {
          "indexed": true,
          "internalType": "uint256",
          "name": "_playerId",
          "type": "uint256"
        },
        {
          "indexed": true,
          "internalType": "uint256",
          "name": "_basicArenaId",
          "type": "uint256"
        }
      ],
      "name": "BasicArenaLoss",
      "type": "event"
    },
    {
      "anonymous": false,
      "inputs": [
        {
          "indexed": true,
          "internalType": "uint256",
          "name": "_playerId",
          "type": "uint256"
        },
        {
          "indexed": true,
          "internalType": "uint256",
          "name": "_basicArenaId",
          "type": "uint256"
        }
      ],
      "name": "BasicArenaWin",
      "type": "event"
    },
    {
      "anonymous": false,
      "inputs": [
        {
          "indexed": false,
          "internalType": "uint256",
          "name": "_basicArenaId",
          "type": "uint256"
        },
        {
          "components": [
            {
              "internalType": "uint256",
              "name": "basicArenaId",
              "type": "uint256"
            },
            {
              "internalType": "uint256",
              "name": "cost",
              "type": "uint256"
            },
            {
              "internalType": "uint256",
              "name": "cooldown",
              "type": "uint256"
            },
            {
              "internalType": "uint256",
              "name": "hostId",
              "type": "uint256"
            },
            {
              "internalType": "bool",
              "name": "open",
              "type": "bool"
            },
            {
              "internalType": "address payable",
              "name": "hostAddress",
              "type": "address"
            },
            {
              "internalType": "string",
              "name": "name",
              "type": "string"
            },
            {
              "internalType": "string",
              "name": "url",
              "type": "string"
            }
          ],
          "indexed": false,
          "internalType": "struct BasicArena",
          "name": "_basicArena",
          "type": "tuple"
        }
      ],
      "name": "CreateBasicArena",
      "type": "event"
    },
    {
      "anonymous": false,
      "inputs": [
        {
          "indexed": false,
          "internalType": "uint256",
          "name": "_hillArenaId",
          "type": "uint256"
        },
        {
          "components": [
            {
              "internalType": "uint256",
              "name": "hillArenaId",
              "type": "uint256"
            },
            {
              "internalType": "uint256",
              "name": "cost",
              "type": "uint256"
            },
            {
              "internalType": "uint256",
              "name": "cooldown",
              "type": "uint256"
            },
            {
              "internalType": "uint256",
              "name": "hostId",
              "type": "uint256"
            },
            {
              "internalType": "uint256",
              "name": "wins",
              "type": "uint256"
            },
            {
              "internalType": "bool",
              "name": "open",
              "type": "bool"
            },
            {
              "internalType": "address payable",
              "name": "hostAddress",
              "type": "address"
            },
            {
              "internalType": "string",
              "name": "name",
              "type": "string"
            },
            {
              "internalType": "string",
              "name": "url",
              "type": "string"
            }
          ],
          "indexed": false,
          "internalType": "struct HillArena",
          "name": "_hillArena",
          "type": "tuple"
        }
      ],
      "name": "CreateHillArena",
      "type": "event"
    },
    {
      "anonymous": false,
      "inputs": [
        {
          "indexed": true,
          "internalType": "uint256",
          "name": "_playerId",
          "type": "uint256"
        },
        {
          "indexed": true,
          "internalType": "uint256",
          "name": "_basicArenaId",
          "type": "uint256"
        }
      ],
      "name": "EnterBasicArena",
      "type": "event"
    },
    {
      "anonymous": false,
      "inputs": [
        {
          "indexed": true,
          "internalType": "uint256",
          "name": "_playerId",
          "type": "uint256"
        },
        {
          "indexed": true,
          "internalType": "uint256",
          "name": "_hillArenaId",
          "type": "uint256"
        },
        {
          "indexed": true,
          "internalType": "uint256",
          "name": "_timestamp",
          "type": "uint256"
        }
      ],
      "name": "EnterHillArena",
      "type": "event"
    },
    {
      "anonymous": false,
      "inputs": [
        {
          "indexed": true,
          "internalType": "uint256",
          "name": "_playerId",
          "type": "uint256"
        },
        {
          "indexed": true,
          "internalType": "uint256",
          "name": "_basicArenaId",
          "type": "uint256"
        }
      ],
      "name": "LeaveBasicArena",
      "type": "event"
    },
    {
      "inputs": [
        {
          "internalType": "uint256",
          "name": "_cost",
          "type": "uint256"
        },
        {
          "internalType": "uint256",
          "name": "_cooldown",
          "type": "uint256"
        },
        {
          "internalType": "string",
          "name": "_name",
          "type": "string"
        },
        {
          "internalType": "string",
          "name": "_uri",
          "type": "string"
        }
      ],
      "name": "createBasicArena",
      "outputs": [],
      "stateMutability": "nonpayable",
      "type": "function"
    },
    {
      "inputs": [
        {
          "internalType": "uint256",
          "name": "_cost",
          "type": "uint256"
        },
        {
          "internalType": "uint256",
          "name": "_cooldown",
          "type": "uint256"
        },
        {
          "internalType": "string",
          "name": "_name",
          "type": "string"
        },
        {
          "internalType": "string",
          "name": "_uri",
          "type": "string"
        }
      ],
      "name": "createHillArena",
      "outputs": [],
      "stateMutability": "nonpayable",
      "type": "function"
    },
    {
      "inputs": [
        {
          "internalType": "uint256",
          "name": "_playerId",
          "type": "uint256"
        },
        {
          "internalType": "uint256",
          "name": "_basicArenaId",
          "type": "uint256"
        }
      ],
      "name": "enterBasicArena",
      "outputs": [],
      "stateMutability": "nonpayable",
      "type": "function"
    },
    {
      "inputs": [
        {
          "internalType": "uint256",
          "name": "_playerId",
          "type": "uint256"
        },
        {
          "internalType": "uint256",
          "name": "_hillArenaId",
          "type": "uint256"
        }
      ],
      "name": "enterHillArena",
      "outputs": [],
      "stateMutability": "nonpayable",
      "type": "function"
    },
    {
      "inputs": [
        {
          "internalType": "uint256",
          "name": "_playerId",
          "type": "uint256"
        },
        {
          "internalType": "uint256",
          "name": "_basicArenaId",
          "type": "uint256"
        }
      ],
      "name": "fightBaiscArena",
      "outputs": [],
      "stateMutability": "nonpayable",
      "type": "function"
    },
    {
      "inputs": [
        {
          "internalType": "uint256",
          "name": "_playerId",
          "type": "uint256"
        },
        {
          "internalType": "uint256",
          "name": "_hillArenaId",
          "type": "uint256"
        }
      ],
      "name": "fightHillArena",
      "outputs": [],
      "stateMutability": "nonpayable",
      "type": "function"
    },
    {
      "inputs": [
        {
          "internalType": "uint256",
          "name": "_basicArenaId",
          "type": "uint256"
        }
      ],
      "name": "getBasicArena",
      "outputs": [
        {
          "components": [
            {
              "internalType": "uint256",
              "name": "basicArenaId",
              "type": "uint256"
            },
            {
              "internalType": "uint256",
              "name": "cost",
              "type": "uint256"
            },
            {
              "internalType": "uint256",
              "name": "cooldown",
              "type": "uint256"
            },
            {
              "internalType": "uint256",
              "name": "hostId",
              "type": "uint256"
            },
            {
              "internalType": "bool",
              "name": "open",
              "type": "bool"
            },
            {
              "internalType": "address payable",
              "name": "hostAddress",
              "type": "address"
            },
            {
              "internalType": "string",
              "name": "name",
              "type": "string"
            },
            {
              "internalType": "string",
              "name": "url",
              "type": "string"
            }
          ],
          "internalType": "struct BasicArena",
          "name": "",
          "type": "tuple"
        }
      ],
      "stateMutability": "view",
      "type": "function"
    },
    {
      "inputs": [
        {
          "internalType": "uint256",
          "name": "_playerId",
          "type": "uint256"
        },
        {
          "internalType": "uint256",
          "name": "_basicArenaId",
          "type": "uint256"
        }
      ],
      "name": "getBasicArenaCooldowns",
      "outputs": [
        {
          "internalType": "uint256",
          "name": "",
          "type": "uint256"
        }
      ],
      "stateMutability": "view",
      "type": "function"
    },
    {
      "inputs": [],
      "name": "getBasicArenaCount",
      "outputs": [
        {
          "internalType": "uint256",
          "name": "",
          "type": "uint256"
        }
      ],
      "stateMutability": "view",
      "type": "function"
    },
    {
      "inputs": [
        {
          "internalType": "address",
          "name": "_address",
          "type": "address"
        }
      ],
      "name": "getGoldBalance",
      "outputs": [
        {
          "internalType": "uint256",
          "name": "",
          "type": "uint256"
        }
      ],
      "stateMutability": "view",
      "type": "function"
    },
    {
      "inputs": [
        {
          "internalType": "uint256",
          "name": "_hillArenaId",
          "type": "uint256"
        }
      ],
      "name": "getHillArena",
      "outputs": [
        {
          "components": [
            {
              "internalType": "uint256",
              "name": "hillArenaId",
              "type": "uint256"
            },
            {
              "internalType": "uint256",
              "name": "cost",
              "type": "uint256"
            },
            {
              "internalType": "uint256",
              "name": "cooldown",
              "type": "uint256"
            },
            {
              "internalType": "uint256",
              "name": "hostId",
              "type": "uint256"
            },
            {
              "internalType": "uint256",
              "name": "wins",
              "type": "uint256"
            },
            {
              "internalType": "bool",
              "name": "open",
              "type": "bool"
            },
            {
              "internalType": "address payable",
              "name": "hostAddress",
              "type": "address"
            },
            {
              "internalType": "string",
              "name": "name",
              "type": "string"
            },
            {
              "internalType": "string",
              "name": "url",
              "type": "string"
            }
          ],
          "internalType": "struct HillArena",
          "name": "",
          "type": "tuple"
        }
      ],
      "stateMutability": "view",
      "type": "function"
    },
    {
      "inputs": [
        {
          "internalType": "uint256",
          "name": "_playerId",
          "type": "uint256"
        },
        {
          "internalType": "uint256",
          "name": "_hillArenaId",
          "type": "uint256"
        }
      ],
      "name": "getHillArenaCooldowns",
      "outputs": [
        {
          "internalType": "uint256",
          "name": "",
          "type": "uint256"
        }
      ],
      "stateMutability": "view",
      "type": "function"
    },
    {
      "inputs": [],
      "name": "getHillArenaCount",
      "outputs": [
        {
          "internalType": "uint256",
          "name": "",
          "type": "uint256"
        }
      ],
      "stateMutability": "view",
      "type": "function"
    },
    {
      "inputs": [
        {
          "internalType": "uint256",
          "name": "_playerId",
          "type": "uint256"
        }
      ],
      "name": "getTotalLosses",
      "outputs": [
        {
          "internalType": "uint256",
          "name": "",
          "type": "uint256"
        }
      ],
      "stateMutability": "view",
      "type": "function"
    },
    {
      "inputs": [
        {
          "internalType": "uint256",
          "name": "_playerId",
          "type": "uint256"
        }
      ],
      "name": "getTotalWins",
      "outputs": [
        {
          "internalType": "uint256",
          "name": "",
          "type": "uint256"
        }
      ],
      "stateMutability": "view",
      "type": "function"
    },
    {
      "inputs": [
        {
          "internalType": "uint256",
          "name": "_playerId",
          "type": "uint256"
        },
        {
          "internalType": "uint256",
          "name": "_basicArenaId",
          "type": "uint256"
        }
      ],
      "name": "leaveBasicArena",
      "outputs": [],
      "stateMutability": "nonpayable",
      "type": "function"
    },
    {
      "inputs": [
        {
          "internalType": "uint256",
          "name": "_playerId",
          "type": "uint256"
        },
        {
          "internalType": "uint256",
          "name": "_basicArenaId",
          "type": "uint256"
        }
      ],
      "name": "leaveHillArena",
      "outputs": [],
      "stateMutability": "nonpayable",
      "type": "function"
    }
  ],
  "bytecode": "0x608060405234801561001057600080fd5b506137cf806100206000396000f3fe608060405234801561001057600080fd5b506004361061010b5760003560e01c806366731384116100a2578063c7f3ade511610071578063c7f3ade5146102c8578063c8fe5c47146102e4578063cc8d469d14610300578063d4945a2114610330578063fb944ffc1461034c5761010b565b8063667313841461024457806391ed95eb1461026057806394c9d0f81461027c578063b05a86fc146102ac5761010b565b80633d8a082f116100de5780633d8a082f146101985780634f7d08e5146101b457806351aa518f146101e457806354e8a31a146102145761010b565b80630b93942a1461011057806314be76a91461012c5780632d2c17be1461014a5780633707caf214610168575b600080fd5b61012a60048036038101906101259190612ae1565b61037c565b005b6101346103b8565b6040516101419190612b30565b60405180910390f35b6101526103c7565b60405161015f9190612b30565b60405180910390f35b610182600480360381019061017d9190612ba9565b6103d6565b60405161018f9190612b30565b60405180910390f35b6101b260048036038101906101ad9190612ae1565b6103e8565b005b6101ce60048036038101906101c99190612bd6565b610424565b6040516101db9190612b30565b60405180910390f35b6101fe60048036038101906101f99190612ae1565b610436565b60405161020b9190612b30565b60405180910390f35b61022e60048036038101906102299190612bd6565b61044a565b60405161023b9190612d95565b60405180910390f35b61025e60048036038101906102599190612ae1565b610462565b005b61027a60048036038101906102759190612eec565b6104e0565b005b61029660048036038101906102919190612bd6565b610592565b6040516102a39190613057565b60405180910390f35b6102c660048036038101906102c19190612ae1565b6105aa565b005b6102e260048036038101906102dd9190612ae1565b6105e7565b005b6102fe60048036038101906102f99190612ae1565b61065e565b005b61031a60048036038101906103159190612ae1565b61069a565b6040516103279190612b30565b60405180910390f35b61034a60048036038101906103459190612eec565b6106ae565b005b61036660048036038101906103619190612bd6565b610760565b6040516103739190612b30565b60405180910390f35b6103868282610772565b80827f429a014671400a39eaa0b16744a56044df14e9b9124a3919f8425a0b471e25e960405160405180910390a35050565b60006103c2610b10565b905090565b60006103d1610b28565b905090565b60006103e182610b40565b9050919050565b6103f28282610b97565b80827ff4debd39acd9b010e1276185a3f67b145758748b94e0145ce176c42ae6d27a4f60405160405180910390a35050565b600061042f82610e1e565b9050919050565b60006104428383610e49565b905092915050565b6104526129d6565b61045b82610e86565b9050919050565b60008060006104718585611080565b80935081945082955050505083837fe5783c40c14d69971fbf9d435486b3a0469a026e4cacbd5e543c18ddd293eca560405160405180910390a383827ff07fe1bc469a482805ec42d00e7477d9bacbd901aedac046ea74d6a10ce2b04a60405160405180910390a35050505050565b600073434d36f32abed3f7937fe0be88dc1b0eb938124490508073ffffffffffffffffffffffffffffffffffffffff163373ffffffffffffffffffffffffffffffffffffffff161461053157600080fd5b61053d85858585611673565b6000610547610b28565b90507fa8944f13c384569cd759dea69a02c83263e937c72f585de37fa46b4bb55b6b08816105748361044a565b604051610582929190613079565b60405180910390a1505050505050565b61059a612a33565b6105a3826117cf565b9050919050565b6105b482826119d3565b4281837fa85bf3592018078e152218683b8117662b84e8f5504dcdffe66ca644596773c860405160405180910390a45050565b6000806105f48484611d9c565b809250819350505082827fe5783c40c14d69971fbf9d435486b3a0469a026e4cacbd5e543c18ddd293eca560405160405180910390a382817ff07fe1bc469a482805ec42d00e7477d9bacbd901aedac046ea74d6a10ce2b04a60405160405180910390a350505050565b6106688282612306565b80827ff4debd39acd9b010e1276185a3f67b145758748b94e0145ce176c42ae6d27a4f60405160405180910390a35050565b60006106a68383612530565b905092915050565b600073434d36f32abed3f7937fe0be88dc1b0eb938124490508073ffffffffffffffffffffffffffffffffffffffff163373ffffffffffffffffffffffffffffffffffffffff16146106ff57600080fd5b61070b8585858561256d565b6000610715610b10565b90507f5e64a64df4e766b025130654d26a6cad9aea0a4bb742a5593d5ee1c573e680ad8161074283610592565b6040516107509291906130a9565b60405180910390a1505050505050565b600061076b826126db565b9050919050565b600061077c612706565b90506000610788612733565b90506000610794612760565b9050600083600301600087815260200190815260200160002060020154146107bb57600080fd5b3373ffffffffffffffffffffffffffffffffffffffff1683600201600087815260200190815260200160002060009054906101000a900473ffffffffffffffffffffffffffffffffffffffff1673ffffffffffffffffffffffffffffffffffffffff161461082857600080fd5b600081600101600086815260200190815260200160002090508060040160009054906101000a900460ff16610892576040517f08c379a000000000000000000000000000000000000000000000000000000000815260040161088990613136565b60405180910390fd5b6000600282600201546108a591906131b4565b85600301600089815260200190815260200160002060090154101561090c57600a85600301600089815260200190815260200160002060090154600284600201546108f091906131b4565b6108fa91906131e5565b6109049190613219565b905080610921565b6002826002015461091d91906131b4565b9050805b50808360020160008881526020019081526020016000206000898152602001908152602001600020546109549190613219565b42101561096057600080fd5b81600101548460010160003373ffffffffffffffffffffffffffffffffffffffff1673ffffffffffffffffffffffffffffffffffffffff1681526020019081526020016000205410156109e8576040517f08c379a00000000000000000000000000000000000000000000000000000000081526004016109df90613299565b60405180910390fd5b81600101548460010160003373ffffffffffffffffffffffffffffffffffffffff1673ffffffffffffffffffffffffffffffffffffffff1681526020019081526020016000206000828254610a3d91906131e5565b92505081905550600485600301600089815260200190815260200160002060020181905550600083600101600088815260200190815260200160002060040160006101000a81548160ff02191690831515021790555086836001016000888152602001908152602001600020600301819055503383600101600088815260200190815260200160002060040160016101000a81548173ffffffffffffffffffffffffffffffffffffffff021916908373ffffffffffffffffffffffffffffffffffffffff16021790555050505050505050565b600080610b1b612760565b9050806003015491505090565b600080610b33612760565b9050806000015491505090565b600080610b4b612733565b90508060010160008473ffffffffffffffffffffffffffffffffffffffff1673ffffffffffffffffffffffffffffffffffffffff16815260200190815260200160002054915050919050565b6000610ba1612760565b90506000610bad612706565b90506000610bb9612733565b9050848360040160008681526020019081526020016000206003015414610c15576040517f08c379a0000000000000000000000000000000000000000000000000000000008152600401610c0c90613305565b60405180910390fd5b60048260030160008781526020019081526020016000206002015414610c70576040517f08c379a0000000000000000000000000000000000000000000000000000000008152600401610c6790613371565b60405180910390fd5b3373ffffffffffffffffffffffffffffffffffffffff1682600201600087815260200190815260200160002060009054906101000a900473ffffffffffffffffffffffffffffffffffffffff1673ffffffffffffffffffffffffffffffffffffffff1614610cdd57600080fd5b600083600401600086815260200190815260200160002060030181905550600183600401600086815260200190815260200160002060050160006101000a81548160ff021916908315150217905550600082600301600087815260200190815260200160002060020181905550826001016000858152602001908152602001600020600101548160010160003373ffffffffffffffffffffffffffffffffffffffff1673ffffffffffffffffffffffffffffffffffffffff1681526020019081526020016000206000828254610db39190613219565b9250508190555082600701600085815260200190815260200160002060008681526020019081526020016000205442610dec91906131e5565b8360050160008781526020019081526020016000206000828254610e109190613219565b925050819055505050505050565b600080610e29612760565b905080600a01600084815260200190815260200160002054915050919050565b600080610e54612760565b905080600601600084815260200190815260200160002060008581526020019081526020016000205491505092915050565b610e8e6129d6565b6000610e98612760565b905080600101600084815260200190815260200160002060405180610100016040529081600082015481526020016001820154815260200160028201548152602001600382015481526020016004820160009054906101000a900460ff161515151581526020016004820160019054906101000a900473ffffffffffffffffffffffffffffffffffffffff1673ffffffffffffffffffffffffffffffffffffffff1673ffffffffffffffffffffffffffffffffffffffff168152602001600582018054610f64906133c0565b80601f0160208091040260200160405190810160405280929190818152602001828054610f90906133c0565b8015610fdd5780601f10610fb257610100808354040283529160200191610fdd565b820191906000526020600020905b815481529060010190602001808311610fc057829003601f168201915b50505050508152602001600682018054610ff6906133c0565b80601f0160208091040260200160405190810160405280929190818152602001828054611022906133c0565b801561106f5780601f106110445761010080835404028352916020019161106f565b820191906000526020600020905b81548152906001019060200180831161105257829003601f168201915b505050505081525050915050919050565b60008060008061108e612706565b9050600061109a612733565b905060006110a6612760565b905060008360030160008a815260200190815260200160002060020154146110cd57600080fd5b3373ffffffffffffffffffffffffffffffffffffffff168360020160008a815260200190815260200160002060009054906101000a900473ffffffffffffffffffffffffffffffffffffffff1673ffffffffffffffffffffffffffffffffffffffff161461113a57600080fd5b600081600401600089815260200190815260200160002090508060050160009054906101000a900460ff16156111a5576040517f08c379a000000000000000000000000000000000000000000000000000000000815260040161119c90613136565b60405180910390fd5b6000600282600201546111b891906131b4565b8560030160008c815260200190815260200160002060090154101561121f57600a8560030160008c8152602001908152602001600020600901546002846002015461120391906131b4565b61120d91906131e5565b6112179190613219565b905080611234565b6002826002015461123091906131b4565b9050805b50808360060160008b815260200190815260200160002060008c8152602001908152602001600020546112679190613219565b42101561127357600080fd5b81600101548460010160003373ffffffffffffffffffffffffffffffffffffffff1673ffffffffffffffffffffffffffffffffffffffff1681526020019081526020016000205410156112fb576040517f08c379a00000000000000000000000000000000000000000000000000000000081526004016112f290613299565b60405180910390fd5b600061130b83600301548c61278d565b90506000808c830361148e578c91508460030154905085600a0160008e81526020019081526020016000206000815480929190611347906133f1565b919050555085600b016000866003015481526020019081526020016000206000815480929190611376906133f1565b919050555084600101548760010160003373ffffffffffffffffffffffffffffffffffffffff1673ffffffffffffffffffffffffffffffffffffffff16815260200190815260200160002060008282546113d09190613219565b92505081905550428660070160008e815260200190815260200160002060008f8152602001908152602001600020819055508560070160008d8152602001908152602001600020600086600301548152602001908152602001600020544261143891906131e5565b8660050160008760030154815260200190815260200160002060008282546114609190613219565b92505081905550600088600301600087600301548152602001908152602001600020600201819055506115db565b846003015491508c905085600a0160008660030154815260200190815260200160002060008154809291906114c2906133f1565b919050555085600b0160008e815260200190815260200160002060008154809291906114ed906133f1565b9190505550600285600101546115039190613439565b8760010160008760050160019054906101000a900473ffffffffffffffffffffffffffffffffffffffff1673ffffffffffffffffffffffffffffffffffffffff1673ffffffffffffffffffffffffffffffffffffffff16815260200190815260200160002060008282546115779190613219565b9250508190555084600101548760010160003373ffffffffffffffffffffffffffffffffffffffff1673ffffffffffffffffffffffffffffffffffffffff16815260200190815260200160002060008282546115d391906131e5565b925050819055505b428660060160008e815260200190815260200160002060008f815260200190815260200160002081905550428660060160008e81526020019081526020016000206000876003015481526020019081526020016000208190555081818760070160008f81526020019081526020016000206000858152602001908152602001600020549a509a509a5050505050505050509250925092565b600061167d612760565b9050806000016000815480929190611694906133f1565b919050555060405180610100016040528082600001548152602001868152602001858152602001600081526020016001151581526020013373ffffffffffffffffffffffffffffffffffffffff16815260200184815260200183815250816001016000836000015481526020019081526020016000206000820151816000015560208201518160010155604082015181600201556060820151816003015560808201518160040160006101000a81548160ff02191690831515021790555060a08201518160040160016101000a81548173ffffffffffffffffffffffffffffffffffffffff021916908373ffffffffffffffffffffffffffffffffffffffff16021790555060c08201518160050190816117ae9190613627565b5060e08201518160060190816117c49190613627565b509050505050505050565b6117d7612a33565b60006117e1612760565b90508060040160008481526020019081526020016000206040518061012001604052908160008201548152602001600182015481526020016002820154815260200160038201548152602001600482015481526020016005820160009054906101000a900460ff161515151581526020016005820160019054906101000a900473ffffffffffffffffffffffffffffffffffffffff1673ffffffffffffffffffffffffffffffffffffffff1673ffffffffffffffffffffffffffffffffffffffff1681526020016006820180546118b7906133c0565b80601f01602080910402602001604051908101604052809291908181526020018280546118e3906133c0565b80156119305780601f1061190557610100808354040283529160200191611930565b820191906000526020600020905b81548152906001019060200180831161191357829003601f168201915b50505050508152602001600782018054611949906133c0565b80601f0160208091040260200160405190810160405280929190818152602001828054611975906133c0565b80156119c25780601f10611997576101008083540402835291602001916119c2565b820191906000526020600020905b8154815290600101906020018083116119a557829003601f168201915b505050505081525050915050919050565b60006119dd612706565b905060006119e9612760565b905060006119f5612733565b905060008360030160008781526020019081526020016000206002015414611a1c57600080fd5b3373ffffffffffffffffffffffffffffffffffffffff1683600201600087815260200190815260200160002060009054906101000a900473ffffffffffffffffffffffffffffffffffffffff1673ffffffffffffffffffffffffffffffffffffffff1614611a8957600080fd5b600082600401600086815260200190815260200160002090508060050160009054906101000a900460ff16611af3576040517f08c379a0000000000000000000000000000000000000000000000000000000008152600401611aea90613136565b60405180910390fd5b80600101548260010160003373ffffffffffffffffffffffffffffffffffffffff1673ffffffffffffffffffffffffffffffffffffffff168152602001908152602001600020541015611b7b576040517f08c379a0000000000000000000000000000000000000000000000000000000008152600401611b7290613299565b60405180910390fd5b80600101548260010160003373ffffffffffffffffffffffffffffffffffffffff1673ffffffffffffffffffffffffffffffffffffffff1681526020019081526020016000206000828254611bd091906131e5565b92505081905550600060028260020154611bea91906131b4565b856003016000898152602001908152602001600020600901541015611c5157600a8560030160008981526020019081526020016000206009015460028460020154611c3591906131b4565b611c3f91906131e5565b611c499190613219565b905080611c66565b60028260020154611c6291906131b4565b9050805b5080846006016000888152602001908152602001600020600089815260200190815260200160002054611c999190613219565b421015611ca557600080fd5b600485600301600089815260200190815260200160002060020181905550600084600401600088815260200190815260200160002060050160006101000a81548160ff02191690831515021790555086846004016000888152602001908152602001600020600301819055503384600401600088815260200190815260200160002060050160016101000a81548173ffffffffffffffffffffffffffffffffffffffff021916908373ffffffffffffffffffffffffffffffffffffffff1602179055504284600701600088815260200190815260200160002060008981526020019081526020016000208190555050505050505050565b6000806000611da9612706565b90506000611db5612733565b90506000611dc1612760565b905060008360030160008981526020019081526020016000206002015414611de857600080fd5b3373ffffffffffffffffffffffffffffffffffffffff1683600201600089815260200190815260200160002060009054906101000a900473ffffffffffffffffffffffffffffffffffffffff1673ffffffffffffffffffffffffffffffffffffffff1614611e5557600080fd5b600081600101600088815260200190815260200160002090508060040160009054906101000a900460ff1615611ec0576040517f08c379a0000000000000000000000000000000000000000000000000000000008152600401611eb790613136565b60405180910390fd5b600060028260020154611ed391906131b4565b8560030160008b8152602001908152602001600020600901541015611f3a57600a8560030160008b81526020019081526020016000206009015460028460020154611f1e91906131b4565b611f2891906131e5565b611f329190613219565b905080611f4f565b60028260020154611f4b91906131b4565b9050805b50808360020160008a815260200190815260200160002060008b815260200190815260200160002054611f829190613219565b421015611f8e57600080fd5b81600101548460010160003373ffffffffffffffffffffffffffffffffffffffff1673ffffffffffffffffffffffffffffffffffffffff168152602001908152602001600020541015612016576040517f08c379a000000000000000000000000000000000000000000000000000000000815260040161200d90613299565b60405180910390fd5b600061202683600301548b61278d565b90506000808b83036120f7578b91508460030154905085600a0160008d81526020019081526020016000206000815480929190612062906133f1565b919050555085600b016000866003015481526020019081526020016000206000815480929190612091906133f1565b919050555084600101548760010160003373ffffffffffffffffffffffffffffffffffffffff1673ffffffffffffffffffffffffffffffffffffffff16815260200190815260200160002060008282546120eb9190613219565b92505081905550612244565b846003015491508b905085600a01600086600301548152602001908152602001600020600081548092919061212b906133f1565b919050555085600b0160008d81526020019081526020016000206000815480929190612156906133f1565b91905055506002856001015461216c9190613439565b8760010160008760040160019054906101000a900473ffffffffffffffffffffffffffffffffffffffff1673ffffffffffffffffffffffffffffffffffffffff1673ffffffffffffffffffffffffffffffffffffffff16815260200190815260200160002060008282546121e09190613219565b9250508190555084600101548760010160003373ffffffffffffffffffffffffffffffffffffffff1673ffffffffffffffffffffffffffffffffffffffff168152602001908152602001600020600082825461223c91906131e5565b925050819055505b428660020160008d815260200190815260200160002060008e815260200190815260200160002081905550428660020160008d81526020019081526020016000206000876003015481526020019081526020016000208190555060018660010160008d815260200190815260200160002060040160006101000a81548160ff0219169083151502179055506000886003016000876003015481526020019081526020016000206002018190555081819950995050505050505050509250929050565b6000612310612760565b9050600061231c612706565b90506000612328612733565b9050848360010160008681526020019081526020016000206003015414612384576040517f08c379a000000000000000000000000000000000000000000000000000000000815260040161237b90613305565b60405180910390fd5b600482600301600087815260200190815260200160002060020154146123df576040517f08c379a00000000000000000000000000000000000000000000000000000000081526004016123d690613371565b60405180910390fd5b3373ffffffffffffffffffffffffffffffffffffffff1682600201600087815260200190815260200160002060009054906101000a900473ffffffffffffffffffffffffffffffffffffffff1673ffffffffffffffffffffffffffffffffffffffff161461244c57600080fd5b600083600101600086815260200190815260200160002060030181905550600183600101600086815260200190815260200160002060040160006101000a81548160ff021916908315150217905550600082600301600087815260200190815260200160002060020181905550826001016000858152602001908152602001600020600101548160010160003373ffffffffffffffffffffffffffffffffffffffff1673ffffffffffffffffffffffffffffffffffffffff16815260200190815260200160002060008282546125229190613219565b925050819055505050505050565b60008061253b612760565b905080600201600084815260200190815260200160002060008581526020019081526020016000205491505092915050565b6000612577612760565b905080600301600081548092919061258e906133f1565b91905055506040518061012001604052808260030154815260200186815260200185815260200160008152602001600081526020016001151581526020013373ffffffffffffffffffffffffffffffffffffffff1681526020018481526020018381525081600401600083600301548152602001908152602001600020600082015181600001556020820151816001015560408201518160020155606082015181600301556080820151816004015560a08201518160050160006101000a81548160ff02191690831515021790555060c08201518160050160016101000a81548173ffffffffffffffffffffffffffffffffffffffff021916908373ffffffffffffffffffffffffffffffffffffffff16021790555060e08201518160060190816126b99190613627565b506101008201518160070190816126d09190613627565b509050505050505050565b6000806126e6612760565b905080600b01600084815260200190815260200160002054915050919050565b6000807f3cab9a070a0c61cd0ae9d9e9e2c0781e5ca8691bec4087e5a4701d5ac018dd4e90508091505090565b6000807f2c89d74504b6ad8d4fbde22bc3474166bac5452a11195897f239d8bebe02d70790508091505090565b6000807f1b1c2350f60dba32e7a2436167ce3f8399cd1c51a95c8577f1448f53846d4cda90508091505090565b600080612798612706565b9050600081600301600086815260200190815260200160002090506000826003016000868152602001908152602001600020905060006127dc868360030154612954565b905060006127ee888560030154612954565b905083600e015484600501546128049190613219565b821061282d5760008560030160008a815260200190815260200160002060050181905550612878565b83600e015482106128775783600e01548261284891906131e5565b8560030160008a8152602001908152602001600020600501600082825461286f91906131e5565b925050819055505b5b82600e0154836005015461288c9190613219565b81106128b557600085600301600089815260200190815260200160002060050181905550612900565b82600e015481106128ff5782600e0154816128d091906131e5565b85600301600089815260200190815260200160002060050160008282546128f791906131e5565b925050819055505b5b8460030160008981526020019081526020016000206005015485600301600089815260200190815260200160002060050154111561294557869550505050505061294e565b87955050505050505b92915050565b60008060646009612965868661299c565b61296f91906136f9565b6129799190613219565b9050606481846129899190613439565b61299391906131b4565b91505092915050565b6000424484846040516020016129b5949392919061374b565b6040516020818303038152906040528051906020012060001c905092915050565b60405180610100016040528060008152602001600081526020016000815260200160008152602001600015158152602001600073ffffffffffffffffffffffffffffffffffffffff16815260200160608152602001606081525090565b6040518061012001604052806000815260200160008152602001600081526020016000815260200160008152602001600015158152602001600073ffffffffffffffffffffffffffffffffffffffff16815260200160608152602001606081525090565b6000604051905090565b600080fd5b600080fd5b6000819050919050565b612abe81612aab565b8114612ac957600080fd5b50565b600081359050612adb81612ab5565b92915050565b60008060408385031215612af857612af7612aa1565b5b6000612b0685828601612acc565b9250506020612b1785828601612acc565b9150509250929050565b612b2a81612aab565b82525050565b6000602082019050612b456000830184612b21565b92915050565b600073ffffffffffffffffffffffffffffffffffffffff82169050919050565b6000612b7682612b4b565b9050919050565b612b8681612b6b565b8114612b9157600080fd5b50565b600081359050612ba381612b7d565b92915050565b600060208284031215612bbf57612bbe612aa1565b5b6000612bcd84828501612b94565b91505092915050565b600060208284031215612bec57612beb612aa1565b5b6000612bfa84828501612acc565b91505092915050565b612c0c81612aab565b82525050565b60008115159050919050565b612c2781612c12565b82525050565b6000612c3882612b4b565b9050919050565b612c4881612c2d565b82525050565b600081519050919050565b600082825260208201905092915050565b60005b83811015612c88578082015181840152602081019050612c6d565b60008484015250505050565b6000601f19601f8301169050919050565b6000612cb082612c4e565b612cba8185612c59565b9350612cca818560208601612c6a565b612cd381612c94565b840191505092915050565b600061010083016000830151612cf76000860182612c03565b506020830151612d0a6020860182612c03565b506040830151612d1d6040860182612c03565b506060830151612d306060860182612c03565b506080830151612d436080860182612c1e565b5060a0830151612d5660a0860182612c3f565b5060c083015184820360c0860152612d6e8282612ca5565b91505060e083015184820360e0860152612d888282612ca5565b9150508091505092915050565b60006020820190508181036000830152612daf8184612cde565b905092915050565b600080fd5b600080fd5b7f4e487b7100000000000000000000000000000000000000000000000000000000600052604160045260246000fd5b612df982612c94565b810181811067ffffffffffffffff82111715612e1857612e17612dc1565b5b80604052505050565b6000612e2b612a97565b9050612e378282612df0565b919050565b600067ffffffffffffffff821115612e5757612e56612dc1565b5b612e6082612c94565b9050602081019050919050565b82818337600083830152505050565b6000612e8f612e8a84612e3c565b612e21565b905082815260208101848484011115612eab57612eaa612dbc565b5b612eb6848285612e6d565b509392505050565b600082601f830112612ed357612ed2612db7565b5b8135612ee3848260208601612e7c565b91505092915050565b60008060008060808587031215612f0657612f05612aa1565b5b6000612f1487828801612acc565b9450506020612f2587828801612acc565b935050604085013567ffffffffffffffff811115612f4657612f45612aa6565b5b612f5287828801612ebe565b925050606085013567ffffffffffffffff811115612f7357612f72612aa6565b5b612f7f87828801612ebe565b91505092959194509250565b600061012083016000830151612fa46000860182612c03565b506020830151612fb76020860182612c03565b506040830151612fca6040860182612c03565b506060830151612fdd6060860182612c03565b506080830151612ff06080860182612c03565b5060a083015161300360a0860182612c1e565b5060c083015161301660c0860182612c3f565b5060e083015184820360e086015261302e8282612ca5565b91505061010083015184820361010086015261304a8282612ca5565b9150508091505092915050565b600060208201905081810360008301526130718184612f8b565b905092915050565b600060408201905061308e6000830185612b21565b81810360208301526130a08184612cde565b90509392505050565b60006040820190506130be6000830185612b21565b81810360208301526130d08184612f8b565b90509392505050565b600082825260208201905092915050565b7f6172656e61206973206e6f74206f70656e000000000000000000000000000000600082015250565b60006131206011836130d9565b915061312b826130ea565b602082019050919050565b6000602082019050818103600083015261314f81613113565b9050919050565b7f4e487b7100000000000000000000000000000000000000000000000000000000600052601260045260246000fd5b7f4e487b7100000000000000000000000000000000000000000000000000000000600052601160045260246000fd5b60006131bf82612aab565b91506131ca83612aab565b9250826131da576131d9613156565b5b828204905092915050565b60006131f082612aab565b91506131fb83612aab565b925082820390508181111561321357613212613185565b5b92915050565b600061322482612aab565b915061322f83612aab565b925082820190508082111561324757613246613185565b5b92915050565b7f62726f6b652061737320676f74206e6f206d6f6e657900000000000000000000600082015250565b60006132836016836130d9565b915061328e8261324d565b602082019050919050565b600060208201905081810360008301526132b281613276565b9050919050565b7f796f7520617265206e6f742074686520686f7374000000000000000000000000600082015250565b60006132ef6014836130d9565b91506132fa826132b9565b602082019050919050565b6000602082019050818103600083015261331e816132e2565b9050919050565b7f796f7520617265206e6f7420696e20746865206172656e610000000000000000600082015250565b600061335b6018836130d9565b915061336682613325565b602082019050919050565b6000602082019050818103600083015261338a8161334e565b9050919050565b7f4e487b7100000000000000000000000000000000000000000000000000000000600052602260045260246000fd5b600060028204905060018216806133d857607f821691505b6020821081036133eb576133ea613391565b5b50919050565b60006133fc82612aab565b91507fffffffffffffffffffffffffffffffffffffffffffffffffffffffffffffffff820361342e5761342d613185565b5b600182019050919050565b600061344482612aab565b915061344f83612aab565b925082820261345d81612aab565b9150828204841483151761347457613473613185565b5b5092915050565b60008190508160005260206000209050919050565b60006020601f8301049050919050565b600082821b905092915050565b6000600883026134dd7fffffffffffffffffffffffffffffffffffffffffffffffffffffffffffffffff826134a0565b6134e786836134a0565b95508019841693508086168417925050509392505050565b6000819050919050565b600061352461351f61351a84612aab565b6134ff565b612aab565b9050919050565b6000819050919050565b61353e83613509565b61355261354a8261352b565b8484546134ad565b825550505050565b600090565b61356761355a565b613572818484613535565b505050565b5b818110156135965761358b60008261355f565b600181019050613578565b5050565b601f8211156135db576135ac8161347b565b6135b584613490565b810160208510156135c4578190505b6135d86135d085613490565b830182613577565b50505b505050565b600082821c905092915050565b60006135fe600019846008026135e0565b1980831691505092915050565b600061361783836135ed565b9150826002028217905092915050565b61363082612c4e565b67ffffffffffffffff81111561364957613648612dc1565b5b61365382546133c0565b61365e82828561359a565b600060209050601f831160018114613691576000841561367f578287015190505b613689858261360b565b8655506136f1565b601f19841661369f8661347b565b60005b828110156136c7578489015182556001820191506020850194506020810190506136a2565b868310156136e457848901516136e0601f8916826135ed565b8355505b6001600288020188555050505b505050505050565b600061370482612aab565b915061370f83612aab565b92508261371f5761371e613156565b5b828206905092915050565b6000819050919050565b61374561374082612aab565b61372a565b82525050565b60006137578287613734565b6020820191506137678286613734565b6020820191506137778285613734565b6020820191506137878284613734565b6020820191508190509594505050505056fea2646970667358221220acbf9344cde6ad8a9af428e7fa6838166e6ff010de2bcdbe23748ed161f2017d64736f6c63430008120033",
  "linkReferences": {},
  "deployedLinkReferences": {}
}